:020000040800F2
:1000000018060020D5000008150C00087B0A00081F
:1000100000000000000000000000000000000000E0
:10002000000000000000000000000000850E000835
:100030000000000000000000690C0008890E0008A4
:100040000501000805010008050100080501000878
:100050000501000805010008050100080501000868
:100060000501000805010008050100080501000858
:100070000501000805010008050100080501000848
:100080000501000800000000000000000501000854
:100090000000000005010008050100080501000836
:1000A0000000000005010008050100080501000826
:1000B0000501000800000000D50700080501000840
:1000C0000348854600F052F80048004795120008A2
:1000D000180600200C4880F308880C480168090EB7
:1000E0000B4A914205D10B480B4901600B480C4962
:1000F00001600C4880470C480047FEE7FEE7FEE73A
:10010000FEE7FEE7FEE700001806002004000000FE
:100110001F00000018100240010000000000014014
:1001200000000000E50E0008C100000830B50B46D5
:10013000014600202022012409E00D46D5409D42C1
:1001400005D31D469540491B254695404019154647
:10015000521E002DF1DC30BD0321001D401E03782E
:1001600012021A43491EF9D510467047064C012564
:10017000064E05E0E36807CC2B430C3C984710344F
:10018000B442F7D3FFF7A0FFCC150008EC15000828
:10019000F0B5424D93B0284600F0AAF8012140483E
:1001A00000F064FD01214F02384600F083FDF1208C
:1001B00006900326684606770024C47706A96804DB
:1001C00000F008FC06A93748069600F003FC6846D4
:1001D00000F0DFF8684600940471029404946946C4
:1001E0002846059400F0BAF807220121284600F0BD
:1001F0005FF807221021284600F05AF80722202134
:10020000284600F055F807224021284600F050F813
:1002100007228021284600F04BF8AE150722314610
:10022000284600F045F807223946284600F040F8F5
:10023000284600F06DF80221284600F051F801210F
:10024000284600F043F80121284600F036F8012145
:10025000284600F074F80028F9D0134D284600F025
:100260003BFB0E480A944030089010480990462005
:100270000B9080200D90C0000F90202010900C94C7
:10028000000211900E9608A91294284600F084FBF3
:100290000121284600F014FB13B0F0BD00240140FA
:1002A000010006000004004808000240560100203A
:1002B000836A0B438362426170470029816801D0E1
:1002C000012200E002221143816070470029C168C9
:1002D00002D00122114301E049084900C160704782
:1002E000C26802239A43C260C2680A43C260704770
:1002F000064910B5884208D144150121204600F076
:10030000E5FC0021204600F0E1FC10BD0024014086
:10031000826800210123DB071A4382600F231B033D
:100320008268491CD20FD207994201D0002AF7D126
:100330008168002901DB006C70470020704702468D
:100340000020CB0104D5926801231B069A4300E0EC
:1003500012680A4200D001207047000030B5C26820
:10036000084B8C681A400B680D792343CC686D03E9
:100370002C4323430C69496923430B431343C36054
:1003800030BD000003D2FFFF816804221143816069
:1003900070470021016001718160C16001614161AC
:1003A00070470000064A05485188405C491C89B2E4
:1003B0005180FE2901D10021518070475800002052
:1003C0001C000020044801884088814201D100209F
:1003D00070470120704700001C00002010B501216B
:1003E0004C06204600F05AFC0021204600F056FC46
:1003F00010BD000070B50446817A012005462B4EE1
:100400008D40316801433160F069A843F061207B81
:10041000002812D1F068A843F060E08861880004E9
:100420000843A17AC90089190864A08821880004BA
:100430000843A17AC90089194864207B012814D196
:10044000F0682843F0602046FFF786FE1021C8417F
:10045000A17AC90089190864201DFFF77DFE1021CB
:10046000C841A17AC90089194864E07A00287068F7
:1004700005D0284370602089002802D004E0A843FA
:10048000F8E77069A84370612089012802D170697A
:1004900028437061607B012802D1F0692843F06134
:1004A000306840084000306070BD000000660040C9
:1004B000002A426901D00A4300E08A434261704742
:1004C00010B5036800220224A343036003680124DB
:1004D00023430360314B00E0521C4468E40701D120
:1004E0009A42F9D14268D2073ED08C798022012C01
:1004F00004683BD094430460CC794022012C04680A
:1005000036D0944304600C7A2022012C046831D048
:10051000944304604C7A1022012C04682CD094433C
:1005200004608C7A0822012C046827D0944304606C
:10053000CC7A0422012C046822D0944304608A7887
:10054000CC789207240622430C79240422434C7968
:10055000098824052243491E0A43C26101684908EB
:100560004900016000210EE0002010BD1443C2E7E5
:100570001443C7E71443CCE71443D1E71443D6E749
:100580001443DBE7491C4268D20701D09942F9D1F4
:100590004068C007E8D1012010BD0000FFFFFF0048
:1005A000F1B501218AB0480400F060FB0121480642
:1005B00000F068FB022669460E74002403208C7448
:1005C000C00203900125CD7409274D74FF0603A9CD
:1005D000384600F0FFF904220B21384600F032FAC9
:1005E00004220C21384600F02DFA194F3846FFF747
:1005F000F5FE69468C71CC7102940A988870CC70B3
:10060000072008714E71082008803846FFF758FF10
:1006100008A98C70CD700D71C020694608834C8389
:100620008C83CC830C8408A94D7106A8FFF7E2FEE9
:100630001E20694608754E758D7505A800F0ECFA08
:10064000012202213846FFF733FF00200BB0F0BD36
:10065000006400400B0130B51B18FF3381331C6B65
:1006600004252C4014721C6B29D0E40854601C6BC8
:1006700002252C4054725C6B2407240F94725C6B2F
:10068000240AD4749C6BD4729C6B240A14739C6BE4
:10069000240C54739C6B240E9473DC6BD473DC6B4E
:1006A000240A1474DC6B240C5474DB6B1B0E9374DF
:1006B0002022002906D001691143016130BD640D7B
:1006C0001460D4E7C1681143C16030BD30B5024643
:1006D000936800205B0108D49068000101D50120D7
:1006E00003E09068C0002ED5022003019A18FF3263
:1006F00081321368DB07DB0F13600B7A002B24D0E9
:1007000014684D681C434B7AED002B431C43146066
:100710008B7A1B071B0F8B7253681B091B015360DD
:1007200053688C7A23435360CB68CC7A1B022343F3
:1007300093600B69C97B1B020B43D36011680123D3
:100740001943116030BD042030BD13684C7A234337
:100750000C88640523431360DAE7000000220029B7
:1007600004D0012905D0022906D112E0826813487D
:1007700001E08268124802401249501A8A4218D099
:100780000ADC002A17D01048101811D0022810D106
:100790000DE082680D48EEE7FF38FF38801E06D076
:1007A0000B49401804D001214904884201D101209D
:1007B00070470020704702207047000003000004CB
:1007C0000003000800010008FFFFFFFB000003100A
:1007D0000003FFF7F0B585B06A4600211148FFF726
:1007E00039FF00206E461049104A0746B57A0CE0E2
:1007F0003318DB7A0C8813550B885B1C0B800B8835
:10080000FE2B00D10F80401CC0B28542F0D8802161
:10081000074800F02EF9074800680749086005B04E
:10082000F0BD0000006400401C00002058000020C3
:1008300000040048380000203C000020F0B585B0DE
:100840000022602300936C46019222726272A172B0
:100850006B4604E0845C9D18521CEC7292B28A4292
:10086000F8D3124F19463846FFF730FF06460024EA
:100870000F4D01E0641CA4B231463846FFF76EFF0D
:10088000002801D1AC42F5D3AC4205D30020FFF7DC
:1008900087FE012005B0F0BD4021064800F0E9F8D0
:1008A00005480068054908600020F3E7006400403F
:1008B000FF0F000000040048380000204000002026
:1008C0000029016802D00122114301E0014A1140D0
:1008D00001607047FEFF0000F0B501682B4A11402F
:1008E00001600021016041608160C1602849284A9F
:1008F00008390F2390422DD0254AF024143290421B
:100900002FD0234A1D022832904231D0204E1A03A4
:100910003C36B04203D1486815E04860F0BD1C4F3A
:100920000F2650373604B8422DD0194F6437B842DD
:1009300002D14868320106E0154F7837B84204D139
:1009400048680F2212061043E7E71249114F083991
:10095000B84202D148681843DFE70E4B143398427F
:1009600002D148682043D8E70A4B2833984202D185
:1009700048682843D1E7074B3C339842CBD0054A1F
:1009800050329042CAD148683043C6E7FEFF0000AB
:10099000080002400804024030B503680C4A0C6AA3
:1009A00013408A684D6922430C692C4322438C69A9
:1009B0002243CC6922434C6A22438C6A22431A4365
:1009C0000260CA6842600A6882604968C16030BDDE
:1009D0000F80FFFFF0B50022032501230C68934030
:1009E0001C409C422AD10C79012C01D0022C12D13E
:1009F000876854002E46A640B74387604E79A640CC
:100A000084682643866084889C43848084888B79AC
:100A100093401C438480066853002C469C40A643A8
:100A200006600E7907689E403E430660C668A6438E
:100A3000C660CC799C40C3681C43C460521C102A19
:100A4000CBD3F0BD4B07DB0E9A40C90810B5890027
:100A50000818016A0F249C40A1430162016A1143F6
:100A6000016210BD0246128A00200A4200D0012015
:100A700070470185704781617047FEE71CB5032010
:100A80000121400400F0F2F80020694608710120BD
:100A9000C871182000900648FFF79CFF0120C00392
:100AA000009009206946C006FFF794FF1CBD0000B6
:100AB0000004004870B500F031F8154900280871AD
:100AC0001AD00125AD07134C01280AD0022814D0F2
:100AD000032811D1284600F03DFA2146884214D05F
:100AE00007E0284600F036FA2146884201D109493C
:100AF000B431284600F0C2FA70BD284600F02AFA48
:100B000021468842F5D10449F3E70349B431F0E7BF
:100B100030000020CA0300003205000070B5234DEC
:100B200010212846FFF79EFF214C082160702846BF
:100B3000FFF798FFA07009206901C006FFF792FF38
:100B4000E0702178012925D16178002904D0A278AC
:100B5000002A01D000281DD1164E3368164A1568A8
:100B60005B1BFF25F535AB4214D9126832600022B9
:100B70002270002905D0A178002907D0002807D0CD
:100B800011E0E088401CE080012070BD022070BDB3
:100B9000032070BD6178012905D1A178012902D116
:100BA000012800D12070002070BD00000004004822
:100BB000300000204C000020380000207CB50320CD
:100BC0000121400400F052F801206A461071002112
:100BD00091715071D071C0200D4C00906946204633
:100BE000FFF7F8FEC0212046FFF745FF072409253F
:100BF0002402ED06694628460094FFF7EBFE2146E5
:100C00002846FFF738FFFF20F53000F007FB7CBDDA
:100C1000000400487047000030B582780124017854
:100C2000002A15D08B080E4A9B009A181368890772
:100C3000C90EFF258D40AB434578AD072D0E8D4085
:100C40001D4315600078C006C00E8440054804E0CE
:100C5000C806C00E844003488030046030BD0000E8
:100C600000E400E000E100E070470000044A0029D1
:100C7000516901D0014300E0814351617047000098
:100C800000100240044A0029D16901D0014300E06C
:100C90008143D1617047000000100240044A0029DE
:100CA000116901D0014300E08143116170470000E8
:100CB00000100240044A0029916901D0014300E07C
:100CC000814391617047000000100240044A0029EE
:100CD000D16801D0014300E08143D160704700003A
:100CE0000010024070B5002400F034F8012000F03C
:100CF0008BF805252D0300E0641C012000F058F856
:100D0000002801D1AC42F7D1012000F051F80028B1
:100D10001CD00F4911200860002000F06BF8002063
:100D200000F080F80521C904002000F093F80120AC
:100D300000F082F8192000F03BF80028FAD00220D9
:100D400000F096F800F04EF80828FBD170BD0000C6
:100D500000200240124801680122114301604168ED
:100D6000104A1140416001680F4A1140016001685A
:100D7000012292049143016041683F221204914391
:100D80004160C16A09090901C162016B074A11404A
:100D90000163416B4908490041630021816070474C
:100DA000001002400CB8FF08FFFFF6FEACFEF0FF9B
:100DB000034600200A4A59090CD001290CD0022907
:100DC0000CD0516BDA06D20E012393400B4200D0B7
:100DD000012070471168F5E7116AF3E7516AF1E7FE
:100DE00000100240024840680C2108407047000093
:100DF00000100240034A5168F023994301435160B7
:100E0000704700000010024005490028086802D021
:100E10000122104301E040084000086070470000D4
:100E200000100240034A516807231B029943014303
:100E30005160704700100240012205491206002847
:100E4000086801D0104300E090430860704700003C
:100E50000010024010B5054A53687B24E403A34305
:100E60005360536808430343536010BD00100240B1
:100E7000034A5168890889000143516070470000A6
:100E8000001002407047000002480168491E0160DE
:100E9000704700003800002070B50E487D21C90061
:100EA0000D4C0068FFF742F90C4A0723401EA04290
:100EB00001D901210BE05061094EF16903250902B6
:100EC000090AAD072943F1610021916113610029ED
:100ED000EDD170BD08000020FFFFFF0000E000E042
:100EE00004ED00E0134801680122114301604168EC
:100EF000114A114041600168104A114001600168C7
:100F0000012292049143016041683F2212049143FF
:100F10004160C16A09090901C162016BFF225432B3
:100F200091430163416B490849004163002181609D
:100F300070470000001002400CB8FF08FFFFF6FEEB
:100F40000029018802D00122114301E0490849002B
:100F500001807047806B7047F0B501218BB0480469
:100F6000FFF784FE022669460E7101244C710025AC
:100F70008D71CC710E200927FF0600903846FFF7CF
:100F800029FD022203213846FFF75CFD02221146AB
:100F90003846FFF757FD022201213846FFF752FD80
:100FA00001210846FFF76EFE2F2069468883CD8316
:100FB0000C4808908D84A50707A9284600F060F822
:100FC0007020694608814C818E820748049002A9EE
:100FD000284600F00BF801212846FFF7B1FF0BB0BF
:100FE000F0BD00001F4E0000CA03000070B5028C67
:100FF00010239A430284048C8288038B1A4D2B4061
:101000000D782D062D0C1D4320239C438B891B0539
:101010001E0C4B8826431B051B0C144C3343A0426B
:1010200002D0134EB04219D1124E32400E8AB6048D
:10103000360C3243A04211D18024A343CC8924052D
:10104000240C1C4340239C438B881B051B0C23430F
:10105000094C22404C8AA404240C2243828005833C
:1010600089688163038470BDFF8C0000002C0140FF
:1010700000400140FFFB0000FFF700008163704764
:1010800010B50288144B984206D00124A407A04250
:1010900002D0124CA04203D17024A2434C882243B8
:1010A0000F4CA04203D00F4C22400C8922430280F7
:1010B0004A68C2620A880285984208D00A4A904269
:1010C00005D00A4A904202D0094A904201D1897A59
:1010D00001860121818210BD002C014000040040E6
:1010E00000100040FFFC00000040014000440140AF
:1010F0000048014030B47446641E2578641CAB423D
:1011000000D21D46635D5B00E31830BC184702E067
:1011100008C8121F08C1002AFAD170477047002082
:1011200001E001C1121F002AFBD1704770B5144CB9
:1011300014496088144A411801250020914201D3C6
:10114000257000E0207021894B229201891A0F4AF4
:10115000914203D2E1890E4A91420ED9607800286B
:1011600009D1012109208902C006FFF782FCFF2076
:10117000F53000F053F8657070BD607070BD000010
:1011800020000020E0B1FFFF71170000E90300001C
:10119000B80B000010B5002000F04AF80D4C60803C
:1011A000012000F045F8A080022000F041F8E08026
:1011B000032000F03DF82081042000F039F8608120
:1011C000052000F035F8A081062000F031F8E0811C
:1011D00010BD00002000002010B5FFF783FEFFF7D0
:1011E00081FDFFF759FEFFF7B7FEFFF7E7FCFEF7BB
:1011F000CFFF0020FFF7D4F9FFF740FC10BD0A88AD
:101200001346424010015040C0B21A0A03025A402D
:10121000C3005A40000942400A80704703490A68E7
:101220000B68D31A8342FBD37047000038000020BC
:1012300010B50446002014490246C3001B1A1B19AE
:101240005B00CB5A401C9A18C0B20A28F5D30A2179
:101250001046FEF76BFF2300FFF74CFF07050C0C51
:101260000C10101013000949484309218902FEF7A8
:101270005DFF06E006494843400A02E0A5214843D5
:10128000C00980B210BD00005601002055090100C0
:10129000CB020000FFF7A0FF0127BF07374C384EF5
:1012A000384D00F083F8FFF705FC374801682A68DD
:1012B000891A64294DD32968016030683348FFF7E3
:1012C00063F80A213068FEF731FF00293ED1FFF7AD
:1012D00061FF28687D21C0434901884201D9FFF799
:1012E00025FF28682A49C04388422FD93846FFF78E
:1012F00031FE2849884201D101200FE03846FFF72E
:1013000029FE2449B431884201D1032006E0384641
:10131000FFF720FE2049884202D10720207006E016
:1013200000201C492070B4393846FFF7A7FE1B493E
:1013300020788871C879401CC0B2C871FF2801D1DB
:101340000020C87108211548FFF778FA3068401C62
:101350003060134800682968401A322803D9802178
:101360001048FFF788FB104800682968401A3228A7
:1013700097D940210B48FFF77EFB92E750000020F1
:1013800048000020380000204400002000240140D4
:10139000881300007E040000E60500000000002025
:1013A0003C0000200004004840000020F8B5002563
:1013B0000127254E254CBF073BE0FEF7F3FF607089
:1013C0000146214800F048F8012832D1307C00283D
:1013D0002FD1B07CEE2802D1F17CEE2903D0717CB4
:1013E000EE2926D111E0707C012805D11849384634
:1013F000FFF744FE012016E000281AD114493846B0
:10140000B439FFF73BFE257013E0F17CEE2902D0E2
:10141000EE280ED109E00128EED10D493846B4314D
:10142000FFF72CFE0320207003E0012906D00029DD
:10143000E4D0FEF7C7FF0128BFD0F8BD0549384604
:10144000FFF71CFE0720EEE7E2010020500000201D
:101450007E040000E605000070B5514D00246C705C
:101460002A78034623330126002A1AD0012A24D0E1
:10147000022A29D0032A2CD0042A2FD0052A32D0C0
:10148000062A37D0072A3AD0082A46D0092A52D04D
:101490000A2A55D00B2A61D00C2A68D00D2A72D0A6
:1014A00073E0EB2971D100220170D2431A73120A42
:1014B0005A7300F077F82E706BE0012965D1417006
:1014C00000F070F802205AE0817000F06BF8032001
:1014D00055E0C17000F066F8042050E0017100F0A2
:1014E00061F805204BE01E294FD1417100F05AF8F8
:1014F000062044E0817100F055F807203FE0AA780B
:101500008218D17100F04EF8A878401CC0B2A870C3
:1015100003283ED1AC70082031E0EA78821891723D
:1015200000F040F8E878401CC0B2E870062830D1DE
:10153000EC70092023E0017400F034F80A201EE06A
:101540002A798218517400F02DF82879401CC0B215
:1015500028711E281DD12C710B2010E0587B1A7B9E
:1015600000021043C0B288420FD10C2007E0587B24
:101570001A7B00021043000A884206D10D20287011
:1015800007E000E001E0BE2905D02C70AC70EC70E3
:101590002C71687870BD203041742C706E70F8E743
:1015A0005200002018B523300A46417B0446037BD5
:1015B00008021843694608801046FFF720FE694676
:1015C00008882073000A607318BD0000EC1500083D
:1015D00000000020580000000E110008441600080A
:1015E00058000020C00500001E110008AABBCCDD79
:1015F000EE060000006CDC020000000000000000AD
:1016000001020304060708090000000000000000B2
:1016100000000000000000000000000001010101C6
:1016200000000000FFFFFFFFFFFFFFFFFFFFFFFFC6
:10163000FFFFFFFF00000000FFFFFFFF00000000B2
:0416400000000000A6
:04000005080000C12E
:00000001FF
