:020000040800F2
:10000000F80C0120394D0008414D0008434D00080F
:10001000454D0008474D0008494D0008000000000C
:100020000000000000000000000000004B4D000830
:100030004D4D0008000000004F4D0008814E0008A3
:10004000534D0008534D0008534D0008534D000810
:10005000534D0008534D0008534D0008534D000800
:10006000534D0008534D0008534D0008534D0008F0
:10007000534D0008534D0008455500088B570008A4
:10008000534D0008534D0008534D0008534D0008D0
:1000900071690008534D0008534D0008534D000886
:1000A000534D0008534D0008534D0008534D0008B0
:1000B0006D5C0008534D0008534D0008534D000877
:1000C000534D0008534D0008534D0008534D000890
:1000D000534D0008534D0008534D0008534D000880
:1000E000534D0008534D0008534D0008F592000889
:1000F000534D000891940008534D0008534D0008DB
:10010000534D0008534D0008534D0008534D00084F
:10011000534D0008534D0008534D0008534D00083F
:10012000534D0008534D0008534D0008534D00082F
:10013000534D000841720008534D0008534D00080C
:10014000256B0008534D0008534D0008D982010863
:10015000534D00086556000807540008534D000829
:10016000534D0008534D0008534D0008534D0008EF
:10017000534D0008534D0008534D0008534D0008DF
:10018000534D0008534D0008DFF80CD01CF098FCCC
:1001900000480047B1010008F80C01202A48007807
:1001A000012804DD28480078401E27490870704760
:1001B0001CB500F08BF82720244B25A2264900907F
:1001C00026481CF0D9FC0446601C38B1B4F5967F73
:1001D00004D2224922A01CF0BFFC02E021A01CF0A6
:1001E000BBFC28A02AA12DA32EA2CDE9001030A18E
:1001F00035481CF0B1FC2920144B15A2164900907B
:1002000016481CF0B9FC0446601C38B1B4F5967F62
:1002100004D2124912A01CF09FFC02E011A01CF0B5
:100220009BFC09F0A4F90AF0D7FF02224FF4FA71FF
:10023000AFF2970008F043FA019003E00AF0A8FF3C
:1002400018F081FDFAE700000100002034D0010819
:100250004E4F54494345000060830408FA020020D1
:10026000257300004552524F523A206C6F67207040
:1002700072696E74657220696E6E65722066617552
:100280006C740A0031353A35313A343500000000DB
:100290004D61722033312032303137005630312DEC
:1002A000303000003130303030303030000000006D
:1002B0005A4B5254204D616E6167656D616E7420BA
:1002C000426F617264000000A483040808B500F066
:1002D000A1F84FF4A06000F0E3F808F0B8FB07F0D5
:1002E000E7FD05F083FC05F0E3FC07F0A3F8002030
:1002F00014F0C7FA012014F0C4FA05F04BFE06F022
:10030000FAF904F00FFE06F02BFB1BF07DFF0AF05C
:10031000CBFF0448044B054A01210090044816F025
:10032000A1F908BD68020020540200205C000120F1
:10033000F00001201FB50121084602F018FB012141
:10034000084602F014FB0020ADF80C00ADF80600E2
:10035000C720029042F2CF00ADF8040000208DF8D3
:100360000E0001A94A4802F0F0FC19208DF80000A7
:1003700003208DF801008DF8020001208DF80300A4
:10038000684600F092F80121414803F093F90122F8
:1003900011463F4803F07AF900213D4802F05EFD26
:1003A0001FBD1FB50121084602F0D0FA0121084601
:1003B00002F0CCFA0020ADF80C00ADF80600C72022
:1003C0000290272002904AF20F40ADF8040001A9E4
:1003D0004FF0804002F0B9FC1C208DF80000022094
:1003E0008DF8010003208DF8020001208DF8030034
:1003F000684600F05AF80121880703F05BF90122F2
:100400001146900703F042F900214FF0804002F0BE
:1004100025FD1FBD30B51F4800684FF47A72B0FB50
:10042000F2F1B1F1807F01D301201DE021F07F4086
:10043000401E4FF0E022506150170022002807DADA
:1004400013071D0E144B00F00F04241F1D5503E06D
:1004500013071C0E114B1C5400BF00204FF0E0226C
:10046000906107201061002008B100BFFEE730BD99
:10047000002106E047F2305100BF0A00A1F101015E
:10048000FBD10200A0F1010398B2F3D17047000044
:10049000000001402400002018ED00E000E400E02E
:1004A00032490143324A1160704770B50021002380
:1004B0000F22C4781CB32E4C246804F4E064C4F505
:1004C000E064C4F30721C1F10404E3B20A414478B3
:1004D0009C40E1B28478144021430C07210E254C46
:1004E00005786155047804F01F050124AC400578B7
:1004F0006D11AD0005F1E025C5F8004109E0047873
:1005000004F01F050124AC401B4D0678761145F818
:10051000264070BD194A0A400243154B1B1F1A6042
:10052000704739B1124A121D12680243104B1B1D4D
:100530001A6006E00E4A121D126882430C4B1B1D06
:100540001A607047042808D14FF0E021096941F092
:1005500004014FF0E022116107E04FF0E02109694A
:1005600021F004014FF0E022116170470000FA050C
:100570000CED00E000E400E080E100E080FFFF1F00
:1005800010B50121080202F05CFA00214FF48070DE
:1005900002F057FA10BD30B5024600200023506823
:1005A000F84C20400D790C6844EA05242043506043
:1005B0009068F54C2040D1E903542C438D682C43BE
:1005C0004D7944EA450420439060D06A20F47000DD
:1005D0000C7D641EE4B2234340EA0350D06230BD78
:1005E00000210160017141718160C16001610121DF
:1005F000017570470021E54A1168E54A1140D0E9CC
:1006000000231A4383681A43C3681A431143E14A1B
:10061000C2F8041370470021016041608160C1602D
:10062000704721B1826842F00102826003E0826873
:1006300022F00102826070470A4600214168D64BD1
:1006400019401143416070474162826270470A4617
:100650000021416821F01F0111434160704738B10A
:10066000CA49096841F40001CA4AC2F8041306E005
:10067000C649096821F40001C64AC2F8041370474C
:1006800038B1C249096841F48001C24AC2F8041372
:1006900006E0BE49096821F48001BE4AC2F804138D
:1006A0007047F0B504460D4600200021092D11DDEC
:1006B000E068A5F10A0606EB4607072606FA07F1E9
:1006C0008843A5F10A0606EB460603FA06F108433D
:1006D000E0600CE0206905EB4507072606FA07F104
:1006E000884305EB450603FA06F108432061072A13
:1006F0000FDA606B561E06EB86071F2606FA07F117
:100700008843561E06EB860605FA06F10843606329
:1007100022E00D2A0FDA206BD61F06EB86071F2674
:1007200006FA07F18843D61F06EB860605FA06F19E
:100730000843206310E0E06AA2F10D0606EB86078D
:100740001F2606FA07F18843A2F10D0606EB86067E
:1007500005FA06F10843E062F0BD816841F080418E
:1007600081607047014600208A6802F480020AB165
:10077000012000E00020704721B1826842F48062CD
:10078000826003E0826822F480628260704721B157
:10079000826842F00202826003E0826822F0020274
:1007A0008260704710B50A4600210023416821F499
:1007B0006041531E41EA4331416010BD21B142689E
:1007C00042F40062426003E0426822F40062426048
:1007D00070470146C86C80B270476C48001D0068C5
:1007E000704721B1826842F48072826003E08268BF
:1007F00022F480728260704721B1826842F40072F4
:10080000826003E0826822F400728260704738B12F
:100810005E49096841F400515E4AC2F8041306E0DB
:100820005A49096821F400515A4AC2F80413704722
:10083000F0B504461546002000220026092911DDE6
:10084000E068A1F10A0707EB470C072707FA0CF24B
:100850009043A1F10A0707EB470703FA07F2104399
:10086000E0600CE0206901EB410C072707FA0CF26D
:10087000904301EB410703FA07F210432061A06B9C
:10088000C0F30156EF1C06F1010CA7EB0C0707EBB8
:10089000870C1F2707FA0CF29043EF1C06F1010C9E
:1008A000A7EB0C0707EB870701FA07F21043A063D9
:1008B000F0BD10B50A4600210023816B21F44011E0
:1008C000531E41EA0351816310BD08B50023009314
:1008D0000090009B0B440093009B1A6008BD0A46E1
:1008E0000021816821F470211143816070470A461C
:1008F0000021816821F440111143816070478168B3
:1009000041F4800181607047014600208A6802F44A
:1009100080020AB1012000E00020704721B1426846
:1009200042F48062426003E0426822F480624260E6
:10093000704721B1426842F48052426003E042684D
:1009400022F480524260704708B5024600200090B1
:10095000009201F12800009B184400900098006864
:1009600080B208BD10B50B460021D9B2012404FAAB
:1009700001F11AB144680C43446002E044688C43BE
:10098000446010BDFFFEFFFCFDF7FFC004230140E3
:10099000E030FCFF00200140FFFD3FFF0246002049
:1009A00013680B400BB1012000E000207047CA43E0
:1009B0000260704770B502460020002300240B122D
:1009C000556801268E4005EA060415681D4015B1DC
:1009D0000CB1012000E0002070BD00220A12D343B8
:1009E0000360704710B50446FE48844209D10121D6
:1009F000480602F015F800214FF0007002F010F8E0
:100A000008E00121880602F00BF800214FF0806019
:100A100002F006F810BD30B502460020002314682D
:100A200024F002041460146844F00104146000E02F
:100A30005B1C546804F001041CB94FF6FF74A34218
:100A4000F6D1546804F001040CB900206CE08C79F4
:100A5000012C04D1146844F08004146003E014688D
:100A600024F080041460CC79012C04D1146844F083
:100A70004004146003E0146824F0400414600C7A0D
:100A8000012C04D1146844F02004146003E01468BD
:100A900024F0200414604C7A012C04D1146844F032
:100AA0001004146003E0146824F0100414608C7ABD
:100AB000012C04D1146844F00804146003E01468A5
:100AC00024F008041460CC7A012C04D1146844F09A
:100AD0000404146003E0146824F0040414608C78A7
:100AE000A407CD7844EA05640D7944EA05444D79BC
:100AF00044EA05540D886D1E2C43D461146824F01B
:100B000001041460002300E05B1C546804F001043D
:100B10001CB14FF6FF74A342F6D1546804F00104EF
:100B20000CB1002000E0012030BD10B50021837A17
:100B3000012202FA03F1AC4A126842F00102AA4B08
:100B40001A60A94A1C3212688A43A74B1C331A60E8
:100B5000027BCAB9A44A0C3212688A43A24B0C33F6
:100B60001A604288C38842EA03439F4A4032847A2B
:100B700042F834300288838842EA03439A4A40327A
:100B8000847A02EBC4025360027B012A19D1964A8F
:100B90000C3212680A43944B0C331A604288038863
:100BA00042EA0343904A4032847A42F83430C288A1
:100BB000838842EA03438C4A4032847A02EBC402BF
:100BC0005360C27A3AB9884A121D12688A43864B2A
:100BD0001B1D1A6006E0844A121D12680A43824BEC
:100BE0001B1D1A60028932B97F4A143212688A4387
:100BF0007D4B14331A600289012A06D17A4A1432D5
:100C000012680A43784B14331A60427B012A06D1DA
:100C1000754A1C3212680A43734B1C331A60724ABD
:100C2000126822F00102704B1A6010BD0021817120
:100C3000C171017241728172C1728170C1700321F0
:100C400001710221417101210180704766490968E3
:100C500041F00101644A11601146096843F60E72C1
:100C60009143614A11601146096841EA002111600F
:100C70001146096821F001011160704721B1026835
:100C800042F48032026003E0026822F480320260A3
:100C90007047E1B1026842F0800202604FF4C27214
:100CA000125842F480734FF4C27213504FF4CA7258
:100CB000125842F480734FF4CA7213504FF4D27238
:100CC000125842F480734FF4D27213501BE0026842
:100CD00022F0800202604FF4C272125822F4807334
:100CE0004FF4C27213504FF4CA72125822F4807338
:100CF0004FF4CA7213504FF4D272125822F4807318
:100D00004FF4D2721350704710B50246002093681A
:100D100003F08063B3F1806F00D110E0936803F0BB
:100D20000063B3F1006F01D1012008E0936803F084
:100D30008053B3F1805F01D1022000E00420042839
:100D400079D002F5C07303EB00131B6803F00104B4
:100D500002F5C07303EB00131C600B7A7BB94B7A6E
:100D60000C8843EA445302F5C07404EB0014246871
:100D7000234302F5C07404EB0014236010E00B7AE7
:100D80004C6843EAC4034C7A234302F5C07404EB75
:100D900000142468234302F5C07404EB001423609C
:100DA0008B7A03F00F038B7202F5C07303EB001311
:100DB0005B6823F00F0402F5C07303EB00135C6063
:100DC00002F5C07303EB00135B688C7A234302F5D2
:100DD000C07404EB001463608B7B1C064B7B44EAFD
:100DE000034403E000640040006600400B7B44EADB
:100DF0000323CC7A234302F5C07404EB0014A360F0
:100E00008B7C1C064B7C44EA03440B7C44EA0323A2
:100E1000CC7B234302F5C07404EB0014E36002F5BD
:100E2000C07303EB00131B6843F0010402F5C073A9
:100E300003EB00131C6010BD10B50246002321B166
:100E4000012907D002290FD109E09068F94C00EA86
:100E500004030BE09068F84C00EA040306E0906895
:100E6000F64C00EA040301E0002300BF00BFF44C8D
:100E7000181BA34216D007DC83B16FF080601844C2
:100E800070B1022818D111E0B0F5007F10D0ED4C00
:100E9000204448B1B0F5003F0ED10BE002230DE035
:100EA00000230BE0002309E0002307E0012305E015
:100EB000012303E0012301E0002300BF00BFD8B2FB
:100EC00010BD21B1012907D002290FD109E08268A4
:100ED00042F0800282600AE0826842F4004282604E
:100EE00005E0826842F40002826000E000BF00BFBB
:100EF000704710B500F5D87303EB01131B6803F0BE
:100F000004031372137A53B900F5D87303EB01137A
:100F10001B6840F2FF7404EA5353136009E000F5C4
:100F2000D87303EB01131B686FF0604404EAD3032A
:100F3000536000F5D87303EB01131B6803F0020341
:100F4000537200F5D87303EB01135B6803F00F03D2
:100F5000937200F5D87303EB01135B681B0AD3741B
:100F600000F5D87303EB01139B68D37200F5D873B7
:100F700003EB01139B681C0A147300F5D87303EB91
:100F800001139B681C0C547300F5D87303EB011319
:100F90009B681B0E937300F5D87303EB0113DB689A
:100FA000D37300F5D87303EB0113DB681C0A1474C8
:100FB00000F5D87303EB0113DB681C0C547400F5C7
:100FC000D87303EB0113DB681B0E937421B9C3685C
:100FD00043F02003C36003E0036943F0200303618F
:100FE00010BD21B9C26842F02002C26003E002696C
:100FF00042F02002026170470246002019B9D3680E
:1010000003F0030006E0012903D1136903F0030094
:1010100000E00020704710B502460B4600204FF656
:10102000FF71BBB9146824F0020444F00104146099
:1010300000E0491E546804F00304012C01D000298B
:10104000F7D1546804F00304012C01D0002032E0F1
:10105000012030E0012B13D1146824F00304146044
:1010600000E0491E546804F003040CB10029F8D1D3
:10107000546804F003040CB100201CE001201AE0C5
:10108000022B17D1146824F0010444F00204146008
:1010900000E0491E546804F00304022C01D000292A
:1010A000F7D1546804F00304022C01D0002002E0C0
:1010B000012000E0002010BD014600200A6822F057
:1010C000010242F002020A604A6802F00302022AA8
:1010D00000D10120704701464FF6FF7200200B68D7
:1010E00023F002030B6000E0521E4B6803F0020382
:1010F000022B01D1002AF7D14B6803F00203022B27
:1011000000D001207047014600208A6902F070007B
:101110007047014600208A69100E70470146002082
:101120008A69C2F3074070471AB143690B434361B0
:1011300002E043698B434361704710B502460020CB
:1011400001F4700343B19369C1F3130423400BB15D
:1011500001202DE000202BE001F0807343B15368A3
:10116000C1F3130423400BB1012021E000201FE054
:1011700001F0006343B19368C1F3130423400BB142
:10118000012015E0002013E001F0007343B1D368A3
:10119000C1F3130423400BB1012009E0002007E054
:1011A0001369C1F3130423400BB1012000E00020B8
:1011B00010BD0022244B994202D10023836111E02B
:1011C000C1F3130201F000730BB1C2600AE001F039
:1011D00080630BB1026105E001F000630BB1826036
:1011E00000E0426070470246002002EA01030BB1B2
:1011F000012000E00020704770B504460D4600262F
:1012000060692840002872D0B5F5807F69D01DDC68
:10121000082D42D006DC012D2DD0022D31D0042D19
:101220007FD134E0102D3ED0202D42D0402D78D1FA
:1012300045E0000003000004000300080000031064
:10124000000100080001FFF77000F030B5F5004F15
:1012500061D009DCB5F5007F4AD0B5F5806F4DD07F
:10126000B5F5006F5DD150E0B5F5803F2DD0B5F5F7
:10127000003F56D12FE0A0685549FFF7B4FF06465E
:1012800051E0E0680321FFF7AEFF06464BE0E0685F
:101290000821FFF7A8FF064645E0E0681021FFF7A8
:1012A000A2FF06463FE020690321FFF79CFF0646A8
:1012B00039E020690821FFF796FF064633E02069F0
:1012C0001021FFF790FF06462DE060680821FFF728
:1012D0008AFF064627E060681021FFF784FF064674
:1012E00021E0A0690121FFF77EFF06461BE01BE01D
:1012F000A0690221FFF777FF064614E0A0690421E8
:10130000FFF771FF06460EE00BE0A0697021FFF7C2
:101310006AFF064607E060680421FFF764FF06469F
:1013200001E0002600BF00E00026304670BDB1F5A8
:10133000007F3AD00FDC202928D006DC01291CD000
:1013400004291DD0082940D11DE0402921D0B1F544
:10135000807F3AD126E0B1F5004F31D006DCB1F5FF
:10136000806F25D0B1F5006F2FD124E0B1F5803F1B
:1013700012D0B1F5003F28D111E0154A826025E076
:101380000822C26022E01022C2601FE0082202612F
:101390001CE01022026119E00822426016E01022CF
:1013A000426013E00422426010E0042242600DE03B
:1013B000042242600AE0002282610422426005E0C9
:1013C000002282610422426000E000BF00BF70473B
:1013D00001010100016821F00101016000210160AB
:1013E00041608160C160016121214161DB49884226
:1013F00004D13D21D94A103A91608CE0D749183187
:10140000884205D14FF47461D44A103A916082E069
:10141000D2493031884205D14FF47411CF4A103A85
:10142000916078E0CD494831884205D14FF0746130
:10143000CA4A103A91606EE0C8496031884204D1CE
:10144000C749C64A103AD16065E0C449783188423C
:1014500004D1C449C14A103AD1605CE0BF4990311F
:10146000884204D1C049BD4A103AD16053E0BB491B
:10147000A831884205D14FF03D51B84A103AD160A9
:1014800049E0BA49884204D13D21B84A083A11607E
:1014900041E0B6491831884205D14FF47461B34A2E
:1014A000083A116037E0B1493031884205D14FF434
:1014B0007411AE4A083A11602DE0AC4948318842B7
:1014C00005D14FF07461A94A083A116023E0A74999
:1014D0006031884204D1A249A44A121F11601AE067
:1014E000A2497831884204D19E49A04A121F116056
:1014F00011E09E499031884204D19B499B4A121FBA
:10150000116008E09949A831884204D14FF03D515B
:10151000964A121F1160704710B500220268944B62
:101520001A40CC680B6823434C6923438C692343DE
:10153000CC6923430C6A23434C6A23438C6A2343BC
:101540004C6B23438C6B23431A430260426922F0A5
:101550000702D1E90B3423431A4342610B6943600C
:101560004B6883608B68C36010BD002101604160DF
:101570008160C160016141618161C161016241625B
:101580008162C162016341638163704721B1026876
:1015900042F00102026003E0026822F001020260F0
:1015A000704721B1026842F40042026003E0026821
:1015B00022F400420260704721B1026842F020022A
:1015C000026003E0026822F020020260704741607E
:1015D00070470146486880B2704722B1036843F4FF
:1015E0000023036003E0036823F400230360016128
:1015F000704721B1026842F48022026003E0026871
:1016000022F48022026070470AB1016100E0C160EB
:101610007047014600200A6802F400220AB1012046
:1016200000E000207047014600200A6802F0010235
:101630000AB1012000E000207047014600204A69FD
:1016400002F03800704730B503460A4600200024F7
:10165000464DAB4202D24149103901E043491039AD
:1016600002F000550DB14C6800E00C68414D2C4073
:1016700004EA02050DB1012000E0002030BD024661
:101680003A4B9A4202D23548103801E037481038B8
:1016900001F000531BB1374B0B40C36002E0354BE8
:1016A0000B408360704710B501F080034BB122B14D
:1016B000436943F08003436103E0436923F08003FF
:1016C000436180290BD02AB1036801F01E04234333
:1016D000036004E0036801F01E04A343036010BD2F
:1016E00070B50246002000240025204EB24202D2EE
:1016F0001A4B103B01E01D4B103B1F4E0E4036B104
:101700001E2606EAD124166806EA040502E0566998
:1017100006F0800501F000560EB15C6800E01C6820
:10172000144E344004EA010616B10DB1012000E068
:10173000002070BD02460D4B9A4202D20748103875
:1017400001E00A48103801F000531BB1094B0B406F
:10175000C36002E0074B0B4083607047106002409B
:101760003D000020400F002000003D20106402409A
:101770003F801CF07D0F7D0F3C0F3C0FF74A10702F
:10178000704730B1F549096841F48071F34A11603E
:1017900005E0F249096821F48071F04A1160704750
:1017A00030B1EE49096841F40071EC4A116005E07E
:1017B000EA49096821F40071E84A1160704730B1C4
:1017C000E649096841F48061E44A116005E0E349B3
:1017D000096821F48061E14A11607047DF480068C0
:1017E00040F40060DD4908607047DC48006840F460
:1017F0008050DA4908607047D8481030006800F01F
:10180000004028B1D648D549091D0860D548086070
:101810007047D2481030006840F00040CF49103186
:10182000086070470820CD490C31096801F4803107
:10183000B1F5803F01D1012018E0C8490C31096899
:1018400001F0100109B1052010E0C4490C3109680C
:1018500001F0EF0109B1062008E0C0490C31096828
:1018600001F0020109B1072000E00820704708B527
:1018700008200090FFF7D6FF009002E0FFF7D2FFAC
:1018800000909DF800000128F8D09DF8000008BDE8
:1018900070B504460A460026082502B909E0012A67
:1018A00001D1160205E0022A01D1160201E04FF42F
:1018B0004076FFF7DCFF0546082D2DD1A7481030F4
:1018C000006820F44070A54910310860084600689F
:1018D000304308600846006820F0F80008600846B9
:1018E000006844F0020108439C4910310860084632
:1018F000006840F480300860FFF7B9FF054697485C
:101900001030006820F00200944910310860084649
:10191000006820F0F8000860284670BD30B5024627
:1019200000250824FFF7A3FF044602B909E0012AB5
:1019300001D1150205E0022A01D1150201E04FF4A0
:101940004075082C20D185481030006820F4407084
:10195000824910310860084600682843086008463C
:10196000006840F0040008600846006840F48030D9
:101970000860FFF77CFF044678481030006820F0CC
:101980000400764910310860204630BD70B5064627
:1019900014461D460822FFF76AFF0246082A1ED198
:1019A0006E481030006820F440706C4910310860B7
:1019B0000846006840F4407008600846006840F03F
:1019C0000100086034607560FFF751FF024663480C
:1019D0001030006820F001006049103108601046A6
:1019E00070BD30B502460C460825FFF740FF05469E
:1019F000082D1DD159481030006820F44070574917
:101A0000103108600846006840F40070086008461D
:101A1000006840F0010008601460FFF728FF0546E9
:101A20004E481030006820F001004C491031086029
:101A3000284630BD30B502460C460825FFF717FF93
:101A40000546082D1DD145481030006820F440702F
:101A50004249103108600846006840F48070086010
:101A60000846006840F0010008601480FFF7FFFEA0
:101A700005463A481030006820F00100374910311F
:101A80000860284630BD30B502460C460825FFF7F1
:101A9000EEFE0546082D1BD130481030006820F4BA
:101AA00040702E49103108600846006808600846FA
:101AB000006840F0010008601470FFF7D8FE05468A
:101AC00026481030006820F00100244910310860D9
:101AD000284630BD21481430006800F0010028B1CC
:101AE00021481E49083108602048086070471B489B
:101AF0001430006840F00100184914310860704744
:101B000030B502460C460825FFF7B1FE0546082D04
:101B100010D13CB111481630008890430F4916315E
:101B2000088007E00D481630008891B208430B4941
:101B30001631088030BD30B502460C460825FFF747
:101B400096FE0546082D19D194B104481A30008834
:101B5000904302491A31088010E00000003C024026
:101B600023016745AB89EFCD3B2A19087F6E5D4C99
:101B70004148008891B208433F49088030BD10B504
:101B800002460824FFF773FE0446082C02D13A48A7
:101B9000401F027010BDF0B504460D46FF26082711
:101BA000FFF765FE0746082F0BD13348801F0078EA
:101BB00000F00F0645EA0600104320432E49891F16
:101BC0000870F0BD2C49891F097821F00C012A4AC0
:101BD000921F11701146097801431170704700B5CA
:101BE00008222548801F007840F002002249891F02
:101BF0000870FFF73CFE0246104600BD1E48801FDD
:101C00000068C0F3471070471B48001F00887047EA
:101C100019480088704700201749491F0978AA29E8
:101C200001D0012000E0002070471348801F007899
:101C300000F00C00704739B10F4A0A3A12680243AB
:101C40000D4B0A3B1A6006E00B4A0A3A12688243BF
:101C5000094B0A3B1A60704701460020064A0E3ABB
:101C600012680A400AB1012000E0002070470249D2
:101C70000E390860704700001A3C024030B943F248
:101C8000DB028100A1F1C0410A6005E043F2D2020B
:101C90008100A1F1C0410A606FF07042411C8900CF
:101CA000A1F1C0410A608100A1F1C041C1F8042145
:101CB0007047D0E901121143C26811430269114310
:101CC0004269114382691143C2691143026A114397
:101CD000426A1143826A1143C26A1143026B114383
:101CE00002689200A2F1C0421160816808290BD1FC
:101CF00001688900A1F1C041096841F04002016812
:101D00008900A1F1C0410A60416B0968426B5268C9
:101D100041EA0211426B926841EA0221426B9289C8
:101D200041EA0241426B128A41EA0251426B127D42
:101D300041EA0261426B926911430268521C9200AF
:101D4000A2F1C0421160C16AB1F5804F1BD1816B15
:101D50000968826B526841EA0211826B926841EA1B
:101D60000221826B128A41EA0251826B127D41EAA2
:101D70000261826B9269114302689200A2F1C04233
:101D8000C2F8041107E06FF0704201688900A1F108
:101D9000C041C1F804217047002101600221416067
:101DA00000218160C160016141618161C1610162A5
:101DB0004FF480514162490081620021C162016398
:101DC0000F21426B1160426B5160FF21426B9160A9
:101DD0000F21426BD160426B1161426B5161002156
:101DE000426B91610F21826B1160826B5160FF2108
:101DF000826B91600F21826BD160826B1161826B6B
:101E000051610021826B9161704751B18200A2F152
:101E1000C042126842F001038200A2F1C042136086
:101E200009E08200A2F1C0421268F94B1A40830017
:101E3000A3F1C0431A60704710280AD118214FF04F
:101E400020421166402151664FF0FC319166D16607
:101E500010E01821EF4A116040214FF02042C2F8F3
:101E600084104FF0FC31EB4A083211604FF02042F1
:101E7000C2F88C10704730B500210022002344685E
:101E800044F0080485682C43C5682C4305692C433D
:101E9000456944EA4524856944EA4531C4692468B2
:101EA000C5696D6844EA0524C5692D8944EA05447D
:101EB000C5692D7B44EA0562046A2468056A6D6879
:101EC00044EA0524056A2D8944EA0544056A2D7B08
:101ED00044EA05630468102C05D14FF020442166C4
:101EE000A266E36608E0CB4C21604FF02044C4F8C2
:101EF0008820C84C0C34236030BD102101600021C3
:101F000041608160C160016141618161FC21C26900
:101F10001160C2695160C2699160C269D160026A90
:101F20001160026A5160026A9160026AD160704772
:101F300099B1102808D14FF02042126E42F00402ED
:101F40004FF020431A661DE0B24A126842F00402C4
:101F50004FF02043C3F8802014E0102809D14FF03F
:101F60002042126EAA4BDB1E1A404FF020431A6625
:101F700008E0A84A1268A64BDB1E1A404FF0204327
:101F8000C3F88020704799B1102808D14FF0204243
:101F9000126E42F040024FF020431A661DE09D4A47
:101FA000126842F040024FF02043C3F8802014E052
:101FB000102809D14FF02042126E954B3F3B1A403A
:101FC0004FF020431A6608E0924A1268904B3F3B5C
:101FD0001A404FF02043C3F880207047014600208C
:101FE000102903D14FF02042506F02E0894A143289
:101FF00010687047182087492031086000200906C2
:10200000C1F8A4004FF0FC30824928310860091D56
:102010000860091D08607047016841F010014268BE
:1020200041EA4221826841EA42317A4A2032116013
:10203000C1680968C268526841EA0221C26812890F
:1020400041EA0241C268127B41EA0261714A2832C8
:102050001160016909680269526841EA0221026956
:10206000128941EA02410269127B41EA0261694A2E
:102070002C321160416909684269526841EA0221C3
:102080004269128941EA02414269127B41EA0261D6
:102090004FF02042C2F8B01070470021016041604B
:1020A0008160FC21C2681160C2685160C2689160A1
:1020B000C268D16002691160026951600269916071
:1020C0000269D16042691160426951604269916060
:1020D0004269D160704748B14E492031096841F0EA
:1020E00004014FF02042C2F8A01009E04949203114
:1020F0000968474AD21E11404FF02042C2F8A01092
:10210000704710B5F2B1102807D14FF020435B6E35
:102110000B434FF02044636632E0B0F5807F08D176
:102120003C4B1B1D1B680B434FF02044C4F884300C
:1021300026E0384B24331B680B434FF02044C4F88F
:10214000A4301DE0102807D14FF020435B6E8B4375
:102150004FF02044636613E0B0F5807F08D12D4B2B
:102160001B1D1B688B434FF02044C4F8843007E0EC
:10217000284B24331B688B434FF02044C4F8A43011
:1021800010BD10B5024600200023102A03D14FF0E5
:102190002044636E09E0B2F5807F03D11D4C241DFD
:1021A000236802E01B4C2434236803EA01040CB1C9
:1021B000012000E0002010BD102807D14FF0204280
:1021C000526E8A434FF020435A6613E0B0F5807F89
:1021D00008D1104A121D12688A434FF02043C3F8F9
:1021E000842007E00B4A243212688A434FF02043D0
:1021F000C3F8A420704770B50246002000230024D5
:102200000025102A08D14FF02046736E0DE0000023
:10221000FEFF0F00800000A0B2F5807F02D1184EB3
:10222000336802E0164E2036336803EA010403EAFD
:10223000D10514B10DB1012000E0002070BD1028BF
:1022400008D14FF02042526E22EAD1024FF02043D3
:102250005A6614E0B0F5807F08D1094A126822EA74
:10226000D1024FF02043C3F8842008E0044A203212
:10227000126822EAD1024FF02043C3F8A42070472D
:10228000840000A010B504468C48844208D1012186
:10229000084600F07DFB0021012000F079FB5EE0A4
:1022A0008748844208D10121022000F071FB0021FF
:1022B000022000F06DFB52E08248844208D10121E7
:1022C000042000F065FB0021042000F061FB46E0E3
:1022D0007D48844208D10121082000F059FB0021EB
:1022E000082000F055FB3AE07848844208D10121EB
:1022F000102000F04DFB0021102000F049FB2EE0E3
:102300007348844208D10121202000F041FB0021C4
:10231000202000F03DFB22E06E48844208D10121DC
:10232000402000F035FB0021402000F031FB16E09A
:102330006948844208D10121802000F029FB002156
:10234000802000F025FB0AE06448844207D1012187
:10235000801500F01DFB0021A01500F019FB10BD39
:10236000F0B50A4600210023002400BF3DE001250E
:1023700005FA01F3156805EA03049C4234D10568A7
:102380004F000326BE40B543056015794E00B540A9
:102390000668354305601579012D02D01579022DA7
:1023A00016D185684F000326BE40B5438560557938
:1023B0004E00B540866835438560456801268E40ED
:1023C000B5434560456896798E40B6B23543456061
:1023D000C5684F000326BE40B543C560D5794E00A1
:1023E000B540C6683543C560491C1029BFD3F0BD50
:1023F0004FF6FF7101600021017141718171C1715E
:10240000704708B54FF480320092009A0A43009258
:10241000009AC261C161009AC261C2690092C26938
:10242000009208BD0246002013690B400BB1012049
:1024300000E0002070470146086980B270470246FC
:10244000002053690B400BB1012000E000207047D1
:102450000146486980B270470183704741837047E5
:102460000AB1018300E041837047416170474269CE
:102470004A4042617047F0B5002300244D07ED0E3D
:1024800002FA05F3CE1000F1200555F826504E074C
:10249000F70E0F26BE40B543CF1000F1200646F8D8
:1024A0002750CE1000F1200555F8265045EA0304C8
:1024B000CE1000F1200545F82640F0BD0000024096
:1024C0000004024000080240000C024000100240DC
:1024D0000014024000180240001C0240002002408C
:1024E00010B50121080700F09BFA00214FF0805041
:1024F00000F096FA10BD324908627047014600208C
:10250000304A106820F0E0000843106070472C4902
:10251000086170472A49A031086070472849A431F2
:102520000860704701460020264A106820F44040A9
:1025300008431060704722494862704710B5024650
:102540000020204B186820F00300104318601E4B39
:102550001B6843F004031C4C2360012901D130BFE8
:1025600000E020BF184B1B6823F00403164C2360C7
:1025700010BD1448006840F0040012490860084685
:10258000006840F0020008600F48006840F0040056
:102590000D49086000BF00BF30BF704701460020F2
:1025A000084A52680A400AB1012000E00020704742
:1025B0000449096841EA8001024A1160704700003D
:1025C00000000E420070004010ED00E0F948006885
:1025D00040F00100F74908600020F6490831086022
:1025E000F4480068F4490840F2490860F348091DBE
:1025F0000860F348EF4984310860EE48006820F431
:102600008020EC4908600020EA490C3108607047DE
:102610000021E84A921C117011460870704710B5ED
:1026200001460022002300204A11012A02D1E14C78
:10263000236808E0022A03D1DE4C7034236802E0EC
:10264000DC4C7434236801F01F02012494401C40C8
:102650000CB1012000E0002010BD38B50020009032
:102660000024002500BF3120FFF7D9FF0546009860
:10267000401C00900098B0F5A06F01D0002DF2D062
:102680003120FFF7CCFF08B1012400E000242046F0
:1026900038BD01460020C74A106820F0F80040EA23
:1026A000C10010607047C749086070470021C14AE7
:1026B000703211701170012802D004280AD104E090
:1026C0000121BC4A7032117005E00521B94A70320F
:1026D000117000E000BF00BF7047BB490860704741
:1026E00070B5049C41EA82150126C6EB530645EA03
:1026F0000645054345EA0465AE4E361D356070BD9E
:10270000B04908667047820142EA0172A94B8433DE
:102710001A607047AB4988667047AA49C864704719
:1027200002460020A34B0833186820F0EC6042EA10
:10273000010318439F4B083318607047024600207E
:102740009C4B0833186820F0784042EA0103184394
:10275000984B08331860704701460020954A0832AC
:10276000106820F00300084310607047914808305B
:10277000006800F00C007047014600208D4A0832C6
:10278000106820F0F00008431060704701460020F8
:10279000884A0832106820F4E050084310607047FF
:1027A00001460020834A0832106820F4604040EA65
:1027B000C10010607047F0B50021002200240225FE
:1027C000002602237B4F08373F6807F00C0121B138
:1027D000042905D0082937D105E07C4F076036E091
:1027E0007B4F076033E0734F3F1D3F68C7F3805650
:1027F000704F3F1D3F6807F03F036EB1744FB7FB4A
:10280000F3F7DFF8B0C10CF1040CDCF800C0CCF336
:10281000881C07FB0CF40CE06C4FB7FBF3F7DFF8F8
:1028200094C10CF1040CDCF800C0CCF3881C07FB4D
:102830000CF4604F3F1D3F68C7F301477F1C7D00CC
:10284000B4FBF5F7076002E0604F076000BF00BF10
:10285000584F08373F6807F0F00109095D4F7A5C6F
:102860000768D7404760534F08373F6807F4E05187
:10287000890A584F7A5C4768D74087604D4F0837C0
:102880003F6807F46041490B524F7A5C4768D74074
:10289000C760F0BD002100F44072B2F5407F0AD15C
:1028A000444A0832116821F4F8114B4A024011439E
:1028B000404A083211603F4A70321268C0F30B037D
:1028C0001A433C4B70331A6070473F4944390860E3
:1028D00070473D494039086070474049086070477B
:1028E0003F490860704739B1324A303212680243BA
:1028F000304B30331A6006E02E4A30321268824381
:102900002C4B30331A60704739B12A4A343212687E
:102910000243284B34331A6006E0264A34321268E8
:102920008243244B34331A60704739B1214A38321C
:10293000126802431F4B38331A6006E01D4A3832D2
:10294000126882431B4B38331A60704739B1194AF9
:10295000403212680243174B40331A6006E0154AB2
:10296000403212688243134B40331A60704739B1CA
:10297000104A4432126802430E4B44331A6006E098
:102980000C4A4432126882430A4B44331A6070473F
:1029900039B1084A103212680243064B10331A60EC
:1029A00006E0044A103212688243024B10331A6068
:1029B0007047000000380240FFFFF6FA1030002494
:1029C0000030002000004742800E47420024F400FF
:1029D00000127A0002000020FFFCFF0F5C0147425A
:1029E000E011474229B15E4A126802435C4B1A600B
:1029F00004E05B4A12688243594B1A60704739B150
:102A0000574A121D12680243554B1B1D1A6006E0FF
:102A1000534A121D12688243514B1B1D1A607047A6
:102A200039B14F4A0C32126802434D4B0C331A60D5
:102A300006E04B4A0C3212688243494B0C331A6051
:102A4000704739B1464A103212680243444B103382
:102A50001A6006E0424A103212688243404B10333B
:102A60001A60704739B13E4A3C32126802433C4B0F
:102A70003C331A6006E03A4A3C3212688243384BD3
:102A80003C331A60704739B1354A4032126802430C
:102A9000334B40331A6006E0314A403212688243B9
:102AA0002F4B40331A60704739B12D4A44321268B7
:102AB00002432B4B44331A6006E0294A4432126821
:102AC0008243274B44331A60704739B1244A4C3251
:102AD00012680243224B4C331A6006E0204A4C3203
:102AE000126882431E4B4C331A60704739B11C4A3E
:102AF0005032126802431A4B50331A6006E0184AEB
:102B0000503212688243164B50331A60704739B105
:102B1000134AD21F12780243114BDB1F1A7006E0D2
:102B20000F4AD21F127882430D4BDB1F1A70704779
:102B30000B486030006840F08070094960310860DF
:102B4000704701460020064A083A12680A400AB156
:102B5000012000E0002070470149891F087070477C
:102B60001438024010B501218803FFF76AFF0021E5
:102B70004FF48040FFF765FF10BD1A4908607047A9
:102B800030B500228B071C0F0F2303FA04F2154BFC
:102B900008338C1053F824309343124C08348D10B2
:102BA00044F8253023468C1053F824308C07240F2A
:102BB00000FA04F423430B4C08348D1044F82530FC
:102BC00030BD094908607047084908607047002017
:102BD00004492031096801F4807109B1012000E045
:102BE0000020704700380140DC00274200042742E3
:102BF00010B50446FE48844208D101210846FFF77B
:102C000020FF00210120FFF71CFF9DE0B4F1804F61
:102C100008D101210846FFF703FF00210120FFF73B
:102C2000FFFE91E0F348844208D101210220FFF722
:102C3000F7FE00210220FFF7F3FE85E0EE48844214
:102C400008D101210420FFF7EBFE00210420FFF74B
:102C5000E7FE79E0E948844208D101210820FFF726
:102C6000DFFE00210820FFF7DBFE6DE0E448844230
:102C700008D101211020FFF7D3FE00211020FFF71B
:102C8000CFFE61E0DF48844208D101212020FFF718
:102C9000C7FE00212020FFF7C3FE55E0DA4884423A
:102CA00008D101210220FFF7CCFE00210220FFF70E
:102CB000C8FE49E0D548844209D101210804FFF744
:102CC000C0FE00214FF48030FFF7BBFE3CE0D0484F
:102CD000844209D101214804FFF7B3FE00214FF4DB
:102CE0000030FFF7AEFE2FE0CA48844209D101212F
:102CF0008804FFF7A6FE00214FF48020FFF7A1FE15
:102D000022E0C548844208D101214020FFF788FE17
:102D100000214020FFF784FE16E0C048844208D11D
:102D200001218020FFF77CFE00218020FFF778FE44
:102D30000AE0BB48844207D101218015FFF770FEED
:102D40000021A015FFF76CFE10BD00220288A84BE1
:102D500098420ED0AC4B98420BD0B0F1804F08D0C7
:102D6000A44B984205D0A44B984202D0A34B984262
:102D700004D14FF68F731A404B881A43A04B9842E8
:102D800007D0A04B984204D04FF6FF431A400B895E
:102D90001A4302804B68C3620B880385944B9842A8
:102DA00002D0994B984201D18B7A0386012383820A
:102DB00070474FF0FF314160002101800181418067
:102DC000817270470185828270470A46002101881E
:102DD0004FF68F731940114301807047416270476D
:102DE000C16270470146486A70470146088D7047C6
:102DF00021B1028842F00202028004E002884FF60C
:102E0000FD731A400280704721B1028842F004022B
:102E1000028004E002884FF6FB731A40028070477C
:102E200021B1028842F08002028004E002884FF65D
:102E30007F731A400280704702884FF6F7731A407A
:102E4000028002880A430280704702884FF6FF43DF
:102E50001A40028002880A430280704721B102882A
:102E600042F00102028004E002884FF6FE731A402D
:102E70000280704770B5002400220023058C4FF6B5
:102E8000FE7635400584028C8388048B4FF68F755F
:102E90002C40B51E2C400D882C43751E2A408D8970
:102EA0002A434D882A43524DA84202D0564DA8428B
:102EB00013D14FF6F7752A40CD892A434FF6FB759B
:102EC0002A408D882A434FF6FF652B404FF6FF5569
:102ED0002B400D8A2B434D8A2B43838004838D68BE
:102EE0004563028470BD70B5002400220023058C68
:102EF0004FF6EF7635400584028C8388048B48F6C4
:102F0000FF752C404FF6FF452C400D884FF6FF769D
:102F100006EA05252C434FF6DF752A408D8906EA1F
:102F200005152A434D8806EA05152A43304DA84267
:102F300002D0354DA8421DD14FF67F752A40CD896C
:102F40004FF6FF7606EA05152A434FF6BF752A406D
:102F50008D8806EA05152A434FF6FF352B404FF2C0
:102F6000FF752B400D8A06EA85052B434D8A06EA3C
:102F700085052B43838004838D688563028470BD3F
:102F800070B5002400220023058C4FF6FF66354003
:102F90000584028C8388848B4FF68F752C404FF606
:102FA000FC752C400D882C434FF6FF552A408D8927
:102FB0004FF6FF7606EA05252A434D8806EA0525E1
:102FC0002A430B4DA84202D00F4DA84238D14FF2F0
:102FD000FF752A40CD894FF6FF7606EA05252A437C
:102FE0004FF6FF352A408D8806EA05252A4319E069
:102FF000000001400004004000080040000C0040B8
:103000000010004000140040000401400040014056
:10301000004401400048014000180040001C0040EE
:10302000002000404EF6FF752B404DF6FF752B40FB
:103030000D8A06EA05152B434D8A06EA05152B4332
:10304000838084838D68C563028470BD70B500225F
:1030500000230024058C4EF6FF7635400584038C52
:103060008488828B48F6FF752A404FF6FF452A4038
:103070000D884FF6FF7606EA05252A434DF6FF75C3
:103080002B408D8906EA05352B434D8806EA053528
:103090002B43FE4DA84202D0FD4DA84208D14BF66D
:1030A000FF752C400D8A4FF6FF7606EA85152C43F6
:1030B000848082838D680564038470BD0021018053
:1030C0004180818081608181C1810182418270471C
:1030D00070B50346002000241846183001258D40A5
:1030E000ACB21D8CA5431D8409B108290AD100EB9F
:1030F000610005684FF68F76354005600568154319
:1031000005600FE00D1FC5F34E052844056848F61D
:10311000FF763540056005684FF6FF7606EA022621
:103120003543056070BD4163704781637047C1637B
:103130007047016470470A460021018B4FF68F7378
:1031400019401143018370470A460021018B48F65C
:10315000FF7319404FF6FF7303EA022319430183FB
:1031600070470A460021818B4FF68F731940114337
:10317000818370470A460021818B48F6FF7319400E
:103180004FF6FF7303EA02231943818370470A460F
:103190000021018B4FF6F7731940114301837047EB
:1031A0000A460021018B4FF2FF7319404FF6FF735F
:1031B00003EA02231943018370470A460021818BE9
:1031C0004FF6F77319401143818370470A46002177
:1031D000818B4FF2FF7319404FF6FF7303EA02230E
:1031E0001943818370470A460021018B4FF6FB7318
:1031F00019401143018370470A460021018B4FF6A5
:10320000FF3319404FF6FF7303EA0223194301838A
:1032100070470A460021818B4FF6FB73194011431A
:10322000818370470A460021818B4FF6FF33194096
:103230004FF6FF7303EA02231943818370470A465E
:103240000021018B4FF67F731940114301837047B2
:103250000A460021018BC1F30E014FF6FF7303EA0A
:1032600002231943018370470A460021818B4FF6E0
:103270007F7319401143818370470A460021818B77
:10328000C1F30E014FF6FF7303EA02231943818352
:1032900070470A460021018C4FF6FD731940114317
:1032A000018470470A460021018C4FF6F7731940DC
:1032B0001143018470470A460021018C4FF6DF73E9
:1032C00019404FF6FF7303EA021319430184704754
:1032D0000A460021018C4FF67F7319404FF6FF73A9
:1032E00003EA02131943018470470A460021018C46
:1032F0004FF6FF5319404FF6FF7303EA02231943B9
:10330000018470470A460021018C4FF2FF73194077
:103310004FF6FF7303EA02231943018470470A46FC
:103320000021018C4DF6FF7319404FF6FF7303EA3D
:10333000023319430184704730B5002301248C40C7
:10334000A3B2048C9C430484048C02FA01F5ADB250
:103350002C43048430BD30B5002304248C40A3B238
:10336000048C9C430484048C02FA01F5ADB22C4316
:10337000048430BD828B4FF2FF331A408283828BEC
:103380004FF6FF7303EA01231A4382837047F0B5B7
:103390000C461546002100220026078C4EF6FF7CC5
:1033A00007EA0C070784818B028C4FF6FF7707EA48
:1033B000043640F6FF4739404FF6FF7707EA052706
:1033C00039434FF6FF7707EA0337394345F6FF776E
:1033D0003A4046F480573A4381830284F0BD828BA1
:1033E0004FF6F3731A408283828B0A4382837047BD
:1033F000F0B50C461546002100220026078C4FF63A
:10340000FF6C07EA0C070784818B028C4FF6FF776D
:1034100007EA04264FF60C7739404FF6FF7707EAA4
:1034200003172F4339434FF2FF573A4046F4807752
:103430003A4381830284F0BD028B4FF2FF331A407E
:103440000283028B4FF6FF7303EA01231A430283C0
:103450007047F0B50C461546002100220026078C67
:103460004FF6EF7C07EA0C070784018B028C4FF6BE
:10347000FF7707EA041640F6FF4739404FF6FF771B
:1034800007EA033739434FF6FF7703E000000140B6
:103490000004014007EA052739434FF65F773A40B9
:1034A00046F010073A4301830284F0BD028B4FF6C9
:1034B000F3731A400283028B0A4302837047F0B50C
:1034C0000C46154600210022068C4FF6FE773E4042
:1034D0000684018B028C4FF60C7631407E1C06EA86
:1034E00003162E4331434FF6F576324044F0010681
:1034F000324301830284F0BD70B505460C46208836
:1035000050B92389A28861882846FFF7D8FFE1884F
:103510002846FFF7CBFF25E0208804280AD123891D
:10352000A28861882846FFF794FFE1882846FFF7C4
:1035300083FF17E0208808280AD12389A2886188A0
:103540002846FFF755FFE1882846FFF748FF09E0C6
:103550002389A28861882846FFF719FFE188284659
:10356000FFF708FF70BD00210180418001218180AB
:103570000021C180018170472DE9F04105460C46CC
:1035800000260127608808B9022600E00026A088EE
:10359000012801D1022700E001272088A0B9238952
:1035A000A28861882846FFF78AFFE1882846FFF74E
:1035B0007DFF23893A4631462846FFF74AFFE188D6
:1035C0002846FFF739FF13E02389A288618828463F
:1035D000FFF73FFFE1882846FFF72EFF23893A4691
:1035E00031462846FFF76BFFE1882846FFF75EFF6C
:1035F000BDE8F0810146486B70470146886B704713
:103600000146C86B70470146086C70470A884B88B2
:103610001A438B881A43CB881A430B891A434B8968
:103620001A438B891A43A0F8442070470021018077
:1036300041808180C180018141818181704731B1A8
:10364000B0F8442042F40042A0F8442005E0B0F86D
:103650004420C2F30E02A0F84420704721B18288B2
:1036600042F00402828004E082884FF6FB731A4025
:103670008280704721B1828842F00102828004E09A
:1036800082884FF6FE731A40828070471AB1838990
:103690000B43838102E083898B438381704781825E
:1036A000704702460020138A0B400BB1012000E056
:1036B00000207047CA430282704730B5024600209E
:1036C00000230024158A05EA0103958905EA01040F
:1036D00013B10CB1012000E0002030BDCA430282CA
:1036E000704741EA0203A0F8483070471AB1838955
:1036F0000B43838102E083898B438381704721B12F
:10370000828842F00802828004E082884FF6F773D4
:103710001A408280704701894FF6F872114001818A
:1037200070470A46002101894FF68F7319401143F3
:103730000181704730B504460D4629462046FFF703
:10374000F0FF208940F00700208130BD2DE9F041D5
:1037500004460D4616461F46602D06D13B46012203
:1037600031462046FFF775FE05E03B460122314613
:103770002046FFF7A4FE29462046FFF7D2FF208906
:1037800040F007002081BDE8F08130B50C460021F3
:103790000189C9B24FF6FF7505EA03251543254394
:1037A0002943018130BD2DE9F04105460E461746FB
:1037B0009846002443463A4631462846FFF7E5FF3F
:1037C0002C894FF6F870044044F007044FF68F70D0
:1037D000044044F070042C81BDE8F081F0B504464B
:1037E0000D4616461F463B46324629462046FFF701
:1037F000CCFF208940F480402081F0BD82884FF6C4
:103800008F731A40828082880A43828070470289BF
:103810004FF6F8731A40028102890A430281704709
:1038200002894FF67F731A40028102890A4302819E
:103830007047F0B50C4615461E46002100220023B5
:103840000189028B038C4FF6F877394021434FF6FC
:10385000FC473A4040F201173A434FF6DD773B40D0
:103860004FF6FF7707EA06172F433B430181028398
:103870000384F0BD21B1828842F08002828004E09E
:1038800082884FF67F731A4082807047A0F85010EC
:103890007047000010B50446FA48844208D101215F
:1038A0001020FFF7CEF800211020FFF7CAF857E0EC
:1038B000F548844209D101214804FFF7B1F80021FD
:1038C0004FF40030FFF7ACF84AE0F048844209D1E9
:1038D00001218804FFF7A4F800214FF48020FFF7AE
:1038E0009FF83DE0EA48844209D10121C804FFF76E
:1038F00097F800214FF40020FFF792F830E0E548F8
:10390000844209D101210805FFF78AF800214FF40C
:103910008010FFF785F823E0DF48844208D10121B9
:103920002020FFF78EF800212020FFF78AF817E00B
:10393000DA48844209D101218807FFF771F8002194
:103940004FF08040FFF76CF80AE0D548844207D179
:1039500001214005FFF764F800216005FFF760F8DA
:1039600010BD2DE9FF4705460E460024A14600BFC5
:10397000A046B08900B100BF2C8A24F44054F088DE
:1039800004432C82AC8941F20C608443B0883189B5
:103990000843718908430443AC81AC8A24F4407421
:1039A000B0890443AC826846FEF705FFB5488542FE
:1039B00002D0B948854202D1DDF80C9001E0DDF873
:1039C0000890A88900F4004040B109EBC90000EB61
:1039D000091031684900B0FBF1F707E009EBC900B5
:1039E00000EB091031688900B0FBF1F76420B7FBE8
:1039F000F0F004012009642101FB1078A88900F48B
:103A0000004040B1322000EBC800B0FBF1F000F004
:103A10000700044308E0322000EB08106421B0FBEB
:103A2000F1F000F00F0004432C81BDE8FF874FF454
:103A30001651016000218180C18001810C214181EA
:103A400000218181704710B502460020108A20F4C1
:103A500070600B884C8823438C882343CC88234395
:103A60001843108210BD0021018041808180C180F7
:103A7000704721B1828942F40052828104E0828938
:103A80004DF6FF731A4082817047028B02F47F4229
:103A90000283028B0A430283704721B1828942F478
:103AA0000042828103E08289C2F30E028281704764
:103AB00021B1828A42F40062828204E0828A4FF25B
:103AC000FF731A4082827047C1F3080282807047F8
:103AD00001468888C0F308007047028A4FF6F073E9
:103AE0001A400282028A0A430282704721B1828907
:103AF00042F00202828104E082894FF6FD731A408F
:103B00008281704782894FF2FF731A4082818289D5
:103B10000A4382817047028A4FF6DF731A4002829D
:103B2000028A0A430282704721B1028A42F480422B
:103B3000028204E0028A4BF6FF731A400282704749
:103B4000818941F001018181704721B1828A42F06F
:103B50000802828204E0828A4FF6F7731A4082825A
:103B60007047028BD2B20283028B42EA01220283A7
:103B7000704721B1828A42F02002828204E0828A68
:103B80004FF6DF731A408282704721B1828A42F079
:103B90001002828204E0828A4FF6EF731A4082821A
:103BA0007047828A4FF6FB731A408282828A0A43E8
:103BB0008282704721B1828A42F00202828204E04E
:103BC000828A4FF6FD731A40828270471AB1838A47
:103BD0000B43838202E0838A8B4383827047F0B574
:103BE0000346002400260025002040F66A17B9424B
:103BF00000D100BF1846C1F3421401F01F0601278F
:103C000007FA06F5012C01D10C3004E0022C01D199
:103C1000103000E014301AB107682F43076002E04B
:103C20000768AF430760F0BD02460020B1F5007F92
:103C300000D100BF13880B400BB1012000E0002031
:103C4000704701F40072B2F5007F00D100BFCA4393
:103C50000280704770B50246002400230025002032
:103C600040F66A16B14200D100BFC1F3421501F01F
:103C70001F03012606FA03F3012D13D19689334061
:103C800017E00000001001400044004000480040E0
:103C9000004C0040005000400014014000780040FB
:103CA000007C0040022D02D1168A334001E0968A42
:103CB00033400C12012606FA04F41688344013B17E
:103CC0000CB1012000E0002070BD10B500220023DF
:103CD00040F66A14A14200D100BF0A1201249440A8
:103CE000A3B2DC43048010BD01B581B00020009078
:103CF0000198009002E00098401E00900098002873
:103D0000F9D10CBD10B501214806FEF741FE002196
:103D10004FF00070FEF73CFE10BD01210160002154
:103D200041608160C16001614FF4804141610021C7
:103D30008161C1614FF400610162002141628162D1
:103D4000C162016341638163C16340210164202139
:103D5000416400218164C164016541658165C1657B
:103D600001668021416600218166C1660167416765
:103D70008167C1674FF08061C0F880104910C0F8BA
:103D800084100021C0F888104FF40011C0F88C1086
:103D90000021C0F89010C0F89410C0F89810C0F836
:103DA0009C10C0F8A0104FF00071C0F8A410491288
:103DB000C0F8A8108901C0F8AC104912C0F8B010C2
:103DC0000021C0F8B410C0F8B810704738B50346E9
:103DD0000C46002100200090F648016901F01C010A
:103DE0004FF4784000EAC32001434FF4F86000EA42
:103DF0008410014341F0020141F00101ED484261AC
:103E0000016100BF0098401C0090EA48016901F080
:103E1000010018B1E84D0098A842F3D3E64D009890
:103E2000A84201D1002038BD0120FCE718B50246A8
:103E30000B46002100200090DE48016901F01C01C2
:103E40004FF4784000EAC22001434FF4F86000EAE2
:103E50008310014321F0020141F00101D5480161C5
:103E600000BF0098401C0090D248016901F0010099
:103E700018B1D14C0098A042F3D3CF4C0098A04287
:103E800001D1002018BDCB48406980B2FAE72DE986
:103E9000F04186B004460F464FF000080025002090
:103EA0000590C64E0090C348056925F01C0501A881
:103EB000FEF781FC029EC248864205D3C148864275
:103EC00002D245F008051AE0BE48864205D3BB4839
:103ED000864202D245F00C0511E0B848864203D371
:103EE000B948864200D20AE0B748864205D3B748AF
:103EF000864202D245F0040501E045F01005AD48C8
:103F000005614FF4004200213846FFF75FFF18B902
:103F1000002006B0BDE8F081AD48FFF7E5FE20685F
:103F200000284ED000BF0098401C00900121384668
:103F3000FFF77CFF00F0040018B99F490098884201
:103F4000F1D39D490098884201D10020E1E700208B
:103F500000904FF4805200213846FFF737FF08B930
:103F60000020D6E700BF0098401C00900121384691
:103F7000FFF75CFF00F0200018B98F4900988842D5
:103F8000F1D38D490098884201D10020C1E700207B
:103F900000901F213846FFF749FF804608F01000C7
:103FA00018B14FF40060206201E00020206208F0A8
:103FB000040010B10020606116E04FF480406061A1
:103FC00012E0206AC0F3CF006169C1F34F0140EAFB
:103FD000010200213846FFF7F9FE08B9002098E7F2
:103FE0006FF07F40FFF780FE724805687948054012
:103FF000D4E901010843E168084321690843616984
:104000000843A1690843E1690843216A0843616ADA
:104010000843A16A0843E16A0843216B0843616BC6
:104020000843054363480560D4E90E010843216C49
:104030000843616C0843A16C0843E16C0843216D9F
:104040000843616D08435B494860A06D8860E06D7E
:10405000C860084685694FF641700540B4F86010A5
:10406000606E40EA0140A16E0843E16E0843216F93
:104070000843616F084305434E488561D4E91E013A
:1040800008434C49C8615448856954480540D4E9FF
:1040900020010843D4F888100843D4F88C10084352
:1040A000D4F890100843D4F894100843D4F898102A
:1040B0000843D4F89C100843D4F8A01008430543E3
:1040C00045488561D4E929010843D4F8AC10084378
:1040D000D4F8B0100843D4F8B41040EA8100D4F802
:1040E000B810084340F400003B49086008460068E7
:1040F00040F08000086001200BE730B13649896943
:1041000041F00201344A916105E03349896921F0A7
:104110000201314A9161704730B12F49896941F4F8
:1041200000512D4A916105E02B49896921F4005124
:10413000294A9161704730B11E49096841F0040174
:104140001C4A116005E01B49096821F00401194A65
:10415000116070472048806940F480101E498861D2
:10416000704730B11349096841F00801114A1160E4
:1041700005E01049096821F008010E4A11607047F6
:1041800000B50120FFF7EDFFFFF7E4FF0120FFF787
:10419000D2FF0120FFF7C0FF0120FFF7AEFF00BDF7
:1041A00000200449896901F0010109B1012000E002
:1041B0000020704700800240FFFF04000087930347
:1041C000002D3101C00E160200E1F50580D1F00886
:1041D000FFFF0F000F8120FF00900240233FDEF819
:1041E000FB48806940F00100F9498861704730B1AF
:1041F000F749896941F00101F54A916105E0F44907
:10420000896921F00101F24A91617047014600205D
:10421000EF4A926B0A400AB1012000E0002070478B
:1042200001460020EA4A926B0A400AB1012000E0F0
:104230000020704729B1E64AD26B8243E44BDA632F
:1042400004E0E34AD26B0243E14BDA63704710B5F6
:104250000B794C7943EA0422DD4B03441A64CB7892
:104260001B068C7843EA04434C7843EA04230C7819
:1042700043EA0402D64B03445A6410BD0246D44BB1
:104280001344186C030A4B710871D14B1344586CDA
:10429000030ECB70030C8B70030A4B7008707047D1
:1042A00041B1CB4A0244126C42F00042C84B034475
:1042B0001A6407E0C64A0244126C22F00042C44B62
:1042C00003441A647047082908D0C14A0244126C9A
:1042D00042F08042BE4B03441A6407E0BC4A0244E9
:1042E000126C22F08042BA4B03441A647047B84AF9
:1042F0000244126C22F07C52B54B03441A64B44A57
:104300000244126C0A43B24B03441A6470471EB550
:1043100000210022009201920292AE4A12681268B5
:10432000C2F30D42111F0091AB4A12689268012A34
:1043300005D9A94A126812689268019203E0A54A59
:10434000126892680192A34A12680292A14A126806
:10435000D268A04B1A609DE81C0080E81C001EBDBE
:104360000FB5002101910291039100916FE0009936
:10437000491C009197490968096801F40071A1B1CD
:1043800094490968096801F4807171B99149096813
:10439000914A1268116001218F4A126891608D491B
:1043A0000968C9688B4A116051E08A49096809683F
:1043B00001F4807191B987490968096801F40071B5
:1043C00061B9854909688968491C834A1268916006
:1043D00080490968C9687F4A116038E07D490968E9
:1043E0007D4A126851607C4909688968491C7A4A8B
:1043F00012689160784909688968012904D1754972
:104400000968754A12681160724909680968C1F340
:104410000D41091F0191704909688968012905D971
:104420006D49096809688968029103E0694909686A
:104430008968029167490968039166490968C968F2
:10444000644A116001A90EC980E80E000FBD6149E0
:104450000968096801F0004111B90099052986D35E
:1044600001A90EC980E80E0000BFEFE770B5024653
:1044700000230025002459480068006800F000402F
:1044800008B1002070BD5548016840F2F4508242E6
:1044900008DD92FBF0F392FBF0F600FB162010B162
:1044A0005B1C00E00123012B1AD14C480068006816
:1044B00040F04050494E36683060C2F30C00474E21
:1044C0003668706045480068006840F00040434E20
:1044D0003668306041480068C068404E306028E06F
:1044E000002422E03CB93D480068006840F080505C
:1044F0003A4E3668306040F2F4504860581EA04290
:104500000DD1086840F000500860581EC0EBC01084
:1045100000EB4000A2EB8005C5F30C004860086882
:1045200040F000400860C968641C9C42DAD32B4804
:1045300001602B48406900F0040020B10420284E9F
:1045400070610020706001209CE770B50C46134636
:104550000021204D286000BF18E000EB41124FF011
:104560000045156044F2F4555560C1EBC11505EBEB
:10457000450504EB850595605D1E8D4204D900EB71
:1045800041152035D56000E0D060491C9942E4D344
:10459000134DE860134D104E356070BD0D48006836
:1045A000006800F00040F8B90A480068006800F4AC
:1045B0008070C8B107480068074909684860064824
:1045C00000688068401C04490968886001207047C1
:1045D00000800240180000201C0000201400002071
:1045E00000900240D0020020F9480068006800F006
:1045F0000040F0B9F6480068006800F40070C0B1EF
:10460000F3480068006800F4807090B9F0480068D2
:10461000F049096808600020EE49096848600120F7
:10462000EC4909688860EA480068C068E8490860A1
:104630001DE0E7480068006800F00040B8B9E448B1
:104640000068006800F4007088B9E14800680068FC
:1046500000F4807058B9DF4800688068401CDD496C
:1046600009688860DA480068C068D9490860002095
:10467000ADE730B50C4613460021D74D286000BF8A
:1046800015E000EB41124FF480151560C1EBC11528
:1046900005EB450504EB850595605D1E8D4204D94B
:1046A00000EB41152035D56000E0D060491C9942EF
:1046B000E7D3CA4D286130BD0246002013680B4085
:1046C0000BB1012000E00020704701460868C0F3EC
:1046D000C3007047016841F000410160704721B19B
:1046E000026842F08042026003E0026822F08042E9
:1046F0000260704702680A430260704702680A431A
:104700000260704721B1026822F00062026003E09B
:10471000026842F000620260704721B1026842F410
:104720008012026003E0026822F480120260704787
:1047300021B1026822F08062026003E0026842F068
:1047400080620260704710B541EA02444368234327
:10475000436010BD0246002013680B400BB10120DE
:1047600000E0002070470246002013690B400BB1A7
:10477000012000E000207047016841F00041016025
:10478000704701460868C0F30D40704721B1426888
:1047900022F00042426003E0426842F00042426080
:1047A0007047024619B15068C0F30C4070479088BA
:1047B000C0F30C00FAE700B502460023106800F0D1
:1047C000004058B9106800F4004038B9106800F48F
:1047D000807018B11046FFF7D4FF0346184600BD9D
:1047E00030B17E49096841F080017C4A116005E0E2
:1047F0007A49096821F08001784A1160704777484A
:10480000006840F001007549086070470020734956
:10481000096801F0010109B1012000E000207047A2
:10482000014600206D4A52690A400AB1012000E0A9
:104830000020704769494861704729B1674AD269C9
:104840000243664BDA6104E0644AD2698243634BF7
:10485000DA61704701460020604A52690A400AB195
:10486000012000E0002070475C49486170475B48C8
:10487000406900F0010070475848406900F040006E
:10488000704700205549896901F4801109B1012060
:1048900000E00020704701460020504A126A0A409A
:1048A0000AB1012000E0002070474C48006AC0F3C4
:1048B0004A4070474948006A80B270474748806C58
:1048C00070474648C06C70474448006D7047434885
:1048D000406D7047002041494860704700203F49C3
:1048E000886070473D494862704770B506460D467E
:1048F000002400213046FFF799FA044615B144F42C
:10490000804402E04BF6FF7004402246002130460E
:10491000FFF75CFA08B1012070BD0020FCE73048C9
:10492000C06A40F000402E49C8627047014600202E
:1049300000BF04E051F82020294B9A62401C08284F
:10494000F8D3704730B12649C96A41F40071244A4E
:10495000D16205E02249C96A21F40071204AD1627E
:104960007047014600201E4AD26A0A400AB101205F
:1049700000E00020704730B11949C96A41F00401D4
:10498000174AD16205E01649C96A21F00401144AA8
:10499000D162704730B11249C96A41F00201104A30
:1049A000D16205E00E49C96A21F002010C4AD162C8
:1049B000704730B10A49C96A41F00101084AD16221
:1049C00005E00749C96A21F00101054AD162704733
:1049D000180000201C00002014000020009002405D
:1049E000008002404E48006840F030004D49C1F858
:1049F000000170474A48006820F020004949C1F88A
:104A000000010846D0F8000140F01000C1F8000194
:104A1000704738B14249096841F00801414AC2F87B
:104A2000001106E03E49096821F008013D4AC2F83C
:104A30000011704738B13A49096841F00401394A18
:104A4000C2F8001106E03649096821F00401354A30
:104A5000C2F80011704738B13149096821F00201EC
:104A6000304AC2F8001106E02D49096841F0020100
:104A70002C4AC2F8001170472948006840F0010034
:104A80002849C1F80001704700F0805292B120F02F
:104A9000805039B1224A0C3212688243214BC3F84C
:104AA0000C2117E01E4A0C32126802431D4BC3F85A
:104AB0000C210FE039B11A4A103212688243194BA7
:104AC000C3F8102106E0164A103212680243154B53
:104AD000C3F8102170470146002001F080526AB1EE
:104AE0000F4A121D12680A4032B10D4A0C32126888
:104AF0000A400AB901200EE000200CE0084A083202
:104B000012680A4032B1064A0C3212680A400AB9E9
:104B1000012000E000207047014602480858704715
:104B200000810240008002400CB5002001900090FE
:104B30007648006840F480307449086000BF7348CC
:104B4000006800F4003000900198401C019000982B
:104B500018B90198B0F5A06FF1D16C48006800F465
:104B6000003010B10120009001E00020009000987A
:104B7000012846D165484030006840F080506349C4
:104B8000403108606248006840F440406049086075
:104B90005E48083000685D490831086008460068D2
:104BA00040F4004008600846006840F4A0500860E7
:104BB0005848091F0860081F006840F08070091FEE
:104BC000086000BF5148006800F000700028F9D06C
:104BD00040F20570504908604C480830006820F0E9
:104BE00003004A49083108600846006840F00200A6
:104BF000086000BF45480830006800F00C00082835
:104C0000F8D10CBD10B54548006840F47000434928
:104C100008603E48006840F001003C490860002000
:104C20003A4908310860394800683D490840374929
:104C300008603C48091D0860081F006820F48020B7
:104C4000091F0860002031490C310860FFF76CFF34
:104C50004FF0006031498039086010BD70B5002008
:104C60000022022300240221284D08352D6805F07A
:104C70000C0020B1042806D0082834D107E02A4DC2
:104C80002A4E356033E02A4D284E35602FE01F4D07
:104C90002D1D2D68C5F380541C4D2D1D2D6805F06C
:104CA0003F0154B1224DB5FBF1F5184E361D366863
:104CB000C6F3881605FB06F209E01B4DB5FBF1F5BE
:104CC000124E361D3668C6F3881605FB06F20F4DE8
:104CD0002D1D2D68C5F301456D1C6B00B2FBF3F56E
:104CE000124E356003E0104D104E356000BF00BF1E
:104CF000064D08352D68C5F303150E4E705D0B4D3E
:104D00002D68C540094E356070BD00000038024076
:104D10000070004008544007003C024088ED00E06D
:104D2000FFFFF6FE103000240024F40024000020D1
:104D300000127A00280000200648804706480047F5
:104D4000FEE7FEE7FEE7FEE7FEE7FEE7FEE7FEE73B
:104D5000FEE7FEE7054C00088901000838B500248D
:104D60000025FDF733FC0120FDF79DFC00E0641CED
:104D70002120FDF754FC10B9B4F5A06FF7D1212024
:104D8000FDF74DFC08B1012500E00025012D2ED1D5
:104D900001210807FDF7DAFD4FF44040FDF7C2FBA3
:104DA0000020FDF7E9FC4FF4A050FDF7EFFC2803CD
:104DB000FDF7F6FC07200223A8220821009000201E
:104DC000FDF78EFC0120FDF79BFC00BF3920FDF7AD
:104DD00026FC0028FAD040F205704C4908600220F9
:104DE000FDF7BAFC00BFFDF7C1FC0828FBD138BDB8
:104DF00030B500BF4649B1F1807F01D301201DE0ED
:104E000021F07F40401E4FF0E022506150170022F9
:104E1000002807DA13071D0E3E4B00F00F04241F75
:104E20001D5503E013071C0E3B4B1C5400BF002014
:104E30004FF0E02290610720106100200028D9D1B6
:104E400030BD10B50246A82402FB04F34FF0E02465
:104E5000A16900BF4FF0E024A069884201D2081A7E
:104E600002E02B4C0C44201A9842F3D310BD2B4A7D
:104E7000116800BF294A12688A1A8242FAD3704721
:104E800026480068401E25490860704770B50546F1
:104E90000C4623484570847001202149C87008469B
:104EA000FBF703FB70BD2DE9FF4F8FB00C46154695
:104EB0001E461CAF97E8800F0F98FCF78BFA00BFD7
:104EC0000F98FCF7B0FB0028FAD1009401950296E8
:104ED0000397CDF81080CDF81C90CDF820A0CDF828
:104EE00024B021980A90002005904FF4806006902D
:104EF00000200B9003200C9000200D900E9069462E
:104F00000F98FCF709FB13B0BDE8F08F003C02409E
:104F10004090020018ED00E000E400E038000020BE
:104F20007000002000B58DB001210620FDF7DBFCEC
:104F300001214FF44020FDF709FD01211020FDF76C
:104F400016FD01212020FDF712FD01214805FDF786
:104F5000CAFC01218805FDF7C6FC4FF40030002192
:104F600002910391CDE9041040F227104021FE4B3D
:104F7000FE4ACDE900104905FD48FFF794FF4620A1
:104F8000FC49087002210320FFF780FF0122102155
:104F9000F748FCF788FB0021F548FCF718FB4FF4B5
:104FA00040304FF4807100220292CDE90321059038
:104FB00040F22710F04BCDE90020EC4AC904EC4840
:104FC0003038FFF770FF0121E9483038FCF7DEFA8E
:104FD000E7483038FCF7FDFAE84908804FF4003024
:104FE000002102910391CDE9041040F227104021E5
:104FF000E34BE44ACDE900104FF02061DC4818385B
:10500000FFF751FF4520DB49087001210846FFF7F3
:105010003DFF01221021D6481838FCF744FB00213F
:10502000D3481838FCF7D3FA4FF440304FF480716E
:1050300000220292CDE90321059040F22710D24BC5
:10504000CDE90020CF4A4FF02061C9489038FFF7E2
:105050002AFF0121C6489038FCF798FAC4489038D6
:10506000FCF7B7FAC94908804FF4003000210291DB
:105070000391CDE9041040F227104021C44BC54AEA
:10508000CDE900104905C448FFF70DFF0E20B949CE
:10509000087002210120FFF7F9FE01221021BE480D
:1050A000FCF701FB0021BC48FCF791FA4FF44030BB
:1050B0004FF4807100220292CDE90321059040F265
:1050C0002710B64BCDE90020B24AC904B2483038A7
:1050D000FFF7E9FE0121B0483038FCF757FAAE4837
:1050E0003038FCF776FAAE4908804FF400300021E2
:1050F00002910391CDE9041040F227104021A94B01
:10510000A94ACDE900104905A3481830FFF7CBFEA6
:105110000F209849087003210120FFF7B7FE0122F4
:1051200010219D481830FCF7BEFA00219A4818302B
:10513000FCF74DFA4FF440304FF480710022029298
:10514000CDE90321059040F22710984BCDE90020CE
:10515000954AC90490481838FFF7A5FE01218E48EA
:105160001838FCF713FA8C481838FCF732FA9049D3
:1051700008804FF44C600B9002208DF830008DF8C1
:10518000310000208DF8320001208DF833000BA98A
:105190008848FDF7E5F84FF440600B900BA986486E
:1051A000FDF7DEF84FF4C0600B900BA98348FDF7C4
:1051B000D7F8072209218148FDF75DF907220A2166
:1051C0007E48FDF758F907220A217B48FDF753F97D
:1051D00007220B217848FDF74EF908220621754871
:1051E000FDF749F9082207217248FDF744F9082222
:1051F0000A217048FDF73FF908220B216D48FDF7A1
:105200003AF94FF4614007900020ADF82000ADF866
:105210002200ADF82400ADF828000C20ADF82600DF
:1052200007A95848001FFEF79CFB01228021554822
:10523000001FFEF7CBFC012240215248001FFEF761
:10524000C5FC01214F48001FFEF713FC40214D48CB
:10525000001FFEF7F6FC07A94E48001FFEF781FB72
:10526000012280214B48001FFEF7B0FC01224021A3
:105270004848001FFEF7AAFC01214648001FFEF720
:10528000F8FB40214348001FFEF7DBFC07A9464816
:10529000001FFEF766FB012280214348001FFEF736
:1052A00095FC012240214048001FFEF78FFC0121A0
:1052B0003D48001FFEF7DDFB40213B48001FFEF785
:1052C000C0FC07A92948001FFEF74BFB01228021E3
:1052D0002648001FFEF77AFC012240212348001FC8
:1052E000FEF774FC01212148001FFEF7C2FB40219C
:1052F0001E48001FFEF7A5FC0DB000BD30B50246EC
:10530000002014E0135C184C2D4D2D8863552C4B58
:105310001B885B1C2A4C238023461B8840F22714E1
:10532000A34202D10023264C2380431C98B288421A
:10533000E8DB30BD10B500BF0D48FCF774F900285C
:10534000FAD109481F490988084409490C31086005
:105350001C4800881A49098888423EDA18480088A3
:10536000184A1288801A2FE02604002004100140F9
:10537000B8640240700000204D0500208400002029
:1053800074060020041401409B0700208A000020BE
:10539000C20800200448004058600240E90900208B
:1053A00090000020100B0020044C0040370C00201F
:1053B0009600002000080240000402400000024065
:1053C000820000208000002081B2FD48FCF7FFF839
:1053D000FC480088FC4908800BE0FB48008840F24C
:1053E0002712101A81B2F648FCF7F1F80020F649AE
:1053F00008804FF02051F248FCF741F90121F048B4
:10540000FCF7C4F810BD10B50021ED48FCF7BEF85C
:1054100000BFEB48FCF707F90028FAD1EA480088FA
:10542000E8490988884201D0FFF784FFE749E4484A
:10543000FCF780F910BD10B5E1483038FCF7C9F829
:10544000E3490988884201D1002010BD0120FCE712
:10545000DF49098840F22712511ADE4A505CDC49C4
:105460000988491EDA4A11801146098811B940F2AB
:10547000271111807047014600BF704770B5044680
:105480000D4600BF4021D448FEF7CEFB0028F9D0DE
:10549000E1B2D148FEF718FB204670BD30B5024698
:1054A000002014E0135CCD4CCD4D2D886355CC4BC2
:1054B0001B885B1CCA4C238023461B8840F22714A0
:1054C000A34202D10023C64C2380431C98B28842D9
:1054D000E8DB30BD10B500BFC248FCF7A4F80028D7
:1054E000FAD1BE48C04909880844BE4958394866BF
:1054F000BD480088BA49098888420DDAB848008852
:10550000B94A1288801A81B2B648FCF760F8B448EC
:105510000088B54908800BE0B348008840F22712A4
:10552000101A81B2AF48FCF752F80020AE4908804B
:105530004FF0C051AB48FCF7A2F80121A948FCF795
:1055400025F810BD10B50021A648FCF71FF800BFD4
:10555000A448FCF768F80028FAD1A3480088A049BD
:105560000988884201D0FFF7B5FFA0499D48FCF7A4
:10557000E1F810BD10B59B483038FCF72AF89C497B
:105580000988884201D1002010BD0120FCE798491C
:10559000098840F22712511A964A505C94490988AA
:1055A000491E934A11801146098811B940F227110A
:1055B0001180704730B50246002014E0135C8E4C19
:1055C0008E4D2D8863558D4B1B885B1C8B4C238027
:1055D00023461B8840F22714A34202D10023874CA4
:1055E0002380431C98B28842E8DB30BD10B500BF71
:1055F00073481838FCF717F80028F9D17E4880491D
:10560000098808446E490C3908607D4800887B4948
:10561000098888420EDA79480088794A1288801A07
:1056200081B267481838FBF7D2FF74480088744984
:1056300008800CE07248008840F22712101A81B2EC
:105640005F481838FBF7C3FF00206D4908806D499B
:105650005B481838FCF713F8012159481838FBF754
:1056600095FF10BD10B5002155481838FBF78EFF87
:1056700000BF53481838FBF7D6FF0028F9D160481F
:1056800000885E490988884201D0FFF7AFFF5E4974
:105690004B481838FCF74EF810BD10B54848903804
:1056A000FBF797FF59490988884201D1002010BDB6
:1056B0000120FCE75549098840F22712511A544A43
:1056C000505C52490988491E504A11801146098888
:1056D00011B940F227111180704730B50246002001
:1056E00014E0135C4B4C4C4D2D8863554A4B1B8882
:1056F0005B1C494C238023461B8840F22714A3429D
:1057000002D10023444C2380431C98B28842E8DB3A
:1057100030BD10B500BF33481830FBF784FF0028B8
:10572000F9D13C483D49098808442E495839C86791
:105730003A4800883849098888420EDA3648008895
:10574000364A1288801A81B226481830FBF73FFF8C
:1057500031480088314908800CE03048008840F228
:105760002712101A81B21F481830FBF730FF0020B3
:105770002A4908802A491B481830FBF780FF01217D
:1057800018481830FBF702FF10BD10B5002115486E
:105790001830FBF7FBFE00BF12481830FBF743FF41
:1057A0000028F9D11D4800881B490988884201D08A
:1057B000FFF7AFFF1B490B481830FBF7BBFF10BDCD
:1057C000B864024082000020800000200080002891
:1057D000840000204D05002000480040C208002041
:1057E0008E000020586002408C00002000800018CD
:1057F00090000020E90900207406002088000020A5
:105800008600002000002020008020208A00002048
:105810009B070020100B0020940000209200002025
:10582000200000202080002010B50F48FBF7D1FE9B
:105830000E490988884201D1002010BD0120FCE7F3
:105840000A49098840F22712511A094A505C07494F
:105850000988491E054A11801146098811B940F28C
:105860002711118070470000406002409600002020
:10587000370C0020F0B5034600201EE00E5CF71741
:1058800006EB17773F1107F130050E5CF71706EBB3
:1058900017773F11A6EB07173037FCB2392D01DD22
:1058A000EE1DF5B2392C01DDE61DF4B203F81050FF
:1058B000012606EB40069C55401C9042DEDB00268C
:1058C00003F81260F0BD2DE9F8430746884600242E
:1058D000002000904546B946384616F097FD06462A
:1058E0000EB9BDE8F88324E099F800008DF80000B7
:1058F000204604EBD0714910A4EB410141B91022BC
:105900000021684616F0ADFD0007000E28700AE081
:1059100010220021684616F0A4FD00F00F0029783F
:10592000084328706D1C09F10109761E641C06B934
:1059300000E0D9E700BF00BFD3E702460020704770
:1059400030B502460B4600201446002105E0655C98
:105950000DB1012003E04D1CA9B29942F7DB00BF55
:1059600030BD10B50246087888B10CE0002305E090
:10597000C818407808B9104610BD5B1CD05CCC5CE0
:10598000A042F5D0521C10780028EFD1F4E7104661
:10599000F2E72DE9F04105460E4600240DE016F031
:1059A000FFFC07460F4816F031FDB7FBF0F100FB96
:1059B00011700C49085C3055641CAC42EFDBBDE84B
:1059C000F08170B505460E46002404E0295D06A06E
:1059D00017F0C2F8641CB442F8DB05A017F0BCF85D
:1059E00070BD000039D00108307825782000000013
:1059F0000D0A000000B593B001218805FCF773FF84
:105A000001210220FCF76FFF01210802FCF7AFFF24
:105A10004FF480300112C2104311CDE90232CDE9BA
:105A2000041014200021624B624ACDE90010624844
:105A3000FFF739FA01216048FBF7A8FD0320119018
:105A40008DF8480000208DF84B0011A95B48FCF749
:105A500087FCFAF795FD00200D9010900F904FF401
:105A600040300E900DA8FAF7C5FD002007900120E8
:105A70008DF8200000208DF8210009900B90022065
:105A80008DF8300007A94B484C38FAF784FD0723FE
:105A90000122082147484C38FAF703FE0723022267
:105AA000092144484C38FAF7FCFD012141484C38A3
:105AB000FAF7A2FE01213F484C38FAF792FE012185
:105AC0003C484C38FAF7ADFD13B000BD70B52DED74
:105AD0000C8B06460025002400BF07E006EB4500BE
