:020000040800F2
:10000000B0060020D50000089B0C0008610C000819
:1000100000000000000000000000000000000000E0
:10002000000000000000000000000000851600082D
:100030000000000000000000850D000861170008A6
:100040000501000805010008050100080501000878
:100050000501000805010008050100080501000868
:100060000501000805010008050100080501000858
:100070000501000805010008050100080501000848
:100080000501000800000000000000000501000854
:100090000000000005010008050100080501000836
:1000A00000000000050100080501000839180008DB
:1000B0000501000800000000B9090008050100085A
:1000C0000348854600F010F9004800470D2200085B
:1000D000B00600200C4880F308880C480168090E1F
:1000E0000B4A914205D10B480B4901600B480C4962
:1000F00001600C4880470C480047FEE7FEE7FEE73A
:10010000FEE7FEE7FEE70000B00600200400000066
:100110001F00000018100240010000000000014014
:1001200000000000BD170008C100000830B50B46F4
:10013000014600202022012409E00D46D5409D42C1
:1001400005D31D469540491B254695404019154647
:10015000521E002DF1DC30BD70B50024254600286C
:1001600001DA01244042002901DA01254942FFF762
:10017000DDFFAC4200D04042002C00D0494270BDAF
:1001800003460B439B0703D009E008C9121F08C0B0
:10019000042AFAD203E00B780370401C491C521E5B
:1001A000F9D27047D2B201E00270401C491EFBD266
:1001B00070470022F6E710B513460A460446194672
:1001C000FFF7F0FF204610BD034603220870000A27
:1001D000491C521EFAD51846704770B502464A406F
:1001E000D50F40004A00ED0740085208002814D0FF
:1001F000002A12D0C40DD30D41020120C0055202C5
:10020000490A520AE41A091812187D34914201D39E
:10021000641C00E04900002C01DA002070BD0023BE
:10022000914201D3891A0343400849000028F7D1BD
:1002300000290AD0914202D10121C90705E091426B
:1002400001D2012101E00121C943E005C018401994
:1002500000F008F870BD10B500229623114600F09A
:1002600009F810BD002904DA401C490001D14008FA
:100270004000704770B40024050C05D11024000420
:1002800002D1002921D01124050E01D10002083429
:10029000050F01D10001241D850F01D18000A41C90
:1002A000002801DB4000641C002908D020252E1BFB
:1002B0000D46F540A14000D0012129430843010625
:1002C0001B1B000ADB1D02D5002070BC7047DB053C
:1002D000181880180029F8DA401C4900F5D170BCC4
:1002E0004008400070470000064C0125064E05E01E
:1002F000E36807CC2B430C3C98471034B442F7D347
:10030000FFF7E2FE44260008642600080749084A71
:100310001288885C06490988491C054A11801146E3
:100320000988FA2901D10021118070472501002098
:10033000280000200448008804490988884201D127
:10034000002070470120FCE7260000202800002044
:10035000FEB507460C462046E117490F0918490526
:10036000090E0091002001900DE00821384600F0B0
:1003700059FB0546002D01D02846FEBD08370198DF
:10038000401CC0B20190009901988842EDDB2046E4
:10039000E117490F0918C910C900611A0BD0264688
:1003A000E017400F8019C010C000201AC1B23846B3
:1003B00000F038FB05462846DFE710B5044601216A
:1003C000480600F001FD00210120400600F0FCFC81
:1003D00010BD000010B50021837A01229A40114619
:1003E000394A126801231A43374B1A601A46D269F8
:1003F0008A43DA61027B002A1AD11A46D2688A43FC
:10040000DA60C288120443881A43304B0924A401DD
:100410001B19847AE4001A518288120403881A4353
:100420002A4B0924A4011B19847AE4001B195A6081
:10043000027B012A1BD1244AD2680A43224BDA608C
:100440000288120443881A43204B0924A4011B1973
:10045000847AE4001A5182881204C3881A431B4B21
:100460000924A4011B19847AE4001B195A60C27A7A
:10047000002A05D1144A52688A43134B5A6004E09B
:10048000114A52680A43104B5A600289002A04D16B
:100490000D4A52698A430C4B5A610289012A04D1E0
:1004A000094A52690A43084B5A61427B012A04D126
:1004B000054AD2690A43044BDA61034A12685208BA
:1004C0005200014B1A6010BD0066004000640040FD
:1004D000002A03D043690B43436102E043698B4325
:1004E0004361704730B5024600200023146802259E
:1004F000AC431460146801252C43146000E05B1CBD
:100500005468E407E40F002C02D13C4CA342F6D11E
:100510005468E407E40F002C01D100206DE08C79D1
:10052000012C04D1146880252C43146003E0146866
:100530008025AC431460CC79012C04D1146840258B
:100540002C43146003E014684025AC4314600C7A1B
:10055000012C04D1146820252C43146003E0146896
:100560002025AC4314604C7A012C04D1146810256A
:100570002C43146003E014681025AC4314608C7A9B
:10058000012C04D1146808252C43146003E014687E
:100590000825AC431460CC7A012C04D114680425DE
:1005A0002C43146003E014680425AC4314608C7879
:1005B000A407CD782D062C430D792D042C434D79BD
:1005C0002D052C430D886D1E2C43D46114686408DE
:1005D00064001460002300E05B1C5468E407E40F2F
:1005E000002C02D0054CA342F6D15468E407E40F76
:1005F000002C01D0002000E0012030BDFFFFFF00F3
:1006000010B58AB004460121480400F0BDFB012169
:10061000480600F0C9FB022108A801710021817180
:100620000320C0020890012108A8C1710321417173
:1006300008A90920C00600F085FA04220B21092030
:10064000C00600F0C7FA04220C210920C00600F001
:10065000C1FA1D48FFF7B1FE002168468176C176D8
:10066000017741778177C1778475C175072101765C
:10067000022141760821818205A91348FFF732FF44
:100680000021684681730121C1730174A02181801A
:100690000021C1800181418181810121417401A832
:1006A000FFF798FE012202210748FFF711FF1E21E4
:1006B00068460170022141700121817000F0EEFA5C
:1006C00000200AB010BD00000064004010B50C010D
:1006D0000346FF33B1331B59042423401372137AAA
:1006E000002B07D10C010346FF33B1331B595B0DBF
:1006F000136006E00C010346FF33B1331B59DB08DE
:1007000053600C010346FF33B1331B5902242340CD
:1007100053720C010346FF33B133E3185B681B07C8
:100720001B0F93720C010346FF33B133E3185B6870
:100730001B041B0ED3740C010346FF33B133E318C3
:100740009B68D3720C010346FF33B133E3189B68F7
:100750001B041C0E14730C010346FF33B133E31862
:100760009B681B021C0E54730C010346FF33B1330C
:10077000E3189B681B0E93730C010346FF33B133E0
:10078000E318DB68D3730C010346FF33B133E3187E
:10079000DB681B041C0E14740C010346FF33B133D9
:1007A000E318DB681B021C0E54740C010346FF3374
:1007B000B133E318DB681B0E9374002904D1C368BE
:1007C00020242343C36003E00369202423430361FF
:1007D00010BD30B50246002093680124A4062340D2
:1007E000A34200D110E093680124E4062340A34211
:1007F00001D1012008E09368012424072340A3428B
:1008000001D1022000E0042004287BD0040113461B
:10081000FF3381331B59DC07E40F05011346FF3317
:1008200081335C510B7A002B0FD10B885B054C7A1E
:10083000234305011446FF348134645923430501E1
:100840001446FF348134635110E04B68DB000C7AAE
:1008500023434C7A234305011446FF348134645901
:10086000234305011446FF34813463518B7A1B07FF
:100870001B0F8B7204011346FF338133E3185B684F
:100880001C09240105011346FF338133EB185C601A
:1008900004011346FF338133E3185B688C7A2343EA
:1008A00005011446FF3481342C1963608B7B1B06D1
:1008B0004C7B240423430C7B24022343CC7A234324
:1008C00005011446FF3481342C19A3608B7C1B0670
:1008D0004C7C240423430C7C24022343CC7B234301
:1008E00005011446FF3481342C19E36004011346DA
:1008F000FF3381331B590124234305011446FF3480
:100900008134635130BD000010B502460023002938
:1009100004D0012907D002290FD109E09068204CAA
:10092000204003460BE090681E4C2040034606E042
:1009300090681D4C2040034601E0002300BF00BF2B
:100940001A4C181BA3421BD008DC002B14D01848EB
:100950001818002812D002281CD115E0FF38FF38E3
:100960000238002812D0134C001900280AD00124A4
:100970006404001B0ED10BE002230DE000230BE00A
:10098000002309E0002307E0012305E0012303E041
:10099000012301E0002300BF00BFD8B210BD00005A
:1009A0000300000400030008000003100001000819
:1009B000FFFFFFFB0003FFF710B586B001AA00217F
:1009C0001348FFF783FE002413E003A80330005D03
:1009D0001049114A128888540F480088401C0E495B
:1009E000088008460088FA2801D100200880601C91
:1009F000C4B26846807BA042E7DC80210920C006A3
:100A000000F00AF9054800680549086006B010BD05
:100A10000064004025010020260000203000002056
:100A200038000020F3B585B00F4600245020009018
:100A3000002001900021684601724172877200BF58
:100A400006E00598015D02A803300155601C84B2E0
:100A5000BC42F6DB002469462448FFF7BAFE06468E
:100A600040210920C00600F0D7F82148006821493C
:100A7000086006E0601C84B269461C48FFF7A9FEC6
:100A80000646042E02D11C488442F3DB042E02D118
:100A9000012007B0F0BD002431461448FFF734FFB1
:100AA000054606E0601C84B231461048FFF72CFF73
:100AB0000546012D02D010488442F3DB0E488442E3
:100AC00011DB022D04D131460CA000F0C7FF0AE073
:100AD000002D08D10020FFF793FD314610A000F053
:100AE000BDFF0120D5E70020D3E7000000640040EF
:100AF0003000002034000020FF4F000063616E20B2
:100B00006D626F785B25645D2043414E5F5478537E
:100B100074617475735F50656E64696E670A000076
:100B200063616E206D626F785B25645D2043414E8A
:100B30005F54785374617475735F4661696C656462
:100B40000A000000F0B50A4600210023002400BF7F
:100B50003DE001258D402B4615681D402C469C42EA
:100B600034D11579012D02D01579022D16D1856861
:100B70004F000326BE40B543856055794E00B54011
:100B8000866835438560858801268E40B54385801B
:100B9000858896798E40B6B23543858005684F00CA
:100BA0000326BE40B543056015794E00B540066882
:100BB00035430560C5684F000326BE40B543C56098
:100BC000D5794E00B540C6683543C560491C10292B
:100BD000BFD3F0BDF0B5002300244D07EE0E15463F
:100BE000B5402B46CD10AE0005462035AD594E0719
:100BF000F70E0F26BE40B543CE10B600074620378D
:100C0000BD51CD10AE003D46AD591D432C46CD1013
:100C1000AD003E467451F0BD01857047816170475B
:100C200030B502460B460C48002112E0555C684086
:100C300000240AE0C507ED0F002D03D04008074D42
:100C4000684000E04008651CECB2082CF2DB4D1C4B
:100C5000E9B29942EADB30BDFFFF000001A00000CD
:100C600000BFFEE71CB50121480400F08DF8F0201C
:100C700000900121684601710021817103214171B9
:100C80000121C17169460920C006FFF75BFFF02111
:100C90000920C006FFF7C2FF1CBD70470021827803
:100CA000002A27D0184A03231B02D21803789B106E
:100CB0009B00D15802789207D30EFF229A400B4630
:100CC0009343194642789207120E03789B07DB0E76
:100CD0009A4011430C4A03231B02D21803789B103D
:100CE0009B00D1500278D306DB0E01229A40064BBE
:100CF0001A6007E00278D306DB0E01229A40024B0D
:100D000080331A607047000000E100E010B5002851
:100D100019DA1A4A03071B0F083B9B089B00D2589D
:100D20008307DC0EFF23A3409A438B071B0E840727
:100D3000E40EA3401A43114B0407240F083CA408F7
:100D4000A4001A5118E00E4A03231B02D21883088C
:100D50009B00D2588307DC0EFF23A3409A438B07E6
:100D60001B0E8407E40EA3401A43054B0324240200
:100D70001B198408A4001A5110BD00001CED00E0EE
:100D800000E100E070470000002905D0054A5269E3
:100D90000243044B5A6104E0024A52698243014B08
:100DA0005A61704700100240002905D0054AD269F7
:100DB0000243044BDA6104E0024AD2698243014BE8
:100DC000DA61704700100240002905D0054A126917
:100DD0000243044B1A6104E0024A12698243014B48
:100DE0001A61704700100240002905D0054A926937
:100DF0000243044B9A6104E0024A92698243014B28
:100E00009A61704700100240FEB504460025002696
:100E100000200290019000900027864840680C2135
:100E200008400546002D06D0042D07D0082D08D017
:100E30000C2D2CD128E0804820602BE07E482060DB
:100E400028E07C4840680F2189040840064679481C
:100E500040680321C90308400290B00C861C029828
:100E6000002803D17548374647430BE07148C06AF4
:100E70000007000F401C01906F480199FFF756F9D9
:100E800070430746276005E06D48206002E06A482D
:100E9000206000BF00BF67484068F0210840054659
:100EA0002D096848405D009020680099C840606046
:100EB0006048406807210902084005462D0A61483C
:100EC000405D009061680098C140A1605948006B86
:100ED000FF2101310840884202D05B48E0600DE00C
:100EE00054484068012189030840884203D0A06823
:100EF0004008E06002E0A0688008E0604D48006BB8
:100F000040210840402802D05048206102E00120E2
:100F1000C00320614748006B10210840102802D010
:100F20004548606101E0206860614248006B8007CD
:100F3000800F002802D1A068A06119E03D48006B35
:100F40008007800F012802D12068A06110E0394895
:100F5000006B8007800F022802D18003A06107E0A8
:100F60003448006B8007800F032801D13248A0610C
:100F70003048006B032109040840002802D1A06812
:100F8000E06120E02B48006B0321090408400121A7
:100F90000904884202D12068E06114E02548006B12
:100FA00003210904084001214904884202D180102C
:100FB000E06108E01F48006B0321090408408842F3
:100FC00001D11D48E0611B48006B032189040840E2
:100FD000002802D1A068206220E01648006B03219F
:100FE0008904084001218904884202D120682062D6
:100FF00014E01048006B0321890408400121C90452
:10100000884202D10011206208E00A48006B0321E7
:1010100089040840884201D1074820620548006BD6
:1010200080210840802802D00548606200E06762A5
:10103000FEBD00000010024000127A0000093D00D1
:10104000006CDC0215000020809FD500128000009B
:1010500010B58AB0044601214804FFF795FE01212E
:101060008803FFF7C1FE01220921C806FFF7B2FD80
:1010700001220A210920C006FFF7ACFD032040022F
:101080000890022108A8017103214171002181719A
:101090000121C17108A90920C006FFF753FDFF20F7
:1010A00001300890012108A801710321417100213C
:1010B00081710121C17108A90920C006FFF742FD15
:1010C000029401200003039000200490012080027C
:1010D0000590002007900C20069002A9104800F00F
:1010E00037FC01210E4800F0D5FB40210C4800F0F0
:1010F000CFFB01220B490A4800F009FC1B2168467E
:101100000171022141710121817101A8FFF7C6FD22
:10111000FF2101310920C006FFF77EFD0AB010BD96
:101120000038014005010500F8B505460E460027C8
:1011300031462846FFF73DF81FE0124800780028A6
:1011400016D000200F490870002404E00E48005D0E
:101150002855601CC4B2B442F8DB002404E000202F
:1011600009490855601CC4B2142CF8D30120F8BDFD
:10117000052000F067FE781CC7B2282FDDDD0020B7
:10118000F5E700002A0000201F02002070B5054688
:101190000E46FF2101310920C006FFF73FFD012067
:1011A00000F05CFE40210F4800F072FB00240CE0D0
:1011B000295D0C4800F04DFC00BF4021094800F0BB
:1011C00075FB0028F9D0601CC4B2B442F0DB0120EA
:1011D00000F044FEFF2101310920C006FFF71CFD8D
:1011E000012070BD00380140F8B506460F4615468F
:1011F0001C4639463046FFF7C9FF002800D1F8BD2C
:101200000748807B207021782846FFF78DFF002853
:1012100000D1F4E7322000F015FE0120EFE70000D6
:10122000A0020020F8B506460F4600250024002045
:1012300000902146641C2548006846540722214638
:10124000641C22480068425400222146641C1F4846
:101250000068425403211D480068FFF7E1FC85B295
:101260002146641C19480068455429122246641C12
:1012700016480068815406201549096808706B46B5
:1012800014482146026811480068FFF7ADFF0028A6
:1012900000D1F8BD04210F480068FFF7C1FC85B2FA
:1012A000E8B20C490968097988420CD12804000E7B
:1012B000084909684979884205D106480068C0781C
:1012C00038700120E5E70020E3E700004C00002033
:1012D0005400002050000020F8B506460F460025B7
:1012E0000024002000902146641C274800684654D2
:1012F00005222146641C24480068425400222146ED
:10130000641C21480068425403211F480068FFF70D
:1013100087FC85B22146641C1B480068455429128D
:101320002246641C18480068815407201749096840
:1013300008706B4616482146026813480068FFF79C
:1013400053FF002800D1F8BD052111480068FFF7C0
:1013500067FC85B2E8B20E4909684979884211D123
:101360002804000E0A490968897988420AD1084888
:1013700000680079000206490968C9780843388086
:101380000120E0E70020DEE74C00002054000020B0
:1013900050000020F8B506460F4600250024002026
:1013A00000902146641C27480068465420222146AC
:1013B000641C24480068425400222146641C2148D1
:1013C0000068425403211F480068FFF729FC85B2DA
:1013D0002146641C1B480068455429122246641C9F
:1013E00018480068815407201749096808706B463F
:1013F00016482146026813480068FFF7F5FE0028EA
:1014000000D1F8BD052111480068FFF709FC85B23D
:10141000E8B20E4909684979884211D12804000EC2
:101420000A490968897988420AD108480068007920
:10143000000206490968C978084338800120E0E7BE
:101440000020DEE74C000020540000205000002067
:10145000F8B506460F4600250024002000902146DE
:10146000641C2A480068465401222146641C27480F
:101470000068425400222146641C244800684254FB
:10148000032122480068FFF7CBFB85B22146641C8C
:101490001E480068455429122246641C1B480068F7
:1014A000815407201A49096808706B46194821467B
:1014B000026816480068FFF797FE002800D1F8BDC3
:1014C00068460078801EC1B212480068FFF7A8FB8A
:1014D00085B2E9B268460078801E0E4A1268105C38
:1014E000814211D12804010E68460078401E094A45
:1014F0001268105C814207D106480068C1783970D3
:10150000007978700120DAE70020D8E74C0000204D
:101510005400002050000020F8B506460F46002574
:101520000024002000902146641C26480068465490
:1015300004222146641C23480068425400222146AC
:10154000641C20480068425403211E480068FFF7CD
:1015500067FB85B22146641C1A480068455429126D
:101560002246641C17480068815406201649096801
:1015700008706B4615482146026812480068FFF75C
:1015800033FE002800D1F8BD68460078801EC1B245
:101590000E480068FFF744FB85B2E8B20B490968C2
:1015A000097988420CD12804000E08490968497954
:1015B000884205D105480068C07838700120E2E70C
:1015C0000020E0E74C0000205400002050000020E4
:1015D000F8B506460F46002500240020009021465D
:1015E000641C25480068465406222146641C224893
:1015F0000068425400222146641C1F48006842547F
:1016000003211D480068FFF70BFB85B22146641CCF
:1016100019480068455429122246641C164800687F
:10162000815406201549096808706B461448214604
:10163000026811480068FFF7D7FD002800D1F8BD07
:1016400004210F480068FFF7EBFA85B2E8B20C49B5
:101650000968097988420CD12804000E08490968F4
:101660004979884205D106480068C0783870012061
:10167000E5E70020E3E700004C00002054000020D4
:1016800050000020704700000CB500200190009031
:10169000314800680121090408432F49086000BF50
:1016A0002D48006801214904084000900198401C21
:1016B00001900098002804D105210903019888426F
:1016C000EED125480068012149040840002802D0D5
:1016D0000120009001E0002000900098012839D1FD
:1016E00011201E4908601C4840681B494860084694
:1016F00040684860084640687F21C903884316490E
:1017000048600846406811210904084312494860AE
:10171000084600680121090608430F49086000BF18
:101720000D4800680121490608400028F8D00A4801
:1017300040688008800008494860084640680221E7
:1017400008430549486000BF034840680C21084031
:101750000828F9D10CBD0000001002400020024012
:1017600002480068401E01490860704730000020B0
:1017700010B500BF7D21C9000D480068FEF7D6FCFA
:101780000446601E0B49884201D901200CE0601E0E
:10179000094948610321081FFFF7B8FA00200649EC
:1017A00088610720086100200028E3D110BD0000F7
:1017B00000000020FFFFFF0000E000E010B51B4824
:1017C0000068012108431949086008464068184923
:1017D0000840164948600846006816490840134901
:1017E0000860084600680121890488430F490860A1
:1017F000084640683F21090488430C494860084670
:10180000C06A00090001C8620846006BFF2154311C
:101810008843064908630846406B40084000486317
:1018200000208860FFF730FF10BD0000001002406C
:101830000CB8FF08FFFFF6FE10B50F490F4800F087
:101840003FF8002816D00D4800F0FEF8C4B20C494D
:101850000878411C0A4A11700A490C540A48807BD6
:1018600011460978884205DC0020114608700120E5
:101870000649087010BD0000050105000038014050
:101880002B0000201F020020A00200202A000020C0
:1018900001627047002904D0026801231A430260E4
:1018A00003E00268520852000260704702460020BE
:1018B000D3690B40002B01D0012000E000207047CD
:1018C00070B502460B4600240021002500201E04AE
:1018D000350ED9B201268E403146012D02D116684F
:1018E000314006E0022D02D15668314001E0966891
:1018F00031401C0C0126A6403446D66934400029EC
:1019000003D0002C01D0012000E0002070BDF8B50C
:1019100003460024002600960025002018460E04E9
:10192000340ECEB200960127009EB7403D46022CF1
:1019300001D1001D02E0032C00D10830002A03D0A1
:1019400006682E43066002E00668AE430660F8BDF6
:10195000F0B58BB004460D46002700200A90002603
:101960002068400840002060666803210903304673
:1019700088430646A8680643666026682D480640E8
:10198000E968686808432969084306432660A66831
:101990000321090230468843064668690643A6606B
:1019A0006846FFF731FA2448844202D106980A902B
:1019B0000DE02248844202D107980A9007E02048AF
:1019C000844202D108980A9001E002980A902068A7
:1019D0000121C903084000280CD029680A9A500048
:1019E000FEF7A4FB074629680A9A5000FEF79EFB03
:1019F0000E4609E029680A98FEF798FB0746296811
:101A00000A98FEF793FB0E4628684008B04200D8BB
:101A10007F1C20680121C9030840002806D0380730
:101A2000460F38460749084030430746A7810BB0A8
:101A3000F0BD0000F3E9FFFF003801400044004022
:101A400000480040F0FF00000146888CC005C00D32
:101A50007047CA05D20D0285704700000FB410B55B
:101A600003A9044B044A029800F018F810BC08BC03
:101A700004B01847691E00082C00002002E008C8C6
:101A8000121F08C1002AFAD170477047002001E0F8
:101A900001C1121F002AFBD170470000FFB58DB0B5
:101AA0000446002506E025280AD0109A0F99904791
:101AB000641C6D1C20780028F5D1284611B0F0BDBB
:101AC00000270121484A009700E00743641C23785F
:101AD0000846203B98401042F7D120782E2817D195
:101AE000042007436078641C2A280CD10E98641CDB
:101AF00002C800910E900BE000990A225143303940
:101B00004018641C00902078014630390929F3D927
:101B100020780028D1D0642808D0692806D07528FC
:101B20001ED0109A0F9990476D1C5BE00A200E9909
:101B3000019001C90E91002802DA40422D2102E0F5
:101B4000390504D52B216A461172012103E0F907FA
:101B500004D02021F7E70BAE0B910DE00021FAE74E
:101B60000A200E99019001C90E91F7E70199FEF73D
:101B7000DDFA3031761E31700028F7D103A8801BC2
:101B800020300190780701D5009801E001200090F5
:101B90000199884201DD401A00E0002000270090F2
:101BA00006E002A8109AC05D0F9990476D1C7F1C3B
:101BB0000B988742F5DB04E0109A30200F9990478C
:101BC0006D1C0099481E00900029F5DC05E0307876
:101BD000109A761C0F9990476D1C0199481E019030
:101BE0000029F4DC641C65E70928010010B500F049
:101BF000D5F800F055F810BDF7B586B004460D468F
:101C000001200590204611300390284611300290A3
:101C10002E46207C012802D0002009B0F0BD039898
:101C20000078002803DD03980078032801DB0020FA
:101C3000F3E76279607C800018490F5804AB2046B6
:101C400011300299B84705900598012823D1112237
:101C500021463046FEF794FA012030716846007C38
:101C60007071294611316846007C08180190BE2128
:101C7000019881706846017C1131284600F0CEF849
:101C8000014601980170090A41706846007C1430D1
:101C9000C1B2089801700598BFE700003826000817
:101CA000F0B587B0364D2846113004900498401C9A
:101CB00003900398061D3348006833490968401AA9
:101CC0007D21C900884201D207B0F0BD2E480068CE
:101CD0002C490860284600F05BFC03202871022094
:101CE000287405216973012104980170274803991C
:101CF000FEF76AFA264800783070254841887170EE
:101D0000090AB170002429E00C20604321494018E1
:101D1000407A002802D10120059007E00C206043A2
:101D20001C494018407A0A21484305900598FEF75F
:101D300092FA0C216143174A891802904889FEF7EC
:101D40008AFA01900299FEF748FA0690069FA200CF
:101D5000F01C11183846FEF737FA641C3078A042A0
:101D6000D2DC282068712946054800F0D5FB0A49D5
:101D70000870084601780248FEF7EAFA00BFA3E7B8
:101D8000C10000203C00002030000020DDCCBBAAB8
:101D900044000020400200201400002010B5134829
:101DA00000F0C0FA002800D110BD1048407D002886
:101DB00016D0012802D0022813D113E064210C4868
:101DC000FEF7F7F90B4A0A490848401DFFF714FFD0
:101DD000012804D1074801780548FEF7B9FA01E067
:101DE00000E000BF00BF00BFDEE700005800002099
:101DF000C10000201400002010B502460B785340AB
:101E0000184603014340D8B20B881B1204026340FA
:101E1000C4006340041163400B8010BD38B5044614
:101E20000D460020C043009004E02078641C694601
:101E3000FFF7E2FF2846691E8DB20028F5D16846FB
:101E4000008838BD044A116800BF034A12688A1A24
:101E50008242FAD3704700003000002000B50346EC
:101E60001846FFF7EFFF00BD70B504460D4600BFF2
:101E700040210548FFF71AFD0028F9D0E1B20248D9
:101E8000FFF7E7FD204670BD0044004001460846CC
:101E900070470000FFB587B0064600200490039607
:101EA000089F039E741CBD1C3C480078002801D18B
:101EB00002200490207839490978884201DB032008
:101EC0000490049800285ED120783449097888422B
:101ED00057DA20780C21484331494018407A0028CD
:101EE00002D10120059008E020780C2148432C49BC
:101EF0004018407A0A21484305900598FEF7ABF94F
:101F0000029021780C225143254A89184889FEF70E
:101F1000A2F901900299FEF760F906900698FFF782
:101F2000B5FFE91C0290FEF74FF920782870207861
:101F30000C2250431A4A80180179002000F082F9DF
:101F40006872000AA87220780C225043144A801844
:101F5000017A002000F08EF9E872000A28732178D7
:101F60000C2251430E4A8918C888FEF774F906906E
:101F70000698FFF78BFF29460D310290FEF724F9F2
:101F800001E003200490039800783870049878707A
:101F900014210A98017001200BB0F0BD440000200C
:101FA00040020020F0B50446002526460A46971C4C
:101FB00007480078002800D10225054800783870CD
:101FC000307810705570032018700120F0BD0000AB
:101FD000440000201CB560214848FEF7EAF8484854
:101FE00000210180418001241DE06420FFF72AFFC9
:101FF000E0B201A9FFF72CFA002813D0404800787E
:102000000C2250433D4A1454684681883C4800786D
:102010000C225043394A8018418039480078401CCE
:1020200037490870641C082CDFDD002413E06420AD
:10203000FFF708FF0C216143304A505C6946FFF707
:102040006BFA002806D0684601780C2060432B4AC2
:1020500080180171641C2A480078A042E7DC002443
:1020600013E06420FFF7EEFE0C216143234A505C2D
:1020700001A9FFF731F9002806D0684681880C20B5
:1020800060431E4A8018C180641C1D480078A0422D
:10209000E7DC002413E06420FFF7D4FE0C21614349
:1020A000164A505C6946FFF793FA002806D0684646
:1020B00001780C206043114A80180172641C10489A
:1020C0000078A042E7DC002413E06420FFF7BAFEAA
:1020D0000C216143094A505C6946FFF7A3F80028C8
:1020E00006D0684601780C206043044A801841728B
:1020F000641C03480078A042E7DC1CBD40020020BD
:102100004400002008B52C4800682C490968401A92
:10211000FF21F53188424ED32848006826490860DF
:10212000274909680C225143264A505C6946FFF74B
:1021300031F900281AD068460188214800680C222D
:102140005043204A8018418101211D4800680C221B
:1021500050431C4A801841701B48408818490A782F
:102160000121914008431849488017E00021144894
:1021700000680C225043134A8018418110480068BF
:102180000C2250430F4A801841700F4841880C4878
:1021900002780120904081430B4841800848006844
:1021A000401C07490860084800780968884202DC3A
:1021B00000200349086008BD4000002030000020D6
:1021C00048000020400200204400002010B50C48C8
:1021D00000680C490968401A322804D98021092076
:1021E000C006FEF71BFD0848006806490968401A4A
:1021F000322804D940210920C006FEF70FFD10BD8A
:10220000380000203000002034000020FFF7B0FA32
:102210004B20C001FEF71CFF00F048F80020FEF73D
:10222000EFF9FEF71FFD0648FFF70CFEFFF7D2FEA1
:1022300005E0FFF7CBFFFFF765FFFFF7D7FCF8E7F7
:10224000983A000002460B46012A01DAFF2B01D121
:10225000FF207047002107E005484018805C984245
:1022600001D1C8B2F5E7491C0A29F5DBFF20F0E7E8
:102270002026000802460B46012A01DCFF2B01D173
:10228000FF207047002107E005484018805C984215
:1022900001D1C8B2F5E7491C0A29F5DBFF20F0E7B8
:1022A0002A26000810B50446002010BD00B589B0EC
:1022B00001214804FEF768FD01214804FEF774FD82
:1022C000012202210920C006FEF784FC012203211D
:1022D0000920C006FEF77EFC0C200790022108A80A
:1022E000017003214170002181700121C17007A993
:1022F0000920C006FEF726FCE120400201900020E4
:1023000002900390049006900C20059001A90448C7
:10231000FFF71EFB01210248FFF7BCFA09B000BD20
:102320000044004070B5044609E0FDF7EFFF0546A4
:102330002946204600F009F8012800D170BDFDF7BC
:10234000F9FF0128F1D00020F8E770B504460D46EA
:10235000661D00202070607800280FD1EB2D0DD174
:102360003570411E304661300170090A41702946BE
:10237000304600F03EF901206070C3E0607801282B
:1023800009D1012D07D175702946304600F031F989
:1023900002206070B6E06078022807D1B570294647
:1023A000304600F026F903206070ABE06078032827
:1023B00007D1F5702946304600F01BF90420607003
:1023C000A0E06078042807D135712946304600F036
:1023D00010F90520607095E06078052809D1502D2E
:1023E00007DC75712946304600F003F9062060705D
:1023F00088E06078062807D1B5712946304600F09C
:10240000F8F8072060707DE06078072811D1A17886
:10241000F01D45542946304600F0EBF8A078401CEA
:10242000A070A07803286DD10020A07008206070F3
:1024300068E06078082812D1E17830460A304554C7
:102440002946304600F0D5F8E078401CE070E0788E
:10245000062857D10020E0700920607052E06078B3
:10246000092807D135742946304600F0C2F80A2001
:10247000607047E060780A2813D121793046113026
:1024800045542946304600F0B4F82079401C2071AC
:1024900020797179884235D1002020710B2060703D
:1024A00030E060780B280CD13046613041780278FA
:1024B00008021043C0B2A84202D10C20607021E093
:1024C00022E060780C280CD13046613041780278E7
:1024D000080210430012A84202D10D20607011E0E2
:1024E00012E060780D2808D1BE2D06D163208555F5
:1024F000002060700120207004E000206070A07057
:10250000E0702071207870BD00206070A070E070D5
:1025100020712078F7E7000070B505460C46607B17
:102520001A49085CA071607B085C401CC1B2607BEA
:10253000164A1154617B505CFF21FDF70DFE607B54
:10254000124A11546079014611312046FFF766FCAA
:10255000214661310870000A487011222146284640
:10256000FDF70EFE62792146113128461130FDF744
:1025700007FE627929461131501803222146613144
:10258000FDF7FEFD60791430C0B270BD330200204B
:10259000EB2202700122427000228270C270BE23C0
:1025A0006322135400228271002104E00023C21D23
:1025B00053544A1CD1B20329F8DB002105E0002363
:1025C00002460A3253544A1CD1B20629F7DB0021D5
:1025D00005E000230246113253544A1CD1B250295F
:1025E000F7DB0023DB430246613213701B0A537092
:1025F000704738B504460D46204661304178027870
:1026000008021043009069462846FFF7F5FB69462B
:102610000988204661300170090A417038BD000008
:10262000FF010209160807181903FF060500FF0439
:10263000FF01030708000000A5220008A51F0008ED
:10264000951E0008642600080000002058000000C5
:102650007C1A0008BC26000858000020580600001C
:102660008C1A0008006CDC02000000000000000072
:10267000010203040607080900000000000102032C
:10268000040102030406070809000000000000001E
:1026900000000000FFFFFFFFFFFFFFFFFFFFFFFF46
:1026A000FFFFFFFFFFFFFFFF000000000000000032
:0C26B000A0020020A7020020AE020020C3
:04000005080000C12E
:00000001FF
