:020000040800F2
:1000000008070020D5000008D50D0008C90B00081E
:1000100000000000000000000000000000000000E0
:10002000000000000000000000000000710F000848
:100030000000000000000000290E00080D1000085C
:100040000501000805010008050100080501000878
:100050000501000805010008050100080501000868
:100060000501000805010008050100080501000858
:100070000501000805010008050100080501000848
:100080000501000800000000000000000501000854
:100090000000000005010008050100080501000836
:1000A0000000000005010008050100080501000826
:1000B0000501000800000000FD0700080501000818
:1000C0000348854600F06EF800480047DD1400083C
:1000D000080700200C4880F308880C480168090EC6
:1000E0000B4A914205D10B480B4901600B480C4962
:1000F00001600C4880470C480047FEE7FEE7FEE73A
:10010000FEE7FEE7FEE7000008070020040000000D
:100110001F00000018100240010000000000014014
:100120000000000069100008C100000830B50B464F
:10013000014600202022012409E00D46D5409D42C1
:1001400005D31D469540491B254695404019154647
:10015000521E002DF1DC30BD03460B439B0703D03C
:1001600009E008C9121F08C0042AFAD203E00B787C
:100170000370401C491C521EF9D270470321001D18
:10018000401E037812021A43491EF9D510467047E3
:10019000034603220870000A491C521EFAD518466D
:1001A00070470000064C0125064E05E0E36807CCC9
:1001B0002B430C3C98471034B442F7D3FFF784FF2D
:1001C000AC180008CC18000830B5324D93B0284662
:1001D00000F088F80121304800F028FE0121480293
:1001E00000F048FE1120069003206946087700249D
:1001F000CC7706A9680400F094FC684600F0C3F8C8
:10020000694600940C71029404942846059400F009
:100210009FF807220121284600F044F80722102108
:10022000284600F03FF8284600F06CF802212846E6
:1002300000F050F80121284600F042F8012128463C
:1002400000F035F80121284600F073F80028F9D0B5
:10025000124D284600F068FB0E480A944030089082
:100260000F48099014200B9080200D9040000E90B4
:1002700080000F90202010900C940002119008A98B
:100280001294284600F0B0FB0121284600F040FB04
:1002900013B030BD002401400100020008000240FC
:1002A00056010020836A0B43836242617047002934
:1002B000816801D0012200E0022211438160704771
:1002C0000029C16802D00122114301E04908490018
:1002D000C1607047C26802239A43C260C2680A4381
:1002E000C2607047064910B5884208D14415012103
:1002F000204600F0CBFD0021204600F0C7FD10BDD8
:1003000000240140826800210123DB071A43826038
:100310000F231B038268491CD20FD207994201D0D8
:10032000002AF7D18168002901DB006C70470020AA
:10033000704702460020CB0104D5926801231B06BA
:100340009A4300E012680A4200D001207047000082
:1003500030B5C268084B8C681A400B680D7923438E
:10036000CC686D032C4323430C69496923430B4339
:100370001343C36030BD000003D2FFFF8168042235
:100380001143816070470021016001718160C1608B
:100390000161416170470000064A05485188405C90
:1003A000491C89B25180FE2901D10021518070473A
:1003B0005800002014000020044801884088814231
:1003C00001D1002070470120704700001400002078
:1003D000F8B5CF080E460546002408E00821284657
:1003E00000F040FA00280BD1641CE4B20835BC428E
:1003F000F4D3710704D07107490F284600F032FA90
:10040000F8BD10B501214C06204600F027FD002163
:10041000204600F023FD10BD70B50446817A01200E
:1004200005462B4E8D40316801433160F069A84389
:10043000F061207B002812D1F068A843F060E088CA
:10044000618800040843A17AC90089190864A0885A
:10045000218800040843A17AC90089194864207BD7
:10046000012814D1F0682843F0602046FFF786FE8B
:100470001021C841A17AC90089190864201DFFF71D
:100480007DFE1021C841A17AC90089194864E07A2B
:100490000028706805D0284370602089002802D0A9
:1004A00004E0A843F8E77069A84370612089012837
:1004B00002D1706928437061607B012802D1F06924
:1004C0002843F061306840084000306070BD000093
:1004D00000660040002A426901D00A4300E08A43D6
:1004E0004261704710B5036800220224A3430360F1
:1004F0000368012423430360314B00E0521C44682D
:10050000E40701D19A42F9D14268D2073ED08C79F2
:100510008022012C04683BD094430460CC794022B3
:10052000012C046836D0944304600C7A2022012CFC
:10053000046831D0944304604C7A1022012C046882
:100540002CD0944304608C7A0822012C046827D0B4
:1005500094430460CC7A0422012C046822D0944392
:1005600004608A78CC789207240622430C7924040C
:1005700022434C79098824052243491E0A43C2615B
:10058000016849084900016000210EE0002010BD0B
:100590001443C2E71443C7E71443CCE71443D1E73D
:1005A0001443D6E71443DBE7491C4268D20701D065
:1005B0009942F9D14068C007E8D1012010BD000080
:1005C000FFFFFF00F1B501218AB0480400F02EFCC6
:1005D0000121480600F036FC022669460E7400240C
:1005E00003208C74C00203900125CD74032048744D
:1005F0000927FF0603A9384600F093FA04220B21CD
:10060000384600F0C6FA04220C21384600F0C1FA40
:10061000194F3846FFF7F5FE69468C71CC7102948C
:100620000A988870CC70072008714E7108200880E5
:100630003846FFF757FF08A98C70CD700D71C020A8
:10064000694608834C838C83CC830C8408A94D7144
:1006500006A8FFF7E1FE1E20694608754E758D75E8
:1006600005A800F0B9FB012202213846FFF732FF4E
:1006700000200BB0F0BD0000006400400B0130B55D
:100680001B18FF3381331C6B04252C4014721C6B28
:1006900029D0E40854601C6B02252C4054725C6B1A
:1006A0002407240F94725C6B240AD4749C6BD4725C
:1006B0009C6B240A14739C6B240C54739C6B240E47
:1006C0009473DC6BD473DC6B240A1474DC6B240C21
:1006D0005474DB6B1B0E93742022002906D0016931
:1006E0001143016130BD640D1460D4E7C16811434A
:1006F000C16030BD30B50246936800205B0108D46C
:100700009068000101D5012003E09068C0002ED55B
:10071000022003019A18FF3281321368DB07DB0FD6
:1007200013600B7A002B24D014684D681C434B7A5D
:10073000ED002B431C4314608B7A1B071B0F8B723D
:1007400053681B091B01536053688C7A2343536021
:10075000CB68CC7A1B02234393600B69C97B1B02D5
:100760000B43D360116801231943116030BD04208D
:1007700030BD13684C7A23430C886405234313600F
:10078000DAE700000022002904D0012905D002295F
:1007900006D112E08268134801E0826812480240E4
:1007A0001249501A8A4218D00ADC002A17D0104881
:1007B000101811D0022810D10DE082680D48EEE724
:1007C000FF38FF38801E06D00B49401804D00121A5
:1007D0004904884201D1012070470020704702205F
:1007E0007047000003000004000300080001000837
:1007F000FFFFFFFB000003100003FFF7F0B585B01B
:100800006A4600211148FFF739FF00206E46104963
:10081000104A0746B57A0CE03318DB7A0C8813557A
:100820000B885B1C0B800B88FE2B00D10F80401CBB
:10083000C0B28542F0D88021074800F0C1F90748CE
:1008400000680749086005B0F0BD00000064004082
:100850001400002058000020000400483000002050
:1008600034000020F0B585B00022602300936C4670
:10087000019222726272A1726B4604E0845C9D1840
:10088000521CEC7292B28A42F8D340211B4800F00D
:1008900097F91B4800681B4908601B4F00246946F4
:1008A0003846FFF727FF0546184E06E0641CA4B241
:1008B00069463846FFF71EFF0546042D02D0002486
:1008C000014607E0B442F1D3012005B0F0BD641C3D
:1008D000A4B229463846FFF755FF012801D0B4429B
:1008E000F5D3B44203D3022801D0002801D0002060
:1008F000EBE70020FFF766FEE6E700000004004893
:10090000300000203800002000640040FF4F00004D
:100910000029016802D00122114301E0014A11407F
:1009200001607047FEFF0000F0B501682B4A1140DE
:1009300001600021016041608160C1602849284A4E
:1009400008390F2390422DD0254AF02414329042CA
:100950002FD0234A1D022832904231D0204E1A0354
:100960003C36B04203D1486815E04860F0BD1C4FEA
:100970000F2650373604B8422DD0194F6437B8428D
:1009800002D14868320106E0154F7837B84204D1E9
:1009900048680F2212061043E7E71249114F083941
:1009A000B84202D148681843DFE70E4B143398422F
:1009B00002D148682043D8E70A4B2833984202D135
:1009C00048682843D1E7074B3C339842CBD0054ACF
:1009D00050329042CAD148683043C6E7FEFF00005B
:1009E000080002400804024030B503680C4A0C6A53
:1009F00013408A684D6922430C692C4322438C6959
:100A00002243CC6922434C6A22438C6A22431A4314
:100A10000260CA6842600A6882604968C16030BD8D
:100A20000F80FFFFF0B50B2706463F04384600F065
:100A300067F804280FD1084C20690225284320615B
:100A400066612069402108432061384600F058F86B
:100A50002169A9432161F0BD00200240084904201A
:100A6000CA68D20701D001207047CA68D20601D5F2
:100A700002207047C9684907FBD503207047000072
:100A80000020024002480169802211430161704741
:100A900000200240F8B5064600200B273F040090D6
:100AA0000D46384600F02CF8042815D10B4C20696F
:100AB0000121084320613580384600F021F80428E0
:100AC00006D1B61C290C00963180384600F018F883
:100AD0002169490849002161F8BD00000020024059
:100AE00004480169090603D503494160034941608F
:100AF000704700000020024023016745AB89EFCD1D
:100B000000B50346FFF7AAFF02E0FFF7A7FF5B1E51
:100B1000012803D0002B00D1052000BD002BF4D10B
:100B2000FAE7F0B50022032501230C6893401C402E
:100B30009C422AD10C79012C01D0022C12D1876859
:100B400054002E46A640B74387604E79A64084687D
:100B50002643866084889C43848084888B79934074
:100B60001C438480066853002C469C40A6430660C4
:100B70000E7907689E403E430660C668A643C6607D
:100B8000CC799C40C3681C43C460521C102ACBD350
:100B9000F0BD4B07DB0E9A40C90810B58900081854
:100BA000016A0F249C40A1430162016A1143016262
:100BB00010BD0246128A00200A4200D00120704770
:100BC0000185704781617047FEE71CB5012148042B
:100BD00000F02CF90020694608710120C8716020DE
:100BE0000924E40600902046FFF79BFF8021009136
:100BF00069462046FFF795FF1CBD000070B500F068
:100C000051F82649002808722FD00979012292074D
:100C1000234C00292AD001280BD0022815D0032804
:100C200023D11546104600F059FA2168884217D0A2
:100C300009E01546104600F051FA2168884202D1B9
:100C40002846AA310FE028460DE01546104600F070
:100C500045FA21688842F6D1FF312846553102E035
:100C6000FF312846FF3100F0CDFA70BD012809D0D0
:100C70000328FAD120687D210A38C9002060884203
:100C800009D306E020687D210A30090120608842EE
:100C900001D8014600E021601046E4E71E00002074
:100CA0002C000020F8B50925ED0620212846FFF785
:100CB00080FF2F4C402160702846FFF77AFFA0701C
:100CC00080212846FFF775FFE070A2790121012AF3
:100CD00002D16278002A03D06278012A0DD012E096
:100CE000A278002A0FD100280DD1A0712279002A04
:100CF00001D0207139E0217137E0A278012A02D1B8
:100D0000012800D1A1712278012A25D16278002A18
:100D100004D0A378002B01D000281DD1154F3B68CB
:100D2000154E35685B1BFF25F535AB4214D931688C
:100D3000396000212170002A05D0A178002907D050
:100D4000002807D011E06089401C60810120F8BDB7
:100D50000220F8BD0320F8BD6278012A05D1A278EF
:100D6000012A02D1012800D121700020F8BD000025
:100D70001E00002044000020300000207CB503202D
:100D80000121400400F052F801206A461071002150
:100D900091715071D071C8200D4C00906946204669
:100DA000FFF7BFFEC8212046FFF70CFFFF240925EF
:100DB0000134ED06694628460094FFF7B2FE21464D
:100DC0002846FFF7FFFEFF20F53000F055FB7CBD05
:100DD000000400487047000030B582780124017893
:100DE000002A15D08B080E4A9B009A1813688907B1
:100DF000C90EFF258D40AB434578AD072D0E8D40C4
:100E00001D4315600078C006C00E8440054804E00C
:100E1000C806C00E844003488030046030BD000026
:100E200000E400E000E100E070470000044A00290F
:100E3000516901D0014300E08143516170470000D6
:100E400000100240044A0029D16901D0014300E0AA
:100E50008143D1617047000000100240044A00291C
:100E6000116901D0014300E0814311617047000026
:100E700000100240044A0029916901D0014300E0BA
:100E8000814391617047000000100240044A00292C
:100E9000D16801D0014300E08143D1607047000078
:100EA00000100240F8B500F02DF81148FFF766F980
:100EB0000F4C104E254608350F4FB04204D128463E
:100EC000FFF75CF9B8420DD009493046FFF760F9E9
:100ED00029463846FFF75CF9211D0848FFF758F905
:100EE00000F028F8201DFFF749F905490860F8BD12
:100EF0008001002098BADCFE10325476DC05000038
:100F00002C00002070B50A4B084A00201D461146EF
:100F10000C35860010C9401CAC510028F9D00020C7
:100F200002CA401C02C30328FAD370BD0070000837
:100F30008001002070B500240B4E0C4DFFF7D0FD52
:100F40003046FFF76FFD04280BD130462968FFF7C4
:100F5000A1FD042805D1641CE4B22D1D361D032C0F
:100F6000F3D3FFF78FFD70BD0070000880010020F3
:100F7000704700001CB500232248009301930168CC
:100F80000122120411430160510005242403026868
:100F90000A400192009A521C0092019A002A02D142
:100FA000009AA242F3D10168890328D50121019159
:100FB000154A1121116041684160416841604168F2
:100FC0007F22D203914341604168112212041143F0
:100FD0004160016801221206114301600168890124
:100FE000FCD54168890889004160416802221143AB
:100FF000416041680907890F0229FAD11CBD01939C
:101000001CBD0000001002400020024002480168A0
:10101000491E0160704700003000002070B50E4886
:101020007D21C9000D4C0068FFF780F80C4A0723AA
:10103000401EA04201D901210BE05061094EF16927
:1010400003250902090AAD072943F16100219161D5
:1010500013610029EDD170BD00000020FFFFFF00EB
:1010600000E000E004ED00E010B514480168012242
:10107000114301604168124A114041600168114A00
:1010800011400160016801229204914301604168AE
:101090003F22120491434160C16A09090901C162FA
:1010A000016BFF22543291430163416B49084900AF
:1010B000416300218160FFF75DFF10BD0010024019
:1010C0000CB8FF08FFFFF6FE0029018802D00122BC
:1010D000114301E04908490001807047806B704767
:1010E000F0B501218BB04804FFF7A0FE0226694647
:1010F0000E7101244C7100258D71CC710E200927D1
:10110000FF0600903846FFF70CFD02220321384607
:10111000FFF73FFD022211463846FFF73AFD022253
:1011200001213846FFF735FD01210846FFF78AFE09
:101130002F2069468883CD830C4808908D84A507AD
:1011400007A9284600F060F87020694608814C81A4
:101150008E82074802A900680490284600F00AF829
:1011600001212846FFF7B0FF0BB0F0BD1F4E000075
:101170002C00002070B5028C10239A430284048C4A
:101180008288038B1A4D2B400D782D062D0C1D43A4
:1011900020239C438B891B051E0C4B8826431B0573
:1011A0001B0C144C3343A04202D0134EB04219D151
:1011B000124E32400E8AB604360C3243A04211D190
:1011C0008024A343CC892405240C1C4340239C4346
:1011D0008B881B051B0C2343094C22404C8AA4041A
:1011E000240C22438280058389688163038470BD57
:1011F000FF8C0000002C014000400140FFFB00007C
:10120000FFF700008163704710B50288144B9842C5
:1012100006D00124A407A04202D0124CA04203D160
:101220007024A2434C8822430F4CA04203D00F4CA1
:1012300022400C89224302804A68C2620A880285E1
:10124000984208D00A4A904205D00A4A904202D0F9
:10125000094A904201D1897A01860121818210BD1B
:10126000002C01400004004000100040FFFC000082
:1012700000400140004401400048014002E008C82D
:10128000121F08C1002AFAD170477047002001E000
:1012900001C1121F002AFBD170470000074910B599
:1012A00008466430044600F091FA0449C0310872DF
:1012B00001462046FFF78CF8002010BD3E020020BA
:1012C00070B50F4C0D482060401C6060001DA06090
:1012D000163800F0B1FA094D0320113D28710220A3
:1012E0002874062068732168012008700548616829
:1012F000FEF74EFF0820687170BD00004F0200200D
:101300004C000020DDCCBBAAF8B5164C164960880D
:1013100001254018154900268F1088420CD32078EB
:10132000002807D109202902C006FFF749FC3846EA
:1013300000F0A2F8257000E02670A0880C49401843
:101340000C4988420BD36078002806D108210A484E
:10135000FFF736FC384600F08FF86570F8BD667010
:10136000F8BD00001800002008D5FFFFD1070000DD
:101370006CEEFFFFE90300000004004810B50020F8
:1013800000F084F8034CA080012000F07FF860801A
:1013900010BD00001800002010B5FFF73FFEFFF75A
:1013A00081FDFFF79DFEFFF7E9FCFEF70DFF002032
:1013B000FFF708F9FFF709FC10BD0000F8B50120A0
:1013C0008007FFF78BFE184E002431680125174F68
:1013D000AA31884203D13868057044700BE00120BF
:1013E0008007FFF77BFE3168FF315531884204D119
:1013F0003868057045708470F8BD01208007FFF7DC
:101400006DFE3168FF31FF318842386803D10570C5
:1014100045708570F8BD04704470847001208007A9
:101420003168FFF7EFFEF8BD2C00002054000020CB
:101430000A881346424010015040C0B21A0A030203
:101440005A40C3005A40000942400A80704738B5EC
:1014500005460C460020C0436946088004E0287811
:1014600069466D1CFFF7E4FF2046641EA4B2002805
:10147000F5D16846008838BD03490A680B68D31A5D
:101480008342FBD3704700003000002010B50446B3
:1014900000210F4A08464B001B195B00D35A491C18
:1014A0001818C9B20A29F6D30A21FEF73FFE002C0C
:1014B00002D0012C0AD103E006494843400A05E066
:1014C0000549484303218902FEF730FE80B210BD72
:1014D0005601002039030000E5290000FFF75CFFFA
:1014E000FFF7EEFE224E234D234F244C00F064F80C
:1014F000FFF784FB00F04CF830682168401A64283C
:1015000021D32068306028681D48FEF737FF0A2184
:101510002868FEF70BFE002912D1FFF72FFF206885
:101520007D21C0434901884201D9FFF7EDFE2068C3
:101530001449C043884203D9FFF740FFFFF7AEFECE
:101540002868401C286038682168401A322803D96E
:1015500080210D48FFF736FB0C4800682168401ACF
:101560003228C3D940210848FFF72CFBBEE7000012
:101570003C0000204000002034000020300000200B
:1015800000240140881300000004004838000020B7
:1015900010B5074C201DFEF7F1FD01460548006817
:1015A000814204D0211DFEF7F3FDFFF7C3FC10BDFF
:1015B000800100202C00002010B51B4800F03AF8F4
:1015C00000281DD019480168087C002818D18A7CA1
:1015D0000120174B8007EE2A02D1CC7CEE2C0AD0DA
:1015E0004C7CEE2C0CD1C97CEE290FD0EE2A07D111
:1015F000012915D002E0497C012902D0002909D037
:1016000010BD1968AA31FFF7FDFD10BD012A03D0F6
:10161000002AFAD11968F6E71968FF315531F2E767
:101620001968FF31FF31EEE7C801002048000020B3
:101630002C00002010B5044607E0FEF7ADFE014681
:10164000204600F008F8012804D0FEF7B5FE012876
:10165000F3D0002010BDF0B504460026451D0670ED
:10166000407822466632012700281AD0012825D06A
:1016700002282BD003282FD0042833D0052837D0B8
:1016800006283DD0072841D008284ED009285CD034
:101690000A2860D00B2873D00C287AD00D286DD082
:1016A00083E0EB296BD100202970C0431070000A41
:1016B0005070284600F0E7F867707AE0012974D18D
:1016C0006970284600F0DFF802206AE0A970284619
:1016D00000F0D9F8032064E0E970284600F0D3F860
:1016E00004205EE02971284600F0CDF8052058E07E
:1016F00050295AD86971284600F0C5F8062050E0F4
:10170000A971284600F0BFF807204AE0A278E81D3A
:101710001154284600F0B7F8A078401CC0B2A07061
:10172000032846D1A67008203BE0E27828460A301C
:101730001154284600F0A7F8E078401CC0B2E070D1
:10174000062836D1E67009202BE02974284600F0DF
:101750009AF80A2025E022792846113011542846AB
:1017600000F091F82079401CC0B22071697988425C
:101770001FD126710B2014E002E00AE013E014E010
:101780005078127800021043C0B2884218D10C2061
:1017900007E05078127800021043000A88420FD107
:1017A0000D20607005E0BE2905D06670A670E67059
:1017B00026712078F0BD6035E97066702770F8E713
:1017C0006670A670E67026713046F0BDF8B5054625
:1017D000487B184E0C46315CA171315C491CCAB281
:1017E00032541046677BFF21FEF7A0FCF15561796A
:1017F00020461131FFF72BFE214661310870000AA7
:1018000048700E46112221462846FEF7A5FC2846C0
:1018100021461130627911310546FEF79DFC607951
:10182000032240193146FEF797FC60791430C0B2AC
:10183000F8BD000031020020EB2101700121417050
:1018400000228270BE23C27063210B548271114644
:101850004318491CC9B2DA710329F9D3002143188E
:10186000491CC9B29A720629F9D300214318491CB0
:10187000C9B25A745029F9D30021C94361300170AB
:10188000090A4170704718B561300A46417804462C
:10189000037808021843694608801046FFF7C8FD20
:1018A000694608882070000A607018BDCC180008CE
:1018B00000000020580000007C12000824190008D5
:1018C00058000020B00600008C120008006CDC02FA
:1018D00000000000000000000102030406070809E0
:1018E00000000000000000000000010101010100F3
:1018F000010000000000000000000000FFFFFFFFEB
:10190000FFFFFFFFFFFFFFFFFFFFFFFF00000000E3
:10191000FFFFFFFFCD0100200000000000000000DD
:0419200000000000C3
:04000005080000C12E
:00000001FF
