:020000040800F2
:1000000000060020D5000008550D0008490B000827
:1000100000000000000000000000000000000000E0
:100020000000000000000000000000009110000827
:100030000000000000000000A90D00089510000855
:100040000501000805010008050100080501000878
:100050000501000805010008050100080501000868
:100060000501000805010008050100080501000858
:100070000501000805010008050100080501000848
:100080000501000800000000000000000501000854
:100090000000000005010008050100080501000836
:1000A0000000000005010008050100080501000826
:1000B0000501000800000000A50700080501000870
:1000C0000348854600F05CF8004800475D140008CE
:1000D000000600200C4880F308880C480168090ECF
:1000E0000B4A914205D10B480B4901600B480C4962
:1000F00001600C4880470C480047FEE7FEE7FEE73A
:10010000FEE7FEE7FEE70000000600200400000016
:100110001F00000018100240010000000000014014
:1001200000000000F1100008C100000830B50B46C7
:10013000014600202022012409E00D46D5409D42C1
:1001400005D31D469540491B254695404019154647
:10015000521E002DF1DC30BD0321001D401E03782E
:1001600012021A43491EF9D510467047034603226E
:100170000870000A491C521EFAD518467047000044
:10018000064C0125064E05E0E36807CC2B430C3CEA
:1001900098471034B442F7D3FFF796FFCC17000806
:1001A000EC17000830B5324D93B0284600F088F8BF
:1001B0000121304800F0FAFD0121480200F01AFE4A
:1001C000112006900320694608770024CC7706A901
:1001D000680400F066FC684600F0C3F869460094C5
:1001E0000C71029404942846059400F09FF80722AD
:1001F0000121284600F044F807221021284600F08B
:100200003FF8284600F06CF80221284600F050F82C
:100210000121284600F042F80121284600F035F877
:100220000121284600F073F80028F9D0124D284625
:1002300000F03AFB0E480A94403008900F480990AD
:1002400014200B9080200D9040000E9080000F90A5
:10025000202010900C940002119008A912942846B6
:1002600000F082FB0121284600F012FB13B030BDE4
:100270000024014001000200080002405601002055
:10028000836A0B438362426170470029816801D011
:10029000012200E002221143816070470029C168F9
:1002A00002D00122114301E049084900C1607047B2
:1002B000C26802239A43C260C2680A43C2607047A0
:1002C000064910B5884208D144150121204600F0A6
:1002D0009DFD0021204600F099FD10BD0024014045
:1002E000826800210123DB071A4382600F231B036E
:1002F0008268491CD20FD207994201D0002AF7D157
:100300008168002901DB006C7047002070470246BD
:100310000020CB0104D5926801231B069A4300E01C
:1003200012680A4200D001207047000030B5C26850
:10033000084B8C681A400B680D792343CC686D0319
:100340002C4323430C69496923430B431343C36084
:1003500030BD000003D2FFFF816804221143816099
:1003600070470021016001718160C16001614161DC
:1003700070470000064A05485188405C491C89B214
:100380005180FE2901D10021518070475800002082
:100390001C000020044801884088814201D10020CF
:1003A00070470120704700001C00002010B501219B
:1003B0004C06204600F012FD0021204600F00EFD04
:1003C00010BD000070B50446817A012005462B4E11
:1003D0008D40316801433160F069A843F061207BB2
:1003E000002812D1F068A843F060E088618800041A
:1003F0000843A17AC90089190864A08821880004EB
:100400000843A17AC90089194864207B012814D1C6
:10041000F0682843F0602046FFF79EFE1021C84197
:10042000A17AC90089190864201DFFF795FE1021E3
:10043000C841A17AC90089194864E07A0028706827
:1004400005D0284370602089002802D004E0A8432A
:10045000F8E77069A84370612089012802D17069AA
:1004600028437061607B012802D1F0692843F06164
:10047000306840084000306070BD000000660040F9
:10048000002A426901D00A4300E08A434261704772
:1004900010B5036800220224A3430360036801240B
:1004A00023430360314B00E0521C4468E40701D150
:1004B0009A42F9D14268D2073ED08C798022012C31
:1004C00004683BD094430460CC794022012C04683A
:1004D00036D0944304600C7A2022012C046831D079
:1004E000944304604C7A1022012C04682CD094436D
:1004F00004608C7A0822012C046827D0944304609D
:10050000CC7A0422012C046822D0944304608A78B7
:10051000CC789207240622430C79240422434C7998
:10052000098824052243491E0A43C261016849081B
:100530004900016000210EE0002010BD1443C2E715
:100540001443C7E71443CCE71443D1E71443D6E779
:100550001443DBE7491C4268D20701D09942F9D124
:100560004068C007E8D1012010BD0000FFFFFF0078
:10057000F1B501218AB0480400F018FC01214806B9
:1005800000F020FC022669460E74002403208C74BF
:10059000C00203900125CD7409274D74FF0603A9FD
:1005A000384600F07EFA04220B21384600F0B1FAFA
:1005B00004220C21384600F0ACFA194F3846FFF7F8
:1005C000F5FE69468C71CC7102940A988870CC70E3
:1005D000072008714E71082008803846FFF758FF41
:1005E00008A98C70CD700D71C020694608834C83BA
:1005F0008C83CC830C8408A94D7106A8FFF7E2FE1A
:100600001E20694608754E758D7505A800F0A4FB7F
:10061000012202213846FFF733FF00200BB0F0BD66
:10062000006400400B0130B51B18FF3381331C6B95
:1006300004252C4014721C6B29D0E40854601C6BF8
:1006400002252C4054725C6B2407240F94725C6B5F
:10065000240AD4749C6BD4729C6B240A14739C6B14
:10066000240C54739C6B240E9473DC6BD473DC6B7E
:10067000240A1474DC6B240C5474DB6B1B0E93740F
:100680002022002906D001691143016130BD640DAB
:100690001460D4E7C1681143C16030BD30B5024673
:1006A000936800205B0108D49068000101D5012007
:1006B00003E09068C0002ED5022003019A18FF3293
:1006C00081321368DB07DB0F13600B7A002B24D019
:1006D00014684D681C434B7AED002B431C43146097
:1006E0008B7A1B071B0F8B7253681B091B0153600E
:1006F00053688C7A23435360CB68CC7A1B02234324
:1007000093600B69C97B1B020B43D3601168012303
:100710001943116030BD042030BD13684C7A234367
:100720000C88640523431360DAE7000000220029E7
:1007300004D0012905D0022906D112E082681348AD
:1007400001E08268124802401249501A8A4218D0C9
:100750000ADC002A17D01048101811D0022810D136
:100760000DE082680D48EEE7FF38FF38801E06D0A6
:100770000B49401804D001214904884201D10120CD
:1007800070470020704702207047000003000004FB
:100790000003000800010008FFFFFFFB000003103A
:1007A0000003FFF7F0B585B06A4600211148FFF756
:1007B00039FF00206E461049104A0746B57A0CE012
:1007C0003318DB7A0C8813550B885B1C0B800B8865
:1007D000FE2B00D10F80401CC0B28542F0D8802192
:1007E000074800F0ADF9074800680749086005B000
:1007F000F0BD0000006400401C00002058000020F4
:1008000000040048380000203C000020F0B585B00E
:100810000022602300936C46019222726272A172E0
:100820006B4604E0845C9D18521CEC7292B28A42C2
:10083000F8D3124F19463846FFF730FF064600241A
:100840000F4D01E0641CA4B231463846FFF76EFF3D
:10085000002801D1AC42F5D3AC4205D30020FFF70C
:1008600087FE012005B0F0BD4021064800F068F980
:1008700005480068054908600020F3E7006400406F
:10088000FF0F000000040048380000204000002056
:100890000029016802D00122114301E0014A114000
:1008A00001607047FEFF0000F0B501682B4A11405F
:1008B00001600021016041608160C1602849284ACF
:1008C00008390F2390422DD0254AF024143290424B
:1008D0002FD0234A1D022832904231D0204E1A03D5
:1008E0003C36B04203D1486815E04860F0BD1C4F6B
:1008F0000F2650373604B8422DD0194F6437B8420E
:1009000002D14868320106E0154F7837B84204D169
:1009100048680F2212061043E7E71249114F0839C1
:10092000B84202D148681843DFE70E4B14339842AF
:1009300002D148682043D8E70A4B2833984202D1B5
:1009400048682843D1E7074B3C339842CBD0054A4F
:1009500050329042CAD148683043C6E7FEFF0000DB
:10096000080002400804024030B503680C4A0C6AD3
:1009700013408A684D6922430C692C4322438C69D9
:100980002243CC6922434C6A22438C6A22431A4395
:100990000260CA6842600A6882604968C16030BD0E
:1009A0000F80FFFFF0B50B2706463F04384600F0E6
:1009B00067F804280FD1084C2069022528432061DC
:1009C00066612069402108432061384600F058F8EC
:1009D0002169A9432161F0BD00200240084904209B
:1009E000CA68D20701D001207047CA68D20601D573
:1009F00002207047C9684907FBD5032070470000F3
:100A000000200240024801698022114301617047C1
:100A100000200240F8B5064600200B273F04009056
:100A20000D46384600F02CF8042815D10B4C2069EF
:100A30000121084320613580384600F021F8042860
:100A400006D1B61C290C00963180384600F018F803
:100A50002169490849002161F8BD000000200240D9
:100A600004480169090603D503494160034941600F
:100A7000704700000020024023016745AB89EFCD9D
:100A800000B50346FFF7AAFF02E0FFF7A7FF5B1ED2
:100A9000012803D0002B00D1052000BD002BF4D18C
:100AA000FAE7F0B50022032501230C6893401C40AF
:100AB0009C422AD10C79012C01D0022C12D18768DA
:100AC00054002E46A640B74387604E79A6408468FE
:100AD0002643866084889C43848084888B799340F5
:100AE0001C438480066853002C469C40A643066045
:100AF0000E7907689E403E430660C668A643C660FE
:100B0000CC799C40C3681C43C460521C102ACBD3D0
:100B1000F0BD4B07DB0E9A40C90810B589000818D4
:100B2000016A0F249C40A1430162016A11430162E2
:100B300010BD0246128A00200A4200D001207047F0
:100B40000185704781617047FEE71CB501214804AB
:100B500000F02CF90020694608710120C87160205E
:100B60000924E40600902046FFF79BFF80210091B6
:100B700069462046FFF795FF1CBD000070B500F0E8
:100B800051F82649002808722FD0097901229207CE
:100B9000234C00292AD001280BD0022815D0032885
:100BA00023D11546104600F0DBFA2168884217D0A1
:100BB00009E01546104600F0D3FA2168884202D1B8
:100BC0002846AA310FE028460DE01546104600F0F1
:100BD000C7FA21688842F6D1FF312846553102E034
:100BE000FF312846FF3100F04FFB70BD012809D0CE
:100BF0000328FAD120687D210A38C9002060884284
:100C000009D306E020687D210A300901206088426E
:100C100001D8014600E021601046E4E726000020EC
:100C200034000020F8B50925ED0620212846FFF7FD
:100C300080FF2F4C402160702846FFF77AFFA0709C
:100C400080212846FFF775FFE070A2790121012A73
:100C500002D16278002A03D06278012A0DD012E016
:100C6000A278002A0FD100280DD1A0712279002A84
:100C700001D0207139E0217137E0A278012A02D138
:100C8000012800D1A1712278012A25D16278002A99
:100C900004D0A378002B01D000281DD1154F3B684C
:100CA000154E35685B1BFF25F535AB4214D931680D
:100CB000396000212170002A05D0A178002907D0D1
:100CC000002807D011E06089401C60810120F8BD38
:100CD0000220F8BD0320F8BD6278012A05D1A27870
:100CE000012A02D1012800D121700020F8BD0000A6
:100CF000260000204C000020380000207CB5032096
:100D00000121400400F052F801206A4610710021D0
:100D100091715071D071C8200D4C009069462046E9
:100D2000FFF7BFFEC8212046FFF70CFFFF2409256F
:100D30000134ED06694628460094FFF7B2FE2146CD
:100D40002846FFF7FFFEFF20F53000F055FB7CBD85
:100D5000000400487047000030B582780124017813
:100D6000002A15D08B080E4A9B009A181368890731
:100D7000C90EFF258D40AB434578AD072D0E8D4044
:100D80001D4315600078C006C00E8440054804E08D
:100D9000C806C00E844003488030046030BD0000A7
:100DA00000E400E000E100E070470000044A002990
:100DB000516901D0014300E0814351617047000057
:100DC00000100240044A0029D16901D0014300E02B
:100DD0008143D1617047000000100240044A00299D
:100DE000116901D0014300E08143116170470000A7
:100DF00000100240044A0029916901D0014300E03B
:100E0000814391617047000000100240044A0029AC
:100E1000D16801D0014300E08143D16070470000F8
:100E20000010024070B5002400F034F8012000F0FA
:100E30008BF805252D0300E0641C012000F058F814
:100E4000002801D1AC42F7D1012000F051F8002870
:100E50001CD00F4911200860002000F06BF8002022
:100E600000F080F80521C904002000F093F801206B
:100E700000F082F8192000F03BF80028FAD0022098
:100E800000F096F800F04EF80828FBD170BD000085
:100E900000200240124801680122114301604168AC
:100EA000104A1140416001680F4A11400160016819
:100EB000012292049143016041683F221204914350
:100EC0004160C16A09090901C162016B074A114009
:100ED0000163416B4908490041630021816070470B
:100EE000001002400CB8FF08FFFFF6FEACFEF0FF5A
:100EF000034600200A4A59090CD001290CD00229C6
:100F00000CD0516BDA06D20E012393400B4200D075
:100F1000012070471168F5E7116AF3E7516AF1E7BC
:100F200000100240024840680C2108407047000051
:100F300000100240034A5168F02399430143516075
:100F4000704700000010024005490028086802D0E0
:100F50000122104301E04008400008607047000093
:100F600000100240034A516807231B0299430143C2
:100F70005160704700100240012205491206002806
:100F8000086801D0104300E09043086070470000FB
:100F90000010024010B5054A53687B24E403A343C4
:100FA0005360536808430343536010BD0010024070
:100FB000034A516889088900014351607047000065
:100FC00000100240F8B500F02DF81148FFF7C4F802
:100FD0000F4C104E254608350F4FB04204D128461D
:100FE000FFF7BAF8B8420DD009493046FFF7BEF80E
:100FF00029463846FFF7BAF8211D0848FFF7B6F82A
:1010000000F028F8201DFFF7A7F805490860F8BD93
:101010008001002098BADCFE10325476DC05000016
:101020003400002070B50A4B084A00201D461146C6
:101030000C35860010C9401CAC510028F9D00020A6
:1010400002CA401C02C30328FAD370BD0070000816
:101050008001002070B500240B4E0C4DFFF700FD01
:101060003046FFF79FFC04280BD130462968FFF774
:10107000D1FC042805D1641CE4B22D1D361D032CBF
:10108000F3D3FFF7BFFC70BD0070000880010020A3
:101090007047000002480168491E01607047000067
:1010A0003800002070B50E487D21C9000D4C006845
:1010B000FFF73CF80C4A0723401EA04201D901214A
:1010C0000BE05061094EF16903250902090AAD07D9
:1010D0002943F1610021916113610029EDD170BDB7
:1010E00008000020FFFFFF0000E000E004ED00E04A
:1010F000134801680122114301604168114A1140FF
:1011000041600168104A11400160016801229204A7
:101110009143016041683F22120491434160C16ADA
:1011200009090901C162016BFF2254329143016335
:10113000416B49084900416300218160704700000C
:10114000001002400CB8FF08FFFFF6FE00290188DE
:1011500002D00122114301E0490849000180704793
:10116000806B7047F0B501218BB04804FFF71EFE7D
:10117000022669460E7101244C7100258D71CC71D7
:101180000E200927FF0600903846FFF78AFC02224E
:1011900003213846FFF7BDFC022211463846FFF70F
:1011A000B8FC022201213846FFF7B3FC01210846B2
:1011B000FFF708FE2F2069468883CD830C480890EE
:1011C0008D84A50707A9284600F060F870206946BD
:1011D00008814C818E82074802A900680490284645
:1011E00000F00AF801212846FFF7B0FF0BB0F0BD70
:1011F0001F4E00003400002070B5028C10239A436B
:101200000284048C8288038B1A4D2B400D782D06A6
:101210002D0C1D4320239C438B891B051E0C4B88E2
:1012200026431B051B0C144C3343A04202D0134E23
:10123000B04219D1124E32400E8AB604360C3243F7
:10124000A04211D18024A343CC892405240C1C4343
:1012500040239C438B881B051B0C2343094C2240D5
:101260004C8AA404240C224382800583896881630C
:10127000038470BDFF8C0000002C01400040014041
:10128000FFFB0000FFF700008163704710B5028884
:10129000144B984206D00124A407A04202D0124C5D
:1012A000A04203D17024A2434C8822430F4CA04299
:1012B00003D00F4C22400C89224302804A68C2624C
:1012C0000A880285984208D00A4A904205D00A4A04
:1012D000904202D0094A904201D1897A01860121C7
:1012E000818210BD002C014000040040001000402D
:1012F000FFFC000000400140004401400048014064
:1013000002E008C8121F08C1002AFAD170477047CE
:10131000002001E001C1121F002AFBD1704700002C
:10132000F8B5164C16496088012540181549002665
:101330008F1088420CD32078002807D10920290279
:10134000C006FFF7FDFB384600F056F8257000E0B8
:101350002670A0880C4940180C4988420BD360784D
:10136000002806D108210A48FFF7EAFB384600F0BA
:1013700043F86570F8BD6670F8BD000020000020DD
:1013800008D5FFFFD10700006CEEFFFFE903000066
:101390000004004810B5002000F038F8034CA0808D
:1013A000012000F033F8608010BD00002000002014
:1013B00010B5FFF79DFEFFF735FDFFF773FEFFF752
:1013C00001FEFFF7CFFEFFF799FCFEF7EBFE0020D2
:1013D000FFF7CEF8FFF7B9FB10BD0A88134642406D
:1013E00010015040C0B21A0A03025A40C3005A40CA
:1013F000000942400A80704703490A680B68D31A03
:101400008342FBD3704700003800002010B504462B
:1014100000210F4A08464B001B195B00D35A491C98
:101420001818C9B20A29F6D30A21FEF77FFE002C4C
:1014300002D0012C0AD103E006494843400A05E0E6
:101440000549484303218902FEF770FE80B210BDB2
:101450005601002039030000E5290000FFF7A8FF2E
:101460003C4F3D4C3D4E3E4D00F09EF8FFF786FB55
:1014700000F086F83B4801682A68891A642953D32A
:101480002968016030683848FEF766FF0A21306835
:10149000FEF74CFE002944D1FFF77CFF28687D2130
:1014A000C0434901884201D9FFF73AFF28682F4914
:1014B000C043884235D9C806FFF752FE3968AA31C1
:1014C000884201D1012015E001208007FFF748FE86
:1014D0003968FF315531884201D103200AE00120EB
:1014E0008007FFF73DFE3968CA1DFF32F83290428F
:1014F00002D10720207005E0002020700120800725
:10150000FFF7C2FE1A4920788871C879401CC0B222
:10151000C871FF2801D10020C87108211448FFF7C5
:1015200075F93068401C3060124800682968401A1C
:10153000322803D980211048FFF704FB0F480068C8
:101540002968401A32288FD940210B48FFF7FAFA50
:101550008AE70000340000205000002048000020EE
:1015600038000020440000200024014088130000BF
:10157000000000203C000020000400484000002043
:1015800010B5074C201DFEF7E7FD01460548006831
:10159000814204D0211DFEF7E9FDFFF75BFD10BD80
:1015A0008001002034000020F8B5284F0026284C88
:1015B000284D3DE0FEF7DEFE60700146234800F056
:1015C0004BF8012834D1387C002831D1B87CEE2882
:1015D00002D1F97CEE2903D0797CEE2928D112E0E2
:1015E000787C012806D129688007AA31FFF74CFED4
:1015F000012017E000281BD1012080072968FFF790
:1016000043FE267014E0F97CEE2902D0EE280FD1BB
:101610000AE00128EED129688007FF315531FFF734
:1016200033FE0320207003E0012906D00029E3D017
:10163000FEF7B0FE0128BDD0F8BD29680120FF31BA
:101640008007FF31FFF720FE0720EBE7C8010020ED
:10165000500000203400002070B5514D00246C7003
:101660002A78034623330126002A1AD0012A24D0DF
:10167000022A29D0032A2CD0042A2FD0052A32D0BE
:10168000062A37D0072A3AD0082A46D0092A52D04B
:101690000A2A55D00B2A61D00C2A68D00D2A72D0A4
:1016A00073E0EB2971D100220170D2431A73120A40
:1016B0005A7300F077F82E706BE0012965D1417004
:1016C00000F070F802205AE0817000F06BF80320FF
:1016D00055E0C17000F066F8042050E0017100F0A0
:1016E00061F805204BE01E294FD1417100F05AF8F6
:1016F000062044E0817100F055F807203FE0AA7809
:101700008218D17100F04EF8A878401CC0B2A870C1
:1017100003283ED1AC70082031E0EA78821891723B
:1017200000F040F8E878401CC0B2E870062830D1DC
:10173000EC70092023E0017400F034F80A201EE068
:101740002A798218517400F02DF82879401CC0B213
:1017500028711E281DD12C710B2010E0587B1A7B9C
:1017600000021043C0B288420FD10C2007E0587B22
:101770001A7B00021043000A884206D10D2028700F
:1017800007E000E001E0BE2905D02C70AC70EC70E1
:101790002C71687870BD203041742C706E70F8E741
:1017A0005200002018B523300A46417B0446037BD3
:1017B00008021843694608801046FFF70EFE694686
:1017C00008882073000A607318BD0000EC17000839
:1017D0000000002058000000001300084418000812
:1017E00058000020A805000010130008AABBCCDD9B
:1017F000EE060000006CDC020000000000000000AB
:1018000001020304060708090000000000000000B0
:1018100000000101010101000100000000000000C2
:1018200000000000FFFFFFFFFFFFFFFFFFFFFFFFC4
:10183000FFFFFFFF00000000FFFFFFFF00000000B0
:0418400000000000A4
:04000005080000C12E
:00000001FF
