:020000040800F2
:1000000058130020D1000008390F0008350F0008F0
:1000100000000000000000000000000000000000E0
:100020000000000000000000000000008513000830
:1000300000000000000000008D100008D914000826
:100040000101000801010008010100080101000888
:100050000101000801010008010100080101000878
:100060000101000801010008010100080101000868
:100070000101000801010008010100080101000858
:10008000010100085D150008651500080101000860
:100090000101000801010008010100080101000838
:1000A00001010008010100080101000869190008A8
:1000B0007919000889190008690A0008034885466B
:1000C00000F0D8F800480047352F000858130020EA
:1000D0000C4880F308880C480168090E0B4A9142CD
:1000E00005D10B480B4901600B480C4901600C48D5
:1000F00080470C480047FEE7FEE7FEE7FEE7FEE725
:10010000FEE7000058130020040000001F0000005C
:100110001810024001000000000001400000000033
:10012000E1140008BD00000830B50B460146002070
:100130002022012409E00D46D5409D4205D31D46ED
:100140009540491B2546954040191546521E002DE5
:10015000F1DC30BD70B500242546002801DA012409
:100160004042002901DA01254942FFF7DDFFAC4298
:1001700000D04042002C00D0494270BD03460B43E2
:100180009B0703D009E008C9121F08C0042AFAD24D
:1001900003E00B780370401C491C521EF9D27047D3
:1001A000D2B201E00270401C491EFBD2704700220F
:1001B000F6E710B513460A4604461946FFF7F0FF66
:1001C000204610BDC217C10F504010B54018CA07D5
:1001D0009623002100F014F810BD00000122D20780
:1001E000002800DB101A002900DB511A81427047F9
:1001F000002904DA401C490001D140084000704742
:1002000070B40024050C05D11024000402D100298B
:1002100021D01124050E01D100020834050F01D1AF
:100220000001241D850F01D18000A41C002801DBE2
:100230004000641C002908D020252E1B0D46F540E7
:10024000A14000D001212943084301061B1B000ADD
:10025000DB1D02D5002070BC7047DB051818801824
:100260000029F8DA401C4900F5D170BC4008400074
:1002700070470000064C0125064E05E0E36807CCF8
:100280002B430C3C98471034B442F7D3FFF71AFFC6
:10029000603C0008803C0008F8B50446E07804287B
:1002A0000BDC0027002504E0605DC019C7B2681CA4
:1002B000C5B2E078001DA842F6DC2846691CCDB224
:1002C000205CB84223D1665D012E21D10A21494824
:1002D0000174217981746179C174A1790175E17921
:1002E0004175217909026279114308460A21FFF715
:1002F00031FF01B23F48C182A1790902E27911437D
:1003000008460A21FFF726FF01B23A4801836FE051
:10031000022E22D10A213748817721791C300171C0
:1003200061794171A1798171E179C1712179090204
:100330006279114308460A21FFF70CFF01B22D48EC
:100340008184A1790902E279114308460A21FFF765
:1003500001FF01B22748C1844AE0032E22D10A21BD
:1003600024482A3081702179017161794171A17924
:100370008171E179C17121790902627911430846DD
:100380000A21FFF7E7FE01B21A484186A179090266
:10039000E279114308460A21FFF7DCFE01B2154855
:1003A000818625E0042E23D10A211248383081703D
:1003B0002179017161794171A1798171E179C1710D
:1003C000217909026279114308460A21FFF7C2FE2A
:1003D00001B2084838300181A1790902E27911435C
:1003E00008460A21FFF7B6FE01B2024838304181C3
:1003F000F8BD0000EA01002010B57D21C9001648B3
:100400000068FFF791FE0446601E1449884201D936
:1004100001200CE0601E124948610321081F00F012
:10042000F9FD00200E49886107200861002000289E
:1004300001D000BFFEE700F06BFE00F003FC00F00F
:100440007CFD02F0D1F902F053FB02F0B3FD03F0A2
:1004500035FB00F05FF910BDF0000020FFFFFF004A
:1004600000E000E0FEB507460C462046E117490FC4
:1004700009184905090E0091002001900DE008219E
:10048000384600F05DFB0546002D01D02846FEBD34
:1004900008370198401CC0B2019000990198884229
:1004A000EDDB2046E117490F0918C910C900611A90
:1004B0000BD02646E017400F8019C010C000201A4C
:1004C000C1B2384600F03CFB05462846DFE710B5D0
:1004D00004460121480600F0FBFD002101204006F2
:1004E00000F0F6FD10BD000010B50021837A012256
:1004F0009A401146394A126801231A43374B1A6051
:100500001A46D2698A43DA61027B002A1AD11A4656
:10051000D2688A43DA60C288120443881A43304B97
:100520000924A4011B19847AE4001A518288120458
:1005300003881A432A4B0924A4011B19847AE40076
:100540001B195A60027B012A1BD1244AD2680A4334
:10055000224BDA600288120443881A43204B092494
:10056000A4011B19847AE4001A5182881204C388FA
:100570001A431B4B0924A4011B19847AE4001B199C
:100580005A60C27A002A05D1144A52688A43134B32
:100590005A6004E0114A52680A43104B5A600289BB
:1005A000002A04D10D4A52698A430C4B5A610289D0
:1005B000012A04D1094A52690A43084B5A61427B15
:1005C000012A04D1054AD2690A43044BDA61034A7D
:1005D000126852085200014B1A6010BD00660040BC
:1005E00000640040002A03D043690B43436102E0EA
:1005F00043698B434361704730B5024600200023B6
:1006000014680225AC431460146801252C4314605F
:1006100000E05B1C5468E407E40F002C02D13C4C62
:10062000A342F6D15468E407E40F002C01D1002066
:100630006DE08C79012C04D1146880252C43146062
:1006400003E014688025AC431460CC79012C04D1FC
:10065000146840252C43146003E014684025AC4323
:1006600014600C7A012C04D1146820252C431460EA
:1006700003E014682025AC4314604C7A012C04D1AB
:10068000146810252C43146003E014681025AC4353
:1006900014608C7A012C04D1146808252C43146052
:1006A00003E014680825AC431460CC7A012C04D113
:1006B000146804252C43146003E014680425AC433B
:1006C00014608C78A407CD782D062C430D792D0469
:1006D0002C434D792D052C430D886D1E2C43D46180
:1006E0001468640864001460002300E05B1C546814
:1006F000E407E40F002C02D0054CA342F6D1546865
:10070000E407E40F002C01D0002000E0012030BD00
:10071000FFFFFF0000B587B01748FFF7D8FE0021A4
:1007200068468175C175017641768176C17681749E
:10073000C17407210175022141750821018204A9B4
:100740000D48FFF759FF0021684681720121C172EF
:10075000017320210180002141808180C1800181BD
:1007600001214173FFF7C0FE012202210248FFF779
:1007700039FF002007B000BD0064004010B50C0137
:100780000346FF33B1331B59042423401372137AF9
:10079000002B07D10C010346FF33B1331B595B0D0E
:1007A000136006E00C010346FF33B1331B59DB082D
:1007B00053600C010346FF33B1331B59022423401D
:1007C00053720C010346FF33B133E3185B681B0718
:1007D0001B0F93720C010346FF33B133E3185B68C0
:1007E0001B041B0ED3740C010346FF33B133E31813
:1007F0009B68D3720C010346FF33B133E3189B6847
:100800001B041C0E14730C010346FF33B133E318B1
:100810009B681B021C0E54730C010346FF33B1335B
:10082000E3189B681B0E93730C010346FF33B1332F
:10083000E318DB68D3730C010346FF33B133E318CD
:10084000DB681B041C0E14740C010346FF33B13328
:10085000E318DB681B021C0E54740C010346FF33C3
:10086000B133E318DB681B0E9374002904D1C3680D
:1008700020242343C36003E003692024234303614E
:1008800010BD30B50246002093680124A406234021
:10089000A34200D110E093680124E4062340A34260
:1008A00001D1012008E09368012424072340A342DA
:1008B00001D1022000E0042004287BD0040113466B
:1008C000FF3381331B59DC07E40F05011346FF3367
:1008D00081335C510B7A002B0FD10B885B054C7A6E
:1008E000234305011446FF34813464592343050131
:1008F0001446FF348134635110E04B68DB000C7AFE
:1009000023434C7A234305011446FF348134645950
:10091000234305011446FF34813463518B7A1B074E
:100920001B0F8B7204011346FF338133E3185B689E
:100930001C09240105011346FF338133EB185C6069
:1009400004011346FF338133E3185B688C7A234339
:1009500005011446FF3481342C1963608B7B1B0620
:100960004C7B240423430C7B24022343CC7A234373
:1009700005011446FF3481342C19A3608B7C1B06BF
:100980004C7C240423430C7C24022343CC7B234350
:1009900005011446FF3481342C19E3600401134629
:1009A000FF3381331B590124234305011446FF34CF
:1009B0008134635130BD000010B502460023002988
:1009C00004D0012907D002290FD109E09068204CFA
:1009D000204003460BE090681E4C2040034606E092
:1009E00090681D4C2040034601E0002300BF00BF7B
:1009F0001A4C181BA3421BD008DC002B14D018483B
:100A00001818002812D002281CD115E0FF38FF3832
:100A10000238002812D0134C001900280AD00124F3
:100A20006404001B0ED10BE002230DE000230BE059
:100A3000002309E0002307E0012305E0012303E090
:100A4000012301E0002300BF00BFD8B210BD0000A9
:100A50000300000400030008000003100001000868
:100A6000FFFFFFFB0003FFF710B586B001AA0021CE
:100A70001548FFF783FE002413E003A80330005D50
:100A80001249134A1288885411480088401C1049A2
:100A9000088008460088FA2801D100200880601CE0
:100AA000C4B26846807BA042E7DC0A480078002890
:100AB00007D101218903084800F038FA05200549CB
:100AC000087006B010BD0000006400405C0E0020FD
:100AD000D8000020DF0000200004004870B5024666
:100AE0001548002321E00446C5172D0D2D192D03AF
:100AF0002B0E0405200C1478E5172D0F2D192D1140
:100B00005D406D000D4E755B68400446C5172D0DA8
:100B10002D192B130405200C14782407240F5C4096
:100B2000640035462C5B6040521C0C464D1EE9B2F9
:100B3000002CD8D170BD0000FFFF00003000002065
:100B4000F3B585B00F4600241020009000200190DE
:100B50000021684601724172877200BF06E0059865
:100B6000015D02A803300155601C84B2BC42F6DB73
:100B7000002469461F48FFF784FE064606E0601C15
:100B800084B269461B48FFF77CFE0646042E02D15C
:100B900019488442F3DB042E02D1012007B0F0BDD6
:100BA000002431461348FFF707FF054606E0601CA6
:100BB00084B231460F48FFF7FFFE0546012D02D0F3
:100BC0000D488442F3DB0C48844210DB022D04D133
:100BD00031460AA001F072F809E0002D07D1FFF7B5
:100BE00099FD31460EA001F069F80120D6E70020FA
:100BF000D4E7000000640040FF4F000063616E20F6
:100C00006D626F785B25645D2043414E5F5478537D
:100C100074617475735F50656E64696E670A000075
:100C200063616E206D626F785B25645D2043414E89
:100C30005F54785374617475735F4661696C656461
:100C40000A0000001CB501220921C80600F042F983
:100C500001220A210920C00600F03CF903204002CD
:100C600000900221684601710321417100218171C8
:100C7000C17169460920C00600F0E4F80122022192
:100C80000920C00600F026F9012203210920C00630
:100C900000F020F90C200090022168460171032128
:100CA000417100218171C17169460920C00600F0BF
:100CB000C9F801220421614800F00CF90122052144
:100CC0005E4800F007F9302000900221684601716B
:100CD0000321417100218171C1716946574800F0BB
:100CE000B1F8042200210920C00600F0F3F8042224
:100CF00001210920C00600F0EDF803200090022138
:100D0000684601710321417100218171C1716946F9
:100D10000920C00600F096F804220321484800F09C
:100D2000D9F804221146464800F0D4F81820009063
:100D30000221684601710321417100218171C17155
:100D400069463F4800F07EF8052204210920C006CC
:100D500000F0C0F8052211460920C00600F0BAF8DC
:100D60003020009002216846017103214171002169
:100D70008171C17169460920C00600F063F8012243
:100D800006212E4800F0A6F8012207212B4800F08A
:100D9000A1F8C02000900221684601710321417131
:100DA00000218171C1716946244800F04BF801228D
:100DB0000821224800F08EF8012209211F4800F086
:100DC00089F8032000020090022168460171032186
:100DD000417100218171C1716946184800F032F8F3
:100DE00004220B210920C00600F074F804220C2113
:100DF0000920C00600F06EF80320C0020090022116
:100E00006846017103214171002181710121C17185
:100E100069460920C00600F015F803204003009041
:100E20000121684601710321417100218171C17165
:100E30006946034800F006F81CBD000000080048A1
:100E400000040048F0B50A4600210023002400BF3A
:100E50003DE001258D402B4615681D402C469C42E7
:100E600034D11579012D02D01579022D16D185685E
:100E70004F000326BE40B543856055794E00B5400E
:100E8000866835438560858801268E40B543858018
:100E9000858896798E40B6B23543858005684F00C7
:100EA0000326BE40B543056015794E00B54006687F
:100EB00035430560C5684F000326BE40B543C56095
:100EC000D5794E00B540C6683543C560491C102928
:100ED000BFD3F0BDF0B5002300244D07EE0E15463C
:100EE000B5402B46CD10AE0005462035AD594E0716
:100EF000F70E0F26BE40B543CE10B600074620378A
:100F0000BD51CD10AE003D46AD591D432C46CD1010
:100F1000AD003E467451F0BD02460020138A0B40DE
:100F2000002B01D0012000E00020704701857047B0
:100F30008161704700BFFEE7704708B51121684620
:100F4000017001214170817000F02CF81221684677
:100F5000017001214170817000F024F81B21684666
:100F60000170022141700121817000F01BF81C21E9
:100F700068460170022141700121817000F012F871
:100F80001D2168460170022141700121817000F02D
:100F900009F81E216846017001214170817000F03E
:100FA00001F808BD00218278002A27D0184A0323BF
:100FB0001B02D21803789B109B00D158027892072D
:100FC000D30EFF229A400B4693431946427892076C
:100FD000120E03789B07DB0E9A4011430C4A032341
:100FE0001B02D21803789B109B00D1500278D306C5
:100FF000DB0E01229A40064B1A6007E00278D30606
:10100000DB0E01229A40024B80331A6070470000C9
:1010100000E100E010B5002819DA1A4A03071B0F97
:10102000083B9B089B00D2588307DC0EFF23A3409C
:101030009A438B071B0E8407E40EA3401A43114BFF
:101040000407240F083CA408A4001A5118E00E4A13
:1010500003231B02D21883089B00D2588307DC0E9F
:10106000FF23A3409A438B071B0E8407E40EA34083
:101070001A43054B032424021B198408A4001A51A7
:1010800010BD00001CED00E000E100E07047000032
:10109000002905D0054A52690243044B5A6104E015
:1010A000024A52698243014B5A6170470010024064
:1010B000002905D0054AD2690243044BDA6104E0F5
:1010C000024AD2698243014BDA6170470010024044
:1010D000002905D0054A12690243044B1A6104E055
:1010E000024A12698243014B1A61704700100240A4
:1010F000002905D0054A92690243044B9A6104E035
:10110000024A92698243014B9A6170470010024083
:1011100010B501212F204004FFF7BAFF01210F2055
:101120004004FFF7C5FF01210348FFF7E1FF01215C
:101130004806FFF7BDFF10BDE0400000FEB50446C5
:10114000002500260020029001900090002786488C
:1011500040680C2108400546002D06D0042D07D01C
:10116000082D08D00C2D2CD128E0804820602BE0E1
:101170007E48206028E07C4840680F2189040840B0
:101180000646794840680321C90308400290B00C24
:10119000861C0298002803D17548374647430BE068
:1011A0007148C06A0007000F401C01906F48019908
:1011B000FEF7BAFF70430746276005E06D482060E0
:1011C00002E06A48206000BF00BF67484068F02125
:1011D000084005462D096848405D00902068009948
:1011E000C840606060484068072109020840054621
:1011F0002D0A6148405D009061680098C140A1607F
:101200005948006BFF2101310840884202D05B48F9
:10121000E0600DE05448406801218903084088429D
:1012200003D0A0684008E06002E0A0688008E060A9
:101230004D48006B40210840402802D050482061B2
:1012400002E00120C00320614748006B10210840E4
:10125000102802D04548606101E020686061424882
:10126000006B8007800F002802D1A068A06119E000
:101270003D48006B8007800F012802D12068A061E3
:1012800010E03948006B8007800F022802D18003EC
:10129000A06107E03448006B8007800F032801D16C
:1012A0003248A0613048006B03210904084000283F
:1012B00002D1A068E06120E02B48006B0321090403
:1012C000084001210904884202D12068E06114E04D
:1012D0002548006B03210904084001214904884284
:1012E00002D18010E06108E01F48006B032109046F
:1012F0000840884201D11D48E0611B48006B032172
:1013000089040840002802D1A068206220E0164825
:10131000006B03218904084001218904884202D11D
:101320002068206214E01048006B03218904084003
:101330000121C904884202D10011206208E00A4854
:10134000006B032189040840884201D107482062CC
:101350000548006B80210840802802D00548606263
:1013600000E06762FEBD00000010024000127A003B
:1013700000093D00006CDC02E0000020809FD500E9
:10138000128000007047000030B500211A48445612
:10139000042C03DD0120184C207007E016480024BF
:1013A0000457012C02DA0420134C2070A5250846AE
:1013B000491C124C255485250846491C25540E48C5
:1013C00004780078401C40B20B4D2870E5B2084606
:1013D000491C0A4C25540023002204E00748805C85
:1013E000C018C3B2521C032AF8DB0846491C034C40
:1013F0002354204630BD000024000020250000209A
:101400000CB50020019000903148006801210904CA
:1014100008432F49086000BF2D4800680121490496
:10142000084000900198401C01900098002804D1C9
:101430000521090301988842EED125480068012161
:1014400049040840002802D00120009001E000205B
:1014500000900098012839D111201E4908601C48CD
:1014600040681B4948600846406848600846406834
:101470007F21C90388431649486008464068112106
:10148000090408431249486008460068012109061A
:1014900008430F49086000BF0D4800680121490654
:1014A00008400028F8D00A484068800880000849B1
:1014B000486008464068022108430549486000BF6B
:1014C000034840680C2108400828F9D10CBD0000F1
:1014D000001002400020024010B500F0AFF910BD2E
:1014E00010B51B48006801210843194908600846E7
:1014F000406818490840164948600846006816497F
:10150000084013490860084600680121890488439F
:101510000F490860084640683F21090488430C4988
:1015200048600846C06A00090001C8620846006BAE
:10153000FF2154318843064908630846406B400840
:101540004000486300208860FFF75AFF10BD00008C
:10155000001002400CB8FFF8FFFFF6FE10B501F0D6
:10156000A9FB10BD10B501F033FC10BDCA430282C7
:1015700070470000002904D0028801231A4302802A
:1015800003E00288014B1A4002807047FEFF000012
:1015900030B50246002000230024158A0D402B465A
:1015A00095890D402C46002B03D0002C01D0012042
:1015B00000E0002030BD002A03D083890B438381E3
:1015C00002E083898B4383817047000000220288F8
:1015D000154B984206D001239B07984202D0134B2B
:1015E000984203D1124B1A404B881A43114B984230
:1015F00003D0114B1A400B891A4302804B68C36217
:101600000B880385084B984208D00C4B984205D0B4
:101610000B4B984202D00B4B984201D18B7A038638
:101620000123838270470000002C01400004004029
:101630008FFF000000100040FFFC00000040014050
:10164000004401400048014010B51C4800780028C3
:1016500004D000F083F8002018490870184A19498E
:10166000194801F0DFFF052805D10522154801883A
:10167000154801F0D3FB154A1249134801F0D2FF77
:10168000052805D106220F4801880F4801F0C6FB46
:101690000F4A1049104801F0C5FF052804D10D4834
:1016A00001880D48FEF7F8FD0C480078072804D1A2
:1016B00000200A49087000F013F810BD290000202E
:1016C000001401402C0000204C02002000180140B2
:1016D000001C01402E000020B00200202A00002043
:1016E00010B58AB0012409E00E2060430B4941186F
:1016F0000820085EA10001AA5050641C082CF3DBEE
:1017000008A809AB06220121009001A800F016FFED
:10171000099800B2024908800AB010BDEA01002011
:10172000220000201CB501214804FFF7B1FCFF2076
:101730000130009001216846017100218171012171
:10174000C17169460920C006FFF77CFBFF2101310A
:101750000920C006FFF7EAFB1CBD000070B5FFF7CB
:1017600013FE0446FF2101310920C006FFF7E0FB0C
:10177000074A0421204601F069FF0546012001F0D7
:10178000B1FEFF2101310920C006FFF7CFFB70BD7C
:10179000001C014005480078002802D101200349BF
:1017A00008700720024908707047000029000020D7
:1017B0002A0000200EB501211020FFF779FC0B480C
:1017C00001902F21684601800021018141806946F6
:1017D0000748FFF7FBFE012211460548FFF7EBFE25
:1017E00001210348FFF7C6FE0EBD0000871300006D
:1017F000001000400EB501212020FFF759FC0D48D4
:1018000001902F21684601800021018141806946B5
:101810000948FFF7DBFE01210748FFF7A7FE012279
:1018200011460548FFF7C7FE01210348FFF7A2FE56
:101830000EBD0000E70300000014004002480068ED
:10184000401E014908607047500000200EB50CA2F0
:1018500007CA6B4607C30D4A0A21684601F0F6FE27
:101860000B4A0A21684601F0F1FE0A4A0A2168463D
:1018700001F0ECFE084A0A21684601F0E7FE0EBDC1
:101880000A240000000000000F7200000038014030
:101890000044004000480040004C0040F0B585B0D6
:1018A00004461546002004900027667820780A2810
:1018B00002D0002005B0F0BD0D2E01D00020F9E7C8
:1018C000A05D0702701C205C0743B01EC1B2A01CC3
:1018D000FFF704F904900498B84201D00020E9E72A
:1018E00061790902A279114308460A21FEF732FC08
:1018F00081B268460181E0790102207A014368469D
:101900008181617A8173A17AC173E07A0102207BBF
:10191000014368464181694688896421FEF71AFCC3
:101920000090FEF74FFC0D490190FEF757FC03D2E3
:101930000B4828800120BDE7684600892880288858
:101940000749884202DD7D208001288028881E28E2
:1019500001DA044828800120ACE7000000002C4296
:1019600088130000581B000010B5024800F06AF907
:1019700010BD00000038014010B5024800F062F9C7
:1019800010BD00000044004010B5094800F05AF9AD
:10199000084800F057F9084800F054F9074800F0EB
:1019A00051F9074800F04EF9064800F04BF910BD18
:1019B00000480040004C004000500040001401402E
:1019C00000180140001C014001627047002904D04A
:1019D000026801231A43026003E0026852085200C1
:1019E0000260704702460020D3690B40002B01D0F3
:1019F000012000E00020704770B502460B4600242D
:101A00000021002500201E04350ED9B201268E408B
:101A10003146012D02D11668314006E0022D02D177
:101A20005668314001E0966831401C0C0126A64002
:101A30003446D6693440002903D0002C01D001205F
:101A400000E0002070BDF8B5034600240026009693
:101A50000025002018460E04340ECEB20096012751
:101A6000009EB7403D46022C01D1001D02E0032C30
:101A700000D10830002A03D006682E43066002E039
:101A80000668AE430660F8BDF0B58BB004460D465F
:101A9000002700200A9000262068400840002060AF
:101AA000666803210903304688430646A868064352
:101AB000666026682D480640E96868680843296919
:101AC000084306432660A66803210902304688437E
:101AD000064668690643A6606846FFF72FFB244860
:101AE000844202D106980A900DE02248844202D135
:101AF00007980A9007E02048844202D108980A908B
:101B000001E002980A9020680121C90308400028DA
:101B10000CD029680A9A5000FEF706FB0746296890
:101B20000A9A5000FEF700FB0E4609E029680A9861
:101B3000FEF7FAFA074629680A98FEF7F5FA0E4604
:101B400028684008B04200D87F1C20680121C903E2
:101B50000840002806D03807460F38460749084095
:101B600030430746A7810BB0F0BD0000F3E9FFFF4B
:101B7000003801400044004000480040F0FF0000F1
:101B80000146888CC005C00D7047CA05D20D02857C
:101B90007047000070B500240AE0A300064DEA5823
:101BA000EC236343054D5919E0B200F009F8641CB9
:101BB000082CF2DB70BD0000B8000020FC060020FD
:101BC00070B505460C4616460020E070A081E08105
:101BD0000021E9200155C82120462030FEF7E7FA10
:101BE0000020A061E06120462030E061083860619B
:101BF0000021E82001550020206120716071A900BA
:101C0000044A505800220449FFF71DFF02202072A9
:101C100070BD0000B80000200701070008B5FFF7FD
:101C2000B9FF02220121054801F040FE0090022286
:101C30000A21034801F03AFE009008BDFD1C00088F
:101C4000D11D000870B50546284601F0C9FF0446BD
:101C500017492846FFF7D0FE002807D0EC20604344
:101C6000144A81182A46204600F0ECF8082128463C
:101C7000FFF7B8FE00280CD02846FFF781FF0821A7
:101C80002846FFF7A1FE0121EC206043094A801895
:101C9000C17009492846FFF7AFFE002807D0EC20A5
:101CA0006043044A81182A46204600F0FDF870BDC2
:101CB00005010500FC060020070107000FB410B560
:101CC00003A9044B044A029800F020F910BC08BC98
:101CD00004B01847052C00085400002002E008C892
:101CE000121F08C1002AFAD170477047002001E096
:101CF00001C1121F002AFBD17047000010B500245B
:101D00005DE0EC2060432F494018007900282FD077
:101D1000EC20604340180079401EC1B2EC206043C3
:101D2000284A80180171EC20604311464018007960
:101D300000281DD1EC2060434018E030407A012893
:101D400016D10021EC2060438018E0304172A100E0
:101D50001D4A505800221D49FFF775FE0021EC2056
:101D60006043184A80188181EC206043801801612B
:101D7000EC20604313494018407900281ED0EC2025
:101D8000604340184079401EC1B2EC2060430D4AC8
:101D900080184171EC2060431146401840790028BA
:101DA0000CD1EC2060434018E030007A012805D1C6
:101DB0000221EC2060438018E0300172641C082C82
:101DC0009FDB10BDFC060020B800002007010700C3
:101DD000002032E0EC214143194A8918C9780029D2
:101DE00012D00022EC214143154BC918E0310A7290
:101DF000EC214143C9184A71EC214143C918CA81F9
:101E0000EC214143C918CA70EC2141430C4A89189E
:101E1000E031097A02290FD1EC2141438918CA899E
:101E2000EC214143064BC91849690A800322EC2181
:101E30004143C918E0310A72401C0828CADB7047C8
:101E4000FC06002070B505460C461646E820005DED
:101E5000002803D0E820005D01281DD1E820005DA6
:101E6000002804D10121E82001550020E081A900CB
:101E70000C4A5058FFF784FE61694968E28988542A
:101E8000E089C82802D30020E08102E0E089401CFC
:101E9000E081207A607104E0A900024A5058FFF7FF
:101EA0006FFE70BDB800002070B505460C461646A2
:101EB000206900281ED0A0892169098888420EDA8D
:101EC00022695268A389D15CAA000E4B9858FFF78B
:101ED0005CFEA089401CA081207A207111E0A9003D
:101EE000084A505800220849FFF7ADFD0021E920BB
:101EF000015506E0A900034A505800220249FFF7A5
:101F0000A2FD70BDB800002007010700FFB58FB02B
:101F10000546002606E025280AD0129A1199904716
:101F20006D1C761C28780028F5D1304613B0F0BD22
:101F3000002402940121B54A009400E004436D1C82
:101F40002B780846203B98401042F7D128782A2861
:101F50000ED00222287801463039092916D8029974
:101F60000A2359433039401814436D1C0290F1E79D
:101F7000109802C802911090002904DA0120400351
:101F8000044348420290022004436D1C28782E2806
:101F900017D10420044368786D1C2A280CD11098AE
:101FA0006D1C02C8009110900BE000990A22514369
:101FB000303940186D1C00902878014630390929C5
:101FC000F3D928786C2810D006DC4C281AD0682861
:101FD0000ED06A2817D104E0742813D07A2812D1C1
:101FE00010E00120400504430CE00121090501E057
:101FF000032109050C436978814203D101200005C2
:1020000024186D1C6D1C2878692874D006DC002803
:102010008BD0632827D0642806D16CE06E2808D0C6
:1020200073282CD0752878D0129A11999047761C75
:102030005FE06002400F022809D003280DD0042879
:10204000109801680DD00E60001D109051E010989E
:10205000F21701680E604A60F6E7109801680E807A
:10206000F2E70E70F0E710986A4601781173001DD0
:1020700010900020507303A80190012005E01098F3
:1020800002C8019110900020C04361070CD50027C1
:1020900000E07F1C00998F420FDA8742F9DB01993B
:1020A000C95D0029F5D108E0002700E07F1C8742C8
:1020B000FCDB0199C95D0029F8D102982146C01BBB
:1020C0000290129B119A00F0B3F88019C61907E02C
:1020D000019801990078491C0191129A1199904731
:1020E0007F1EF5D22146129B119A029800F090F8BB
:1020F00086196D1C16E70A200190109901C91091EC
:102100006102490F032900D100B2042900D140B275
:10211000002803DA40422D2103E00DE0210504D51B
:102120002B216A461173012103E0E10711D0202120
:10213000F7E70CAF0C9114E00A200190109901C947
:1021400010916102490F032900D180B2042900D106
:10215000C0B20021EDE70199FDF7E6FF30317F1EA7
:1021600039700028F7D104A8C01B20300190600707
:1021700004D5012000048443009801E00120009070
:102180000199884201DD401A00E0002041180090CA
:102190000C9809180298401A0290E00306D42146D0
:1021A000129B119A029800F043F8861900200D90B6
:1021B00008E003A9085C129A119990470D98401CF9
:1021C000761C0D900C998842F3DBE0030CD5214678
:1021D000129B119A029800F02BF8861904E0129ACB
:1021E000302011999047761C0099481E00900029D4
:1021F000F5DC05E03878129A7F1C11999047761C1F
:102200000199481E01900029F4DC6BE709280100C0
:10221000F8B5044600251E461746880404D405E098
:1022200039462020B0476D1C641EF9D52846F8BDFC
:10223000FFB50446002581B01E46C80301D53027EE
:1022400000E02027880404D505E038460399B0470C
:102250006D1C641EF9D5284605B0F0BD10B52B489D
:1022600001882B484171090A81712848C188284892
:10227000C172090A01732548818825484172090AFB
:102280008172224841882248C171090A017221489D
:10229000008981B21E48C175090A01761D480E30B9
:1022A000008981B21A484176090A81761948463870
:1022B000C08A81B21648C173090A017415484638AC
:1022C000808C81B212484174090A817411484638E1
:1022D000408E81B20E48C174090A01750D480E384E
:1022E000008981B20A484175090A81750A48008847
:1022F00081B207484173090A81738178C01CFEF7D7
:10230000EDFB0349C876000A087710BD0E000020D7
:10231000CC010020300200202200002070B5064CC5
:10232000FFF79CFF20468078801DC1B22046FEF753
:1023300099F80546284670BDCC010020EB200449E1
:102340000870BE20487718208870122048707047A7
:10235000CC01002008B5FFF779FA022205490648AA
:1023600001F08EF9009002226421044801F088F9FE
:10237000009008BD30750000292C0008792F000856
:1023800070B5002500231A4629492A4801F00CFBA4
:102390000546002D04D00025C8212648FDF707FF7B
:1023A000032301222249234801F0FEFA0546002DAD
:1023B00004D00025C8211F48FDF7F9FE01230222A1
:1023C0001B491C4801F0F0FA0546002D04D00025F9
:1023D000C8211848FDF7EBFE0223032214491548D3
:1023E00001F0E2FA0546002D04D00025C82111486D
:1023F000FDF7DDFE10480078002804D000200E49CB
:102400000870FFF723FA00240EE00C48005D002856
:1024100009D160000A49085A0A49884203D008468F
:102420006100074A5052641C042CEEDB70BD0000B2
:1024300000000020040100201600002017000020EA
:102440000E0000208813000008B5012149030D4843
:10245000FEF76CFD012189030A48FEF769FD0020A3
:1024600009490870052009490870002008490870CA
:102470000849087002226421074801F001F9009020
:1024800008BD000000040048DC000020DD00002042
:10249000DF000020DE000020E12E000810B5144807
:1024A0000078002807D00020114908700121890315
:1024B0001048FEF73DFD10480078002817D0002096
:1024C0000D49087005200D4908700121490309488C
:1024D000FEF722FD002805D0012149030548FEF73B
:1024E00025FD04E0012149030248FEF721FD10BD4E
:1024F000DE00002000040048DC000020DD00002099
:1025000008B502221E21044801F0D0F90090A6204F
:102510000249088008BD0000ED2B000820000020C3
:1025200010B505480088002804D101200249088020
:10253000FFF7F4FE10BD000020000020F0B586B0CB
:1025400005460C4616461F46301B012816DCB00017
:102550002858A1006958884207DDB0002858386023
:10256000A00029580B98016006E0A00028583860A8
:10257000B00029580B98016006B0F0BD03A8009088
:10258000301BC10F019008184010021905AB2146FD
:102590002846FFF7D3FF02A80090301BC20F01901E
:1025A000101840100019411C04AB32462846FFF7B2
:1025B000C5FF04990598884201DD059800E004985C
:1025C000386002990398884201DD029900E003997E
:1025D0000B98016000BFCFE7F8B505460E461746D9
:1025E00000240FE0A0002858A100094A5050A00084
:1025F0003058A100074A5050A0003858A100064AA0
:102600005050641C022CEDD3FFF7D4F80120F8BD24
:10261000940000209C000020A400002070B5054616
:102620000C460448056004480460FFF7E3F8012005
:1026300070BD0000AC000020B000002010B50446C2
:10264000204600F001F810BD70B5064670880A28D3
:1026500011DA7088C007C00F002806D001247188E5
:10266000481EC10F09184D1007E000247088C10FE3
:1026700009184D1001E0002070BD3088012804D0F9
:10268000022832D003287DD15FE0642060434A49AC
:10269000411814206843085C002823D000F0CEFACB
:1026A000002164206043444A821814206843115476
:1026B00064206043404A82181420684310188160E7
:1026C000642060433C4A821814206843101801615A
:1026D00060003A49085A401E6100384A505200F0E2
:1026E000B5FA01E00020C7E763E0642060433449A5
:1026F000411814206843085C002823D000F09EFA9B
:102700000021642060432E4A82181420684311542B
:10271000642060432A4A821814206843101881609C
:1027200064206043264A821814206843101801610F
:1027300060002449085A401E6100224A505200F0AD
:1027400085FA01E0002097E733E0642060431E49EA
:10275000411814206843085C002825D000F06EFA68
:10276000002164206043184A8218142068431154E1
:1027700064206043144A8218142068431018816052
:10278000642000E013E060430F4A8218142068437D
:102790001018016160000D49085A401E61000B4A83
:1027A000505200F053FA01E0002065E701E00020FC
:1027B00062E700BF01205FE7A4040020640000205E
:1027C0006C05002068000020340600206C0000200A
:1027D00010B50446204601F027F8032801D1012056
:1027E00010BD0020FCE7000070B500F037FA0024AF
:1027F00045E0002061007C4A505200253CE0002169
:1028000064206043794A821814206843115464207C
:102810006043764A8218142068431018417064207F
:102820006043724A82181420684310188160642043
:1028300060436E4A8218142068431018C1606420F7
:1028400060436A4A8218142068431018016101210C
:1028500064206043654A8218142068431018418040
:102860006800001981B264206043604A8218142015
:102870006843101881806D1C052DC0D3641C022C88
:10288000B7D3002445E000206100594A505200258A
:102890003CE0002164206043564A821814206843BB
:1028A000115464206043534A82181420684310185E
:1028B0004170642060434F4A821814206843101806
:1028C0008160642060434B4A8218142068431018CA
:1028D000C16064206043474A82181420684310187E
:1028E0000161022164206043424A82181420684337
:1028F000101841806800001981B2642060433D4A8D
:10290000821814206843101881806D1C052DC0D3D7
:10291000641C022CB7D3002445E000206100364A35
:10292000505200253CE0002164206043334A821865
:1029300014206843115464206043304A82181420E4
:10294000684310184170642060432C4A8218142098
:1029500068431018816064206043284A821814205C
:1029600068431018C16064206043244A8218142010
:102970006843101801610321642060431F4A8218D4
:1029800014206843101841806800001981B2642047
:1029900060431A4A821814206843101881806D1C05
:1029A000052DC0D3641C022CB7D315481549086007
:1029B000154848601548164908601648486016488A
:1029C00016490860164848600A4611490D48FFF745
:1029D00003FE002803D000F039F9012070BD00F09B
:1029E0002DF90020FAE7000064000020A404002074
:1029F000680000206C0500206C00002034060020D8
:102A0000C12F00087000002061300008313200083A
:102A100078000020D1320008F93000088000002042
:102A20009931000810B5044660880A2801DB0020AF
:102A300010BD2088002802D001284CD125E06088F4
:102A4000142148432649085C00281BD000F0A2F955
:102A50000021608814225043214A115460881422B6
:102A600050431F4A801881606088142250431C4ADA
:102A7000801801611B480088401E1A49088000F038
:102A800091F901E00020D3E727E060881421484352
:102A90001549085C00281BD000F07CF900216088F3
:102AA00014225043104A11546088142250430E4A95
:102AB000801881606088142250430B4A801801619D
:102AC0000A480088401E0949088000F06BF901E0BF
:102AD0000020ADE701E00020AAE700BF0120A7E742
:102AE0001403002058000020DC0300205A000020BE
:102AF00010B500F05FF900202E4908802E490880AB
:102B000000241DE00021142060432C4A115414209D
:102B10006043801841701420604380188160142045
:102B200060438018C1601420604380180161142044
:102B30006043801841801420604380188480641CA6
:102B40000A2CDFD300241DE00021142060431C4A1E
:102B50001154142060438018417014206043801881
:102B60008160142060438018C16014206043801885
:102B70000161142060438018418014206043801854
:102B80008480641C0A2CDFD30E480F4908600F486C
:102B90000F490860084601680B480068FFF73EFDD2
:102BA000002803D000F0FEF8012010BD00F0F2F87C
:102BB0000020FAE7580000205A00002014030020EB
:102BC000DC030020453400085C000020A533000829
:102BD0006000002010B50446204600F0C7FE032820
:102BE00001D1012010BD0020FCE70000044800884E
:102BF000002804D002480088401E01490880704720
:102C00002000002070B504460D4600BF4021054855
:102C1000FEF7E8FE0028F9D0E1B20248FEF7B5FF62
:102C2000204670BD0050004003480078002802D1C3
:102C300001200149087070471600002010B50021DE
:102C40000148FEF797FC10BD0010004010B50121AF
:102C50000148FEF78FFC10BD0010004001210D4A15
:102C600011800D4A11800D4A118000210C4A1180FB
:102C70000C4A118000200AE0002182000A4B995082
:102C800082000A4B99508200094B9950401C02283F
:102C9000F2D370478C0000208E00002090000020AE
:102CA000880000208A000020940000209C00002062
:102CB000A400002010B501212D48FEF769FC002872
:102CC00054D02C480088401C2A4908802A48008893
:102CD000401C294908802948008880002849085854
:102CE00000280BD0254909888900254A505880477B
:102CF0002248018801208843204908801D48008817
:102D00000A2815DB1F48008880001F490858002842
:102D100005D01C49098889001B4A5058804700206B
:102D20001449088017480188012088431549088004
:102D300011480088642815DB144800888000144975
:102D40000858002805D0114909888900104A5058B0
:102D500080470020084908800C48018801208843EA
:102D60000A49088001210248FEF700FC10BD00005E
:102D700000100040880000208A0000208C00002005
:102D8000940000208E0000209C0000209000002075
:102D9000A400002010B500210148FEF7EBFB10BD98
:102DA0000014004010B501210148FEF7E3FB10BDFF
:102DB00000140040002003490860034908600349EB
:102DC00008807047AC000020B0000020B400002054
:102DD00010B501210D48FEF7DBFB002815D00C488B
:102DE0000088401C0A4908800A4800688047084853
:102DF00000880A2805DB084800688047002004494D
:102E0000088001210148FEF7B1FB10BD001400400D
:102E1000B4000020AC000020B0000020F8B504464B
:102E20001646E07804280BDC0027002504E0605DEE
:102E3000C019C7B2681CC5B2E078001DA842F6DC14
:102E4000605DB84249D1052E21D10A212348817005
:102E50002179017161794171A1798171E179C17142
:102E6000217909026279114308460A21FDF772F9B6
:102E700001B21A480181A1790902E2791143084699
:102E80000A21FDF767F901B21448418125E0062EB9
:102E900023D10A2111480E308170217901716179A5
:102EA0004171A1798171E179C17121790902627958
:102EB000114308460A21FDF74DF901B207480E30CB
:102EC0000181A1790902E279114308460A21FDF73F
:102ED00041F901B201480E304181F8BD30020020B5
:102EE0001048007800280BD00E480078401E0D498D
:102EF000087008460078002802D101200A490870AD
:102F00000A48007800280BD008480078401E07497E
:102F1000087008460078002802D101200449087092
:102F200070470000DD000020DC000020DF000020F2
:102F3000DE00002008B5FDF75FFA322000F014FA39
:102F4000FEF7F0FBFFF706FAFFF7F8F9FFF7D8FAFC
:102F5000FFF77AFA02223221064800F0A7FC00901F
:102F600007E0FFF70DFAFFF7DBFAFFF797FAFEF736
:102F70006BFBF6E79517000800200FE00949095C94
:102F800000290AD00749095C491E064A1154114616
:102F9000095C002901D1044A1154401C0428EDDBCE
:102FA000704700001B0000201700002010B5FEF73E
:102FB00035FE10BD10B5FFF7F9FF10BD70470000DA
:102FC00010B5002446E0142060432449085C012821
:102FD0003FD1142060434018C068401E1421614353
:102FE0001E4A8918C8601420604311464018C06802
:102FF00000282ED1142161438918086980471420C4
:103000006043164940184078022809D114206043D3
:103010004018816814206043104A8018C16018E08D
:10302000142060430D4940184078012805D1002143
:1030300014206043094A11540BE0142060430749EF
:1030400040184078032804D1032114206043034A28
:103050001154641C052CB6D310BD0000A40400203C
:1030600010B5002443E0142060432249085C012885
:103070003CD1142060434018C068401E14216143B5
:103080001C4A8918C8601420604311464018C06863
:1030900000282BD114216143891808698047142026
:1030A0006043144940184078022808D11420604336
:1030B00040188268142060434018C26016E0142053
:1030C00060430C4940184078012804D100221420A4
:1030D00060430A540AE014206043064940184078CF
:1030E000032803D10322142060430A54641C052CD6
:1030F000B9D310BD0805002010B5002446E0142007
:1031000060432449085C01283FD1142060434018E3
:10311000C068401E142161431E4A8918C8601420EB
:10312000604311464018C06800282ED11421614325
:103130008918086980471420604316494018407870
:10314000022809D11420604340188168142060438C
:10315000104A8018C16018E0142060430D494018DF
:103160004078012805D1002114206043094A1154F8
:103170000BE014206043074940184078032804D12D
:10318000032114206043034A1154641C052CB6D358
:1031900010BD00003406002010B5002443E01420C8
:1031A00060432249085C01283CD114206043401848
:1031B000C068401E142161431C4A8918C86014204D
:1031C000604311464018C06800282BD11421614388
:1031D00089180869804714206043144940184078D2
:1031E000022808D1142060434018826814206043EC
:1031F0004018C26016E0142060430C494018407823
:10320000012804D10022142060430A540AE014204B
:103210006043064940184078032803D10322142054
:1032200060430A54641C052CB9D310BD98060020D5
:1032300010B5002446E0142060432449085C0128AE
:103240003FD1142060434018C068401E14216143E0
:103250001E4A8918C8601420604311464018C0688F
:1032600000282ED114216143891808698047142051
:103270006043164940184078022809D11420604361
:103280004018816814206043104A8018C16018E01B
:10329000142060430D4940184078012805D10021D1
:1032A00014206043094A11540BE01420604307497D
:1032B00040184078032804D1032114206043034AB6
:1032C0001154641C052CB6D310BD00006C05002001
:1032D00010B5002443E0142060432249085C012813
:1032E0003CD1142060434018C068401E1421614343
:1032F0001C4A8918C8601420604311464018C068F1
:1033000000282BD1142161438918086980471420B3
:103310006043144940184078022808D114206043C3
:1033200040188268142060434018C26016E01420E0
:1033300060430C4940184078012804D10022142031
:1033400060430A540AE0142060430649401840785C
:10335000032803D10322142060430A54641C052C63
:10336000B9D310BDD00500201CB5044664204443E9
:1033700003222146094800F083F90090684601883D
:1033800081804188C18000BF01A8FFF721FA002891
:10339000FAD001A8FFF752F91CBD0000BD2F0008AC
:1033A0007047000010B5002447E014206043244912
:1033B000085C01283FD1142060434018C068401EBB
:1033C000142161431E4A8918C860142060431146C5
:1033D0004018C06800282ED114216143891808695B
:1033E000804714206043164940184078022809D1CC
:1033F000142060434018816814206043104A8018EC
:10340000C16018E0142060430D494018407801283D
:1034100005D1002114206043094A11540BE0142007
:103420006043074940184078032804D10321142041
:103430006043034A1154601CC4B20A2CB5DB10BDB2
:10344000DC03002010B5002447E014206043244929
:10345000085C01283FD1142060434018C068401E1A
:10346000142161431E4A8918C86014206043114624
:103470004018C06800282ED11421614389180869BA
:10348000804714206043164940184078022809D12B
:10349000142060434018816814206043104A80184B
:1034A000C16018E0142060430D494018407801289D
:1034B00005D1002114206043094A11540BE0142067
:1034C0006043074940184078032804D103211420A1
:1034D0006043034A1154601CC4B20A2CB5DB10BD12
:1034E000140300201CB504460A2C13D203222146E3
:1034F000094800F0DBF90090684601888180418826
:10350000C18000BF01A8FFF765FB0028FAD001A821
:10351000FFF788FA1CBD0000A1330008F8B5054686
:103520000C46164600200090002D37D0EC2060435A
:103530001D494018E030407A00282CD1EC2060432F
:103540004018E030007A032822D1EC206043401874
:10355000406900882880EC2363430F46DB195B69D0
:103560001A88EC236343DB195B6959686868FCF7C8
:1035700005FE0021EC2060433A4680184069018036
:10358000EC2060438018E03001720520009007E0D5
:103590000420009004E00220009001E0012000904F
:1035A00068460078F8BD0000FC06002070B50546AE
:1035B0000C46164600BF3146204600F061FA00284E
:1035C000F9D1002D26D02888002823DDEC20604387
:1035D00011494018017AEC2060430F4A80180171AC
:1035E000EC2060431146401805610021EC20604347
:1035F00080188181A100094A505801220849FEF72C
:1036000022FA0121EC206043034A8018E030417225
:10361000052070BD0120FCE7FC060020B80000205A
:1036200007010700FEB504460D46164602943046D3
:1036300000F0D6FA0090324601A80099FFF76EFF1D
:1036400007466846808828803846FEBDFEB5054698
:103650000E461446684686800295204600F0C0FA61
:103660000090224601A80099FFF7A0FF074600BF7F
:103670002146009800F004FA0028F9D13846FEBD32
:10368000F7B586B00E460A213046FCF74DFD049191
:103690000498002801D10A2E00D2ADE0642E26D273
:1036A0005B4800885A494988884205D158480088B3
:1036B000052801DA002410E055480088544949885B
:1036C000884201DD012408E05148008850494988BA
:1036D000884201DA002400E08EE060004C49401886
:1036E0000290642060434B494518012750E07D203B
:1036F000C000864226D24848008847494988884207
:1037000005D145480088052801DA002410E0424828
:10371000008841494988884201DD012408E03E488B
:1037200000883D494988884201DA002400E063E0CE
:1037300060003949401802906420604337494518B9
:103740000A2725E03648008835494988884205D14E
:1037500033480088052801DA002410E0304800884A
:103760002F494988884201DD012408E02C4800885F
:103770002B494988884201DA002400E03CE06000DF
:103780002749401802906420604326494518642761
:10379000002003902CE02878002825D1FFF74EFA6E
:1037A00001202870089868700A2078430146304646
:1037B000FCF7BAFCA8600A20784301463046FCF7C3
:1037C000B3FCE8600698286102980088401C81B22A
:1037D00002980180FFF73AFA698868468180A988D3
:1037E000C180019809B0F0BD14350398401C0390C6
:1037F00003980528CFD300BF0021C94368468182C2
:10380000C182818A0180C18A41800098EAE7000074
:1038100064000020A4040020680000206C05002043
:103820006C0000203406002010B5014648880A28A4
:1038300011DA4888C007C00F002806D001224C8842
:10384000601EC40F2418631007E000224888C40FCC
:103850002418631001E0042010BD0888012804D05A
:1038600002280AD0032818D10FE0642050430C4CE2
:10387000041914205843205CEEE764205043094C9F
:10388000041914205843205CE6E764205043064C9A
:10389000041914205843205CDEE70420DCE7000014
:1038A000A40400206C05002034060020F7B584B085
:1038B0000D46002D03D07D20C000854200D341E09D
:1038C000264800880A2800DD3CE00A2D06D90A2196
:1038D0002846FCF729FC002900D033E00A2D04D249
:1038E0001E4E1F4C0120029003E01E4E1E4C0A206B
:1038F0000290002723E0207800281ED1FFF74AFA23
:10390000012020700698607028460299FCF70CFC94
:10391000A06028460299FCF707FCE060049820614B
:103920003088401C3080FFF73DFA6188684681800E
:10393000A188C180019807B0F0BD14347F1C0A2F04
:10394000D9D300BF0021C94368468181C1818189E3
:103950000180C18941800098EDE7000058000020F7
:10396000140300205A000020DC0300200146488890
:103970000A2801DB042070470888002802D00128AB
:103980000CD105E0488814225043054A105CF2E748
:10399000488814225043034A105CECE70420EAE70D
:1039A00014030020DC030020FFB583B00E46174649
:1039B0001C460020029001906000294940182949C6
:1039C000095D49004518B80027490A58314603984F
:1039D000FFF728FE05283FD1012002906000204B10
:1039E000C018204B1B5D5B00C21831880398FDF79F
:1039F00055FF002801D001200190019800282BD00C
:103A000001201A49085504201949085528886100E1
:103A1000184A515A884209DB28881749884207DA30
:103A200028886100515A401A288001E0002028802F
:103A30000C48005D401C0B4908550846005D0128F4
:103A40000AD1002008556100054A8818012100F0BC
:103A500071F86100094A5052029807B0F0BD0000A9
:103A6000020000200A000020B800002017000020FB
:103A70001B000020583C0008881300000E000020A6
:103A800070B504460D46A100094A50580949FDF792
:103A9000B3FF012807D0EC20604307494018E0300D
:103AA000407A012801D1012070BD0020FCE7000010
:103AB000B800002007010700FC06002010B586B002
:103AC0000024E12040020090002001900290039029
:103AD00005900C20049000BF21E0A100124A50582C
:103AE0006946FDF7D1FFA1000F4A505801220F4946
:103AF000FDF7A9FFA1000C4A505800220C49FDF720
:103B0000A2FFA100084A50580121FDF75FFFA10064
:103B1000054A50582021FDF757FF601CC4B2082CFD
:103B2000DBDB06B010BD0000B80000200501050079
:103B300007010700F0B585B004460E46002001904D
:103B400020880090002533E06800215A0198081869
:103B500080B20190002D05D12788039701200490A1
:103B6000029024E06800205AB84204DD6800275A19
:103B70000120049007E06800205AB84203D104985D
:103B8000401C80B204906800215A0398814205DAF3
:103B90006800205A03900120039008E06800215A31
:103BA0000398814203D10298401C80B202906D1CA0
:103BB000B542C9DB032E06DC31460198FCF7CAFA90
:103BC00080B2009008E0B11E019AD31B039A981AA4
:103BD000FCF7C0FA80B20090009805B0F0BD00007C
:103BE00001461548814201D10020704713488142A7
:103BF00001D10120F9E71248814201D10220F4E706
:103C00001048814201D10320EFE70F48814201D1E2
:103C10000420EAE70D48814201D10520E5E70C4880
:103C2000814201D10620E0E70A48814201D1072004
:103C3000DBE7FF20D9E700000038014000440040E6
:103C400000480040004C004000500040001401407B
:103C500000180140001C01404100410041004100AA
:103C6000803C00080000002004010000DC1C00086B
:103C7000843D00080401002054120000EC1C0008E0
:103C80000000000000000000000000000000000034
:103C90000000000000000000000000000000000024
:103CA0000000000001000000000000000000000013
:103CB00000002110422063308440A550C660E770A8
:103CC000088129914AA16BB18CC1ADD1CEE1EFF150
:103CD000FFFFFFFF000000000000000000000000E8
:103CE00000000000000000000000000000000000D4
:103CF00000000000000000000000000000000000C4
:103D000000000000000000000000000000000000B3
:103D100000000000000000000000000000000000A3
:103D20000000000000000000000000000000000093
:103D30000000000000000000003801400044004086
:103D400000480040004C004000500040001401407A
:103D500000180140001C01400000000000000000AD
:103D60000000000001020304010203040607080921
:103D7000006CDC02000000000000000001020304EF
:043D80000607080921
:04000005080000BD32
:00000001FF
