:020000040800F2
:1000000010080020D5000008190D0008B90C0008E0
:1000100000000000000000000000000000000000E0
:1000200000000000000000000000000001110008B6
:1000300000000000000000006D0D00080511000820
:100040000501000805010008050100080501000878
:100050000501000805010008050100080501000868
:100060000501000805010008050100080501000858
:100070000501000805010008050100080501000848
:100080000501000800000000000000000501000854
:100090000000000005010008050100080501000836
:1000A0000000000005010008050100080501000826
:1000B0000501000800000000210A000805010008F1
:1000C0000348854600F076F900480047D91A000831
:1000D000100800200C4880F308880C480168090EBD
:1000E0000B4A914205D10B480B4901600B480C4962
:1000F00001600C4880470C480047FEE7FEE7FEE73A
:10010000FEE7FEE7FEE70000100800200400000004
:100110001F00000018100240010000000000014014
:100120000000000061110008C100000830B50B4656
:10013000014600202022012409E00D46D5409D42C1
:1001400005D31D469540491B254695404019154647
:10015000521E002DF1DC30BD03460B439B0703D03C
:1001600009E008C9121F08C0042AFAD203E00B787C
:100170000370401C491C521EF9D27047D2B201E0F4
:100180000270401C491EFBD270470022F6E710B5F2
:1001900013460A4604461946FFF7F0FF204610BDF5
:1001A0000321001D401E037812021A43491EF9D58F
:1001B00010467047034603220870000A491C521E6D
:1001C000FAD518467047F8B502464A40D40F4200A7
:1001D0004B0052085B089A4202D20246084611467A
:1001E0004A0023D0C30D4A00DDB2120EAD1A202DF5
:1001F00035DA49020126490AF6058A19002C00D091
:10020000524220214F1B1146B9402A411018C20DFD
:100210009A4221D0002C17D0012D08DCDA05801A73
:10022000D20F8019D207DBB200F08BF8F8BDDA05E7
:10023000801A012340001B06C01880185A428018FB
:10024000CA0F1043490007E04908C2071143DA0505
:10025000801A80194008801800F06BF8F8BD610022
:100260000122511A001BF7E70122D2075140AAE7E9
:100270000122D2075040A6E770B502464A40D50F8A
:1002800040004A00ED0740085208002814D0002A18
:1002900012D0C40DD30D41020120C0055202490AFB
:1002A000520AE41A091812187D34914201D3641CD1
:1002B00000E04900002C01DA002070BD00239142CB
:1002C00001D3891A0343400849000028F7D10029C7
:1002D0000AD0914202D10121C90705E0914201D221
:1002E000012101E00121C943E005C018401900F0D7
:1002F00020F870BDC217C10F504010B54018CA0792
:100300009623002100F01DF810BD4100400201229B
:10031000400AD205090E80187F2901DA00207047B3
:10032000962903DC9622511AC840704796398840B6
:100330007047002904DA401C490001D14008400000
:10034000704770B40024050C05D11024000402D1BC
:10035000002921D01124050E01D100020834050F17
:1003600001D10001241D850F01D18000A41C0028AB
:1003700001DB4000641C002908D020252E1B0D46FF
:10038000F540A14000D001212943084301061B1B71
:10039000000ADB1D02D5002070BC7047DB05181871
:1003A00080180029F8DA401C4900F5D170BC4008DB
:1003B00040007047064C0125064E05E0E36807CC77
:1003C0002B430C3C98471034B442F7D3FFF77CFE24
:1003D000F41F00081420000830B5324D93B02846B1
:1003E00000F088F80121304800F0C2FC01214802E9
:1003F00000F0E2FC112006900320694608770024F3
:10040000CC7706A9680400F00BFC684600F0C3F83E
:10041000694600940C71029404942846059400F0F7
:100420009FF807220121284600F044F807221021F6
:10043000284600F03FF8284600F06CF802212846D4
:1004400000F050F80121284600F042F8012128462A
:1004500000F035F80121284600F073F80028F9D0A3
:10046000124D284600F05EFB0E480A94403008907A
:100470000F48099014200B9080200D9040000E90A2
:1004800080000F90202010900C940002119008A979
:100490001294284600F0A6FB0121284600F036FB06
:1004A00013B030BD002401400100020008000240EA
:1004B0009E010020836A0B438362426170470029DA
:1004C000816801D0012200E002221143816070475F
:1004D0000029C16802D00122114301E04908490006
:1004E000C1607047C26802239A43C260C2680A436F
:1004F000C2607047064910B5884208D144150121F1
:10050000204600F065FC0021204600F061FC10BD93
:1005100000240140826800210123DB071A43826026
:100520000F231B038268491CD20FD207994201D0C6
:10053000002AF7D18168002901DB006C7047002098
:10054000704702460020CB0104D5926801231B06A8
:100550009A4300E012680A4200D001207047000070
:1005600030B5C268084B8C681A400B680D7923437C
:10057000CC686D032C4323430C69496923430B4327
:100580001343C36030BD000003D2FFFF8168042223
:100590001143816070470021016001718160C16079
:1005A0000161416170470000074906484A88805C44
:1005B0004A88521C4A804A88FE2A01D100224A8079
:1005C00070470000A000002024000020044801889B
:1005D0004088814201D1002070470120704700000F
:1005E00024000020F8B5CF080E460546002409E097
:1005F0000821284600F048FA0948083501F030FA89
:10060000641CE4B2BC42F3D3700707D07107490FF2
:10061000284600F039FA024801F022FA0020F8BD1D
:10062000E703000010B501214C06204600F0B8FB9E
:100630000021204600F0B4FB10BD000070B5044658
:10064000817A012005462B4E8D403168014331608F
:10065000F069A843F061207B002812D1F068A8431C
:10066000F060E088618800040843A17AC900891914
:100670000864A088218800040843A17AC900891968
:100680004864207B012814D1F0682843F06020469C
:10069000FFF786FD1021C841A17AC90089190864B5
:1006A000201DFFF77DFD1021C841A17AC9008919DD
:1006B0004864E07A0028706805D02843706020897B
:1006C000002802D004E0A843F8E77069A8437061ED
:1006D0002089012802D1706928437061607B01285C
:1006E00002D1F0692843F061306840084000306072
:1006F00070BD000000660040002A426901D00A4334
:1007000000E08A434261704710B50368002202246A
:10071000A34303600368012423430360314B00E0DB
:10072000521C4468E40701D19A42F9D14268D207C9
:100730003ED08C798022012C04683BD09443046025
:10074000CC794022012C046836D0944304600C7AA2
:100750002022012C046831D0944304604C7A10228A
:10076000012C04682CD0944304608C7A0822012C5C
:10077000046827D094430460CC7A0422012C0468D6
:1007800022D0944304608A78CC78920724062243CE
:100790000C79240422434C79098824052243491EFC
:1007A0000A43C261016849084900016000210EE066
:1007B000002010BD1443C2E71443C7E71443CCE73D
:1007C0001443D1E71443D6E71443DBE7491C4268DE
:1007D000D20701D09942F9D14068C007E8D1012081
:1007E00010BD0000FFFFFF00F1B501218AB04804F1
:1007F00000F0BEFA0121480600F0C6FA022669465A
:100800000E74002403208C74C00203900125CD7463
:10081000032048740927FF0603A9384600F000FAB0
:1008200004220B21384600F033FA04220C2138460A
:1008300000F02EFA194F3846FFF7F4FE69468C7126
:10084000CC7102940A988870CC70072008714E71A0
:10085000082008803846FFF757FF08A98C70CD7034
:100860000D71FF20A130694608834C838C83CC83B3
:100870000C8408A94D7106A8FFF7E0FE1E2069460A
:1008800008754E758D7505A800F048FA0122022101
:100890003846FFF731FF00200BB0F0BD0064004088
:1008A0000B0130B51B18FF3381331C6B04252C4022
:1008B00014721C6B29D0E40854601C6B02252C4078
:1008C00054725C6B2407240F94725C6B240AD474FA
:1008D0009C6BD4729C6B240A14739C6B240C547311
:1008E0009C6B240E9473DC6BD473DC6B240A14743D
:1008F000DC6B240C5474DB6B1B0E937420220029D8
:1009000006D001691143016130BD640D1460D4E764
:10091000C1681143C16030BD30B502469368002004
:100920005B0108D49068000101D5012003E09068C4
:10093000C0002ED5022003019A18FF3281321368BD
:10094000DB07DB0F13600B7A002B24D014684D6893
:100950001C434B7AED002B431C4314608B7A1B071E
:100960001B0F8B7253681B091B01536053688C7AF1
:1009700023435360CB68CC7A1B02234393600B69FB
:10098000C97B1B020B43D36011680123194311601B
:1009900030BD042030BD13684C7A23430C886405B5
:1009A00023431360DAE700000022002904D0012964
:1009B00005D0022906D112E08268134801E082685E
:1009C000124802401249501A8A4218D00ADC002A02
:1009D00017D01048101811D0022810D10DE08268ED
:1009E0000D48EEE7FF38FF38801E06D00B4940184F
:1009F00004D001214904884201D101207047002020
:100A00007047022070470000030000040003000844
:100A100000010008FFFFFFFB000003100003FFF7C9
:100A2000F0B585B06A4600211148FFF739FF002074
:100A30006E461049104A0746B57A0CE03318DB7A47
:100A40000C8813550B885B1C0B800B88FE2B00D188
:100A50000F80401CC0B28542F0D88021074800F0CA
:100A600027F9074800680749086005B0F0BD000095
:100A70000064004024000020A00000200004004882
:100A80007400002078000020F0B585B00022D0234B
:100A900000936C46019222726272A1726B4604E06E
:100AA000845C9D18521CEC7292B28A42F8D3124FA9
:100AB00019463846FFF730FF064600240F4D01E087
:100AC000641CA4B231463846FFF76EFF002801D1FE
:100AD000AC42F5D3AC4205D30020FFF785FE0120E0
:100AE00005B0F0BD4021064800F0E2F80548006876
:100AF000054908600020F3E700640040FF0F000094
:100B000000040048740000207C00002000290168D7
:100B100002D00122114301E0014A114001607047F7
:100B2000FEFF0000F0B501682B4A11400160002172
:100B3000016041608160C1602849284A08390F235B
:100B400090422DD0254AF024143290422FD0234ACF
:100B50001D022832904231D0204E1A033C36B0425A
:100B600003D1486815E04860F0BD1C4F0F26503790
:100B70003604B8422DD0194F6437B84202D14868C4
:100B8000320106E0154F7837B84204D148680F2289
:100B900012061043E7E71249114F0839B84202D153
:100BA00048681843DFE70E4B1433984202D1486877
:100BB0002043D8E70A4B2833984202D1486828439B
:100BC000D1E7074B3C339842CBD0054A5032904294
:100BD000CAD148683043C6E7FEFF00000800024063
:100BE0000804024030B503680C4A0C6A13408A6856
:100BF0004D6922430C692C4322438C692243CC6902
:100C000022434C6A22438C6A22431A430260CA6818
:100C100042600A6882604968C16030BD0F80FFFF92
:100C2000F0B50022032501230C6893401C409C4230
:100C30002AD10C79012C01D0022C12D187685400E2
:100C40002E46A640B74387604E79A6408468264367
:100C5000866084889C43848084888B7993401C437D
:100C60008480066853002C469C40A64306600E799B
:100C700007689E403E430660C668A643C660CC79BE
:100C80009C40C3681C43C460521C102ACBD3F0BDE7
:100C90004B07DB0E9A40C90810B589000818016A95
:100CA0000F249C40A1430162016A1143016210BDFF
:100CB0000185704781617047FEE700007CB5032025
:100CC0000121400400F054F801206A46107100210F
:100CD000917103215171D071C8200E4C009069466A
:100CE0002046FFF79DFFC8212046FFF7E3FFFF24C2
:100CF00009250134ED06694628460094FFF790FF68
:100D000021462846FFF7D6FFFF20F53000F09EFE73
:100D10007CBD0000000400487047000030B58278B8
:100D200001240178002A15D08B080E4A9B009A18DE
:100D300013688907C90EFF258D40AB434578AD0781
:100D40002D0E8D401D4315600078C006C00E8440F6
:100D5000054804E0C806C00E8440034880300460A3
:100D600030BD000000E400E000E100E0704700005A
:100D7000044A0029516901D0014300E081435161D7
:100D80007047000000100240044A0029D16901D0D8
:100D9000014300E08143D161704700000010024030
:100DA000044A0029116901D0014300E08143116127
:100DB0007047000000100240044A0029916901D0E8
:100DC000014300E081439161704700000010024040
:100DD000044A0029D16801D0014300E08143D16079
:100DE000704700000010024070B5002400F034F895
:100DF000012000F047F905252D0300E0641C0120C7
:100E000000F014F9002801D1AC42F7D1012000F024
:100E10000DF900281CD00F4911200860002000F0B7
:100E200027F9002000F03CF90521C904002000F05A
:100E30004FF9012000F03EF9192000F0F7F80028E2
:100E4000FAD0022000F052F900F00AF90828FBD18C
:100E500070BD0000002002401248016801221143C9
:100E600001604168104A1140416001680F4A114019
:100E700001600168012292049143016041683F22B0
:100E8000120491434160C16A09090901C162016B01
:100E9000074A11400163416B490849004163002141
:100EA00081607047001002400CB8FF08FFFFF6FE9B
:100EB000ACFEF0FFF8B5564E0446706800210C22D7
:100EC000544D104005D0042803D0082803D00C2826
:100ED0001AD025601AE07168706803228902D20373
:100EE0000F0F1040BF1C00280AD0F06A0107090F3D
:100EF0002846491CFFF71AF978430146216005E0AE
:100F0000454839464143F9E7444820607068444FFA
:100F10000006000F3B5C20680246DA40626073689E
:100F20005B055B0FFB5CDA40A260336BDB0501D431
:100F30003C4B05E073685B0401D4530800E0930860
:100F4000E360336B5F06384B03D4374F12372761AA
:100F500000E02361376BFF0601D4656100E060614A
:100F6000376BBF070ED0376BBF07BF0F012F0BD0FA
:100F7000376BBF07BF0F022F08D0376BFF43BF0788
:100F800006D006E0A26104E0A06102E0A36100E0F7
:100F9000A561376BBF03BF0F0FD0376BBF03BF0F08
:100FA000012F0CD0376BBF03BF0F022F09D0376B57
:100FB000BF03BF0F032F06D006E0E26104E0E0614B
:100FC00002E0E36100E0E561376B3F03BF0F0FD044
:100FD000326B1203920F012A0CD0306B0003800F8A
:100FE000022809D0306B0003800F032806D006E0EA
:100FF000226204E0206202E0236200E02562306B9E
:10100000000602D405486062F8BD6162F8BD0000C8
:101010000010024000127A0000093D00006CDC0262
:1010200014000020809FD5000080000003460020AF
:101030000A4A59090CD001290CD002290CD0516B55
:10104000DA06D20E012393400B4200D001207047F4
:101050001168F5E7116AF3E7516AF1E70010024001
:10106000024840680C210840704700000010024010
:10107000034A5168F02399430143516070470000CF
:101080000010024005490028086802D001221043E0
:1010900001E0400840000860704700000010024076
:1010A000034A516807231B0299430143516070476B
:1010B000001002400122054912060028086801D0EC
:1010C000104300E0904308607047000000100240A9
:1010D00010B5054A53687B24E403A3435360536867
:1010E00008430343536010BD00100240034A516897
:1010F00089088900014351607047000000100240D8
:101100007047000002480168491E016070470000F6
:101110007400002070B50E487D21C9000D4C006898
:10112000FFF704F80C4A0723401EA04201D9012111
:101130000BE05061094EF16903250902090AAD0768
:101140002943F1610021916113610029EDD170BD46
:1011500000000020FFFFFF0000E000E004ED00E0E1
:10116000134801680122114301604168114A11408E
:1011700041600168104A1140016001680122920437
:101180009143016041683F22120491434160C16A6A
:1011900009090901C162016BFF22543291430163C5
:1011A000416B49084900416300218160704700009C
:1011B000001002400CB8FF08FFFFF6FE002901886E
:1011C00002D00122114301E0490849000180704723
:1011D000F0B503208BB001214004FFF7C9FD0225C3
:1011E0006846057103214171002484710126C6718E
:1011F0003E480927FF06009069463846FFF710FD74
:101200003320009069463A48FFF70AFD0122052184
:101210003748FFF73DFD012204213548FFF738FD2F
:1012200002220F213846FFF733FD012211463048D4
:10123000FFF72EFD012200212D48FFF729FD022294
:1012400003213846FFF724FD022211463846FFF7F6
:101250001FFD022201213846FFF71AFD012103205C
:10126000FFF792FD2F2168468183C48321480890AF
:10127000684684846C0707A9204600F03DF91E4F9C
:1012800007A9384600F038F9702168460181468187
:1012900085821A48049002A9384600F06FF802A926
:1012A000384600F02DF802A9204600F029F802A9DE
:1012B000384600F0EFF802A9384600F0A7F802A976
:1012C000204600F0E7F802A9204600F09FF802A9A6
:1012D000204600F053F801212046FFF76FFF01215F
:1012E0003846FFF76BFF0BB0F0BD00000E8000002A
:1012F000000400481F4E000000040040DC05000010
:1013000070B5028C520852000284048C8288038BD0
:101310007025AB439B080D889B001D4302239C4313
:101320008E894B882643104C3343A04208D00F4C83
:10133000A04205D00E4CA04202D00E4CA0420DD1CE
:101340000824A343CC891C4304239C438B88234358
:10135000094C22400C8A14434A8A22438280058326
:1013600089684163038470BD002C01400040014046
:101370000044014000480140FFFC000070B5028CB1
:1013800010239A430284048C8288038B1A4D2B40CD
:101390000D782D062D0C1D4320239C438B891B05A6
:1013A0001E0C4B8826431B051B0C144C3343A042D8
:1013B00002D0134EB04219D1124E32400E8AB604FA
:1013C000360C3243A04211D18024A343CC8924059A
:1013D000240C1C4340239C438B881B051B0C23437C
:1013E000094C22404C8AA404240C224382800583A9
:1013F00089688163038470BDFF8C0000002C01406C
:1014000000400140FFFB0000FFF7000030B5028CF8
:101410001A4B1A400284038C8288848B7025AC435B
:10142000A4080D88A4002543154C23400C7B2406FA
:10143000240C1C438B781B061B0C2343114CA0422D
:1014400015D1114C23408C7B2406240C1C430F4BDC
:101450001C400B791B061B0C23430D4C22400C8AAD
:101460002405240C14434A8A1205120C224382805C
:1014700085838968C163038430BD0000FFFE0000DE
:10148000FFFD0000002C0140FFF70000FFFB000003
:10149000FFCF000030B5028C124B1A400284058C3D
:1014A0008288838B104C23400C782406240C1C4328
:1014B0000E4B1D400B7B1B071B0C2B438D782D0700
:1014C0002D0C1D430A4B984205D10A4B13400A8A42
:1014D0009205120C1A438280848389680164058412
:1014E00030BD0000FFEF0000FF8C0000FFDF0000B8
:1014F000002C0140FFBF000010B50288144B984239
:1015000006D00124A407A04202D0124CA04203D16D
:101510007024A2434C8822430F4CA04203D00F4CAE
:1015200022400C89224302804A68C2620A880285EE
:10153000984208D00A4A904205D00A4A904202D006
:10154000094A904201D1897A01860121818210BD28
:10155000002C01400004004000100040FFFC00008F
:10156000004001400044014000480140F0B5012125
:1015700089B08803FFF720FC01214804FFF7F8FB3E
:101580000921CF0601223846FFF782FB01220A21FA
:101590003846FFF77DFB0120400200900226684696
:1015A00006710024847103214171C4716946384673
:1015B000FFF736FB7502684600950671C4716946EF
:1015C0003846FFF72DFB0C480290A800039040001E
:1015D000079404900C20094C0690059502A920461A
:1015E00000F022F80121204600F00CF840212046AE
:1015F00000F006F809B0F0BDA086010000380140F7
:10160000016270470029016802D00122114301E004
:1016100049084900016070470246D26900200A4229
:1016200000D001207047000030B5044600688BB040
:101630000D4640084000206060680321090388438C
:10164000A9680143616020681C49EA68084069682C
:1016500011432A69024311432160A0680321090252
:10166000884369690143A1606846FFF723FC144879
:10167000844201D106980AE01248844201D10798B9
:1016800005E01148844201D1089800E002982168E1
:101690000904296800D54000FEF748FD2A68520871
:1016A0008A4200D8401C2168090404D50107074A72
:1016B000490F10400843A0810BB030BDF3E9FFFF94
:1016C000003801400044004000480040F0FF0000A6
:1016D000C905C90D0185704702E008C8121F08C17D
:1016E000002AFAD170477047002001E001C1121FA3
:1016F000002AFBD1704700000349012802D00348AB
:10170000088270470248FBE7340000206C070000A5
:101710004C0400000349012802D003484882704766
:101720000248FBE7340000206C0700004C04000076
:1017300002490148888170476C070000340000208E
:1017400003480121017003490968416070470000A6
:101750008C0000207400002010B50749074A088952
:10176000074B904201D10B8110BD064C984201D12C
:101770000C8110BD0A8110BD340000204C04000013
:10178000DC0500006C0700000348044942898A42D6
:1017900000D1034941817047340000204C0400000F
:1017A0006C0700000948017800290ED042680849FA
:1017B0000B68D21AFF23F5339A4206D9064B054A25
:1017C0009A81096841600021017070478C000020F7
:1017D000740000204C0400003400002070B51D4847
:1017E00000F0CAFA002834D01B4D2C68207900285C
:1017F00003D0022801D020282BD1207C022828D811
:10180000617B0D2925D1002804D001281DD0022894
:101810001BD103E0204600F0C5F916E064210F4813
:10182000FEF7B3FC0D49204600F0B2F801280CD1B8
:101830000A4908466430044600F06AFB0749C03193
:10184000087201462046FEF7CDFE64212868FEF7A7
:101850009CFC70BDD30100209400002005030020F3
:1018600010B50348017A5C38FEF7BCFE002010BDBD
:10187000FC02002070B5144C12486060401CA0604F
:10188000123800F07BFB0F4D0320113D2871022020
:1018900028740D2068736168012008700B48A168E6
:1018A000FEF788FC0520687129460846643000F080
:1018B0002FFB2946C03108721E22F031881AFEF72C
:1018C0004BFC70BD4D02002094000020DDCCBBAA73
:1018D00010B5FFF783FF10BDF8B5164C16496088A8
:1018E00001254018154900268F1088420CD3207816
:1018F000002807D109202902C006FFF7D9F9384688
:1019000000F0A4F8257000E02670A0880C4940186B
:101910000C4988420BD36078002806D108210A4878
:10192000FFF7C6F9384600F091F86570F8BD6670AB
:10193000F8BD00002800002008D5FFFFD1070000F7
:101940006CEEFFFFE90300000004004810B5002022
:1019500000F09AF8034CA080012000F095F8608018
:1019600010BD00002800002010B5FFF7F9FBFFF7BD
:101970003BFAFFF7CFFBFFF7A1F9FEF72DFD0020A3
:10198000FEF732FFFFF724FC00F0BAF910BD0000AB
:10199000F8B50F460C4606461137417C11367D1CC2
:1019A000022901D00020F8BD014611222046FEF791
:1019B000D3FB307838700020287009220CA1681CF5
:1019C000FEF7CAFB284606220CA10B30FEF7C4FB2B
:1019D0002846062209A11130FEF7BEFB0120207126
:1019E000BE2163200155182060710120F8BD000060
:1019F0005133305449522D4800000000303130300E
:101A0000303000000A881346424010015040C0B2F6
:101A10001A0A03025A40C3005A40000942400A8091
:101A2000704738B505460C460020C043694608801B
:101A300004E0287869466D1CFFF7E4FF2046641E29
:101A4000A4B20028F5D16846008838BD03490A6869
:101A50000B68D31A8342FBD3704700007400002048
:101A600010B5074B30219A694843064C9969914259
:101A700001D2511A01E0511A09198142F6D310BD61
:101A800000E000E080BB000010B5044600210F4AD2
:101A900008464B001B195B00D35A491C1818C9B2E1
:101AA0000A29F6D30A21FEF741FB002C02D0012CB3
:101AB0000AD103E006494843400A05E00549484386
:101AC00003218902FEF732FB80B210BD9E01002087
:101AD00039030000E5290000FFF746FFFFF7CAFEC3
:101AE000274E284D284C294FFFF75CFEFFF7F0FEEC
:101AF00030682168401A0A2824D3206830602448BE
:101B0000FEF744FD0A212868FEF710FB002909D1E1
:101B100020687D21C0430901884203D9FFF716FFE1
:101B2000FFF7DAFE64212868FEF700FB002906D1E2
:101B300020681849C043884201D9FFF791FE286800
:101B4000401C2860144800682168401A322803D9D4
:101B500080211248FFF7AEF8114800682168401A4A
:101B6000322803D940210D48FFF7A4F838682168CE
:101B7000401A0E28B8D900F0D9F820683860B3E7C9
:101B8000800000208400002074000020300000202D
:101B900000240140B80B0000780000200004004839
:101BA0007C00002070B541791E2901D0002070BD55
:101BB00001461E2211312348FEF7CEFA214C607FE8
:101BC000012838D06078227801021F481143018033
:101BD000E178A278090211431C4A511A4180617BC5
:101BE000227B09021143C1801948026819490B6818
:101BF000D21A7D23DB009A421DD909680160607EFC
:101C0000FFF77AFDA07EFFF785FD25461E35207E75
:101C1000297E884203D0FFF78BFDFFF791FDE07C22
:101C2000E97C884201D0FFF797FDA07CA97C88421F
:101C300001D0FFF7A9FD03491E228818FEF78CFA90
:101C4000012070BDCE03002034000020B80B00003E
:101C50008800002074000020F7B588B0012500241A
:101C6000152101A8FEF791FA21480026006800908E
:101C700032E009987100405A1E494018FEF73AFBBD
:101C80001D49FEF7F9FA3F210906FEF79CFAFEF717
:101C90003CFB1A4980B2884205D9084603E06D1C16
:101CA000083CEDB2E4B2082CF9D269464B5D02461D
:101CB000A24013434B55491908231B1B0746DF401D
:101CC0004A7810233A431B1B4A70D8408A780B3459
:101CD00002438A70E4B2761C0A98864201D2102E22
:101CE000C7D31921684600F02BF80BB0F0BD0000F7
:101CF000F01F000896FCFFFF0000203FFF070000D8
:101D000010B5FFF733FC0748054901804180C180C9
:101D100005490181418181810182418210BD00001C
:101D2000DC050000340000204C04000010B5102237
:101D300002490020FFF790FF002010BD3400002072
:101D4000F8B50D46064600240A4F0FE040213846FC
:101D5000FFF756FC315D3846FFF7BAFC40213846A4
:101D6000FFF75AFC0028F9D0641CA4B2AC42EDD3B2
:101D7000F8BD00000038014010B5044607E0FEF74A
:101D800013FC0146204600F008F8012804D0FEF7B5
:101D90001DFC0128F3D0002010BDF0B5044600263C
:101DA000451D0670407822466632012700281AD069
:101DB000012825D002282BD003282FD0042833D087
:101DC000052837D006283DD0072841D008284ED016
:101DD00009285CD00A2860D00B2873D00C287AD050
:101DE0000D286DD083E0EB296BD100202970C04312
:101DF0001070000A5070284600F0E7F867707AE02B
:101E0000012974D16970284600F0DFF802206AE0E9
:101E1000A970284600F0D9F8032064E0E97028464C
:101E200000F0D3F804205EE02971284600F0CDF8D8
:101E3000052058E050295AD86971284600F0C5F8A5
:101E4000062050E0A971284600F0BFF807204AE0BC
:101E5000A278E81D1154284600F0B7F8A078401C7D
:101E6000C0B2A070032846D1A67008203BE0E278FB
:101E700028460A301154284600F0A7F8E078401CA4
:101E8000C0B2E070062836D1E67009202BE0297434
:101E9000284600F09AF80A2025E0227928461130D9
:101EA0001154284600F091F82079401CC0B22071EE
:101EB000697988421FD126710B2014E002E00AE004
:101EC00013E014E05078127800021043C0B2884248
:101ED00018D10C2007E05078127800021043000A55
:101EE00088420FD10D20607005E0BE2905D06670D4
:101EF000A670E67026712078F0BD6035E9706670D6
:101F00002770F8E76670A670E67026713046F0BD5F
:101F1000F8B50546487B184E0C46315CA171315C22
:101F2000491CCAB232541046677BFF21FEF7FEF807
:101F3000F155617920461131FFF773FD214661317A
:101F40000870000A48700E46112221462846FEF706
:101F500003F9284621461130627911310546FEF712
:101F6000FBF86079032240193146FEF7F5F86079F5
:101F70001430C0B2F8BD0000C6010020EB21017092
:101F80000121417000228270BE23C27063210B5474
:101F9000827111464318491CC9B2DA710329F9D379
:101FA00000214318491CC9B29A720629F9D30021AD
:101FB0004318491CC9B25A745029F9D30021C943A6
:101FC00061300170090A4170704718B561300A46E6
:101FD0004178044603780802184369460880104691
:101FE000FFF710FD694608882070000A607018BD70
:101FF0000F0000001420000800000020A0000000D6
:10200000D8160008B4200008A000002070070000C7
:10201000E8160008006CDC02000000000000000070
:10202000010203040607080900000000010203047E
:102030000102030406070809000000000000000078
:1020400000000000FFFFFFFFDC05DC05DC05DC0510
:10205000DC05DC05DC05DC05DC05DC05DC05DC0578
:10206000DC05DC05DC05DC05DC05DC05DC05DC0568
:10207000DC05DC05DC05DC05DC05DC05DC05DC0558
:10208000DC05DC05DC05DC05FFFFFFFFFFFFFFFFD4
:10209000FFFFFFFFFFFFFFFF00000000FFFFFFFF4C
:1020A00000000000FFFFFFFFD8010020000000003B
:0420B000000000002C
:04000005080000C12E
:00000001FF
