:020000040800F2
:10000000E0070020D5000008A10C0008FB0A00084A
:1000100000000000000000000000000000000000E0
:10002000000000000000000000000000891000082F
:100030000000000000000000F50C00088D10000812
:100040000501000805010008050100080501000878
:100050000501000805010008050100080501000868
:100060000501000805010008050100080501000858
:100070000501000805010008050100080501000848
:100080000501000800000000000000000501000854
:100090000000000005010008050100080501000836
:1000A0000000000005010008050100080501000826
:1000B00005010008000000005508000805010008BF
:1000C0000348854600F080F8004800470D160008F8
:1000D000E00700200C4880F308880C480168090EEE
:1000E0000B4A914205D10B480B4901600B480C4962
:1000F00001600C4880470C480047FEE7FEE7FEE73A
:10010000FEE7FEE7FEE70000E00700200400000035
:100110001F00000018100240010000000000014014
:1001200000000000E9100008C100000830B50B46CF
:10013000014600202022012409E00D46D5409D42C1
:1001400005D31D469540491B254695404019154647
:10015000521E002DF1DC30BD03460B439B0703D03C
:1001600009E008C9121F08C0042AFAD203E00B787C
:100170000370401C491C521EF9D27047D2B201E0F4
:100180000270401C491EFBD270470022F6E710B5F2
:1001900013460A4604461946FFF7F0FF204610BDF5
:1001A0000321001D401E037812021A43491EF9D58F
:1001B00010467047034603220870000A491C521E6D
:1001C000FAD5184670470000064C0125064E05E09A
:1001D000E36807CC2B430C3C98471034B442F7D368
:1001E000FFF772FFB4190008D419000830B53C4D70
:1001F00093B0284600F09AF80121480400F07CFDF5
:100200000121480200F09CFD0121084600F074FD28
:100210001F2006900320694608770024CC7706A9A2
:10022000680400F017FC684600F0D1F869460094B5
:100230000C71029404942846059400F0ADF807224E
:100240000121284600F052F807220221284600F03A
:100250004DF807220421284600F048F8072208211B
:10026000284600F043F807221021284600F03EF807
:10027000284600F06BF80221284600F04FF80121D3
:10028000284600F041F80121284600F034F8012109
:10029000284600F072F80028F9D0124D284600F0E8
:1002A0005BFB0F480A94403008900F4809903220B9
:1002B0000B9080200D9040000E9080000F90202029
:1002C00010900C940002119008A91294284600F096
:1002D000A3FB0121284600F033FB13B030BD000022
:1002E00000240140080002406E010020836A0B4395
:1002F0008362426170470029816801D0012200E0D9
:1003000002221143816070470029C16802D0012296
:10031000114301E049084900C1607047C2680223E7
:100320009A43C260C2680A43C2607047064910B56A
:10033000884208D144150121204600F00DFD00211E
:10034000204600F009FD10BD002401408268002114
:100350000123DB071A4382600F231B038268491CB9
:10036000D20FD207994201D0002AF7D18168002923
:1003700001DB006C70470020704702460020CB0173
:1003800004D5926801231B069A4300E012680A42D2
:1003900000D001207047000030B5C268084B8C685F
:1003A0001A400B680D792343CC686D032C4323431B
:1003B0000C69496923430B431343C36030BD0000FC
:1003C00003D2FFFF8168042211438160704700213E
:1003D000016001718160C16001614161704700008D
:1003E000064A05485188405C491C89B25180FE2963
:1003F00001D10021518070477000002024000020AE
:10040000044801884088814201D1002070470120C2
:100410007047000024000020F8B5CF080E460546BE
:10042000002409E00821284600F048FA0948083568
:1004300001F090F8641CE4B2BC42F3D3700707D01B
:100440007107490F284600F039FA024801F082F896
:100450000020F8BDE703000010B501214C0620463E
:1004600000F062FC0021204600F05EFC10BD0000A0
:1004700070B50446817A012005462B4E8D403168C7
:1004800001433160F069A843F061207B002812D15C
:10049000F068A843F060E088618800040843A17A0E
:1004A000C90089190864A088218800040843A17A3A
:1004B000C90089194864207B012814D1F0682843B9
:1004C000F0602046FFF76CFE1021C841A17AC900F8
:1004D00089190864201DFFF763FE1021C841A17A25
:1004E000C90089194864E07A0028706805D028435B
:1004F00070602089002802D004E0A843F8E7706902
:10050000A84370612089012802D170692843706175
:10051000607B012802D1F0692843F061306840080F
:100520004000306070BD000000660040002A426953
:1005300001D00A4300E08A434261704710B5036866
:1005400000220224A34303600368012423430360C1
:10055000314B00E0521C4468E40701D19A42F9D1C2
:100560004268D2073ED08C798022012C04683BD0AF
:1005700094430460CC794022012C046836D0944323
:1005800004600C7A2022012C046831D0944304606A
:100590004C7A1022012C04682CD0944304608C7A8D
:1005A0000822012C046827D094430460CC7A0422EA
:1005B000012C046822D0944304608A78CC78920796
:1005C000240622430C79240422434C79098824050B
:1005D0002243491E0A43C26101684908490001607B
:1005E00000210EE0002010BD1443C2E71443C7E70A
:1005F0001443CCE71443D1E71443D6E71443DBE7B5
:10060000491C4268D20701D09942F9D14068C0071D
:10061000E8D1012010BD0000FFFFFF00F1B501216E
:100620008AB0480400F068FB0121480600F070FB26
:10063000022669460E74002403208C74C0020390C5
:100640000125CD74032048740927FF0603A9384605
:1006500000F000FA04220B21384600F033FA04229D
:100660000C21384600F02EFA194F3846FFF7F4FEF9
:1006700069468C71CC7102940A988870CC700720FE
:1006800008714E71082008803846FFF757FF08A907
:100690008C70CD700D71FF202130694608834C832A
:1006A0008C83CC830C8408A94D7106A8FFF7E0FE6B
:1006B0001E20694608754E758D7505A800F0F2FA82
:1006C000012202213846FFF731FF00200BB0F0BDB8
:1006D000006400400B0130B51B18FF3381331C6BE5
:1006E00004252C4014721C6B29D0E40854601C6B48
:1006F00002252C4054725C6B2407240F94725C6BAF
:10070000240AD4749C6BD4729C6B240A14739C6B63
:10071000240C54739C6B240E9473DC6BD473DC6BCD
:10072000240A1474DC6B240C5474DB6B1B0E93745E
:100730002022002906D001691143016130BD640DFA
:100740001460D4E7C1681143C16030BD30B50246C2
:10075000936800205B0108D49068000101D5012056
:1007600003E09068C0002ED5022003019A18FF32E2
:1007700081321368DB07DB0F13600B7A002B24D068
:1007800014684D681C434B7AED002B431C431460E6
:100790008B7A1B071B0F8B7253681B091B0153605D
:1007A00053688C7A23435360CB68CC7A1B02234373
:1007B00093600B69C97B1B020B43D3601168012353
:1007C0001943116030BD042030BD13684C7A2343B7
:1007D0000C88640523431360DAE700000022002937
:1007E00004D0012905D0022906D112E082681348FD
:1007F00001E08268124802401249501A8A4218D019
:100800000ADC002A17D01048101811D0022810D185
:100810000DE082680D48EEE7FF38FF38801E06D0F5
:100820000B49401804D001214904884201D101201C
:10083000704700207047022070470000030000044A
:100840000003000800010008FFFFFFFB0000031089
:100850000003FFF7F0B585B06A4600211148FFF7A5
:1008600039FF00206E461049104A0746B57A0CE061
:100870003318DB7A0C8813550B885B1C0B800B88B4
:10088000FE2B00D10F80401CC0B28542F0D88021E1
:10089000074800F02EF9074800680749086005B0CE
:1008A000F0BD000000640040240000207000002023
:1008B00000040048380000203C000020F0B585B05E
:1008C0000022902300936C46019222726272A17200
:1008D0006B4604E0845C9D18521CEC7292B28A4212
:1008E000F8D3124F19463846FFF730FF064600246A
:1008F0000F4D01E0641CA4B231463846FFF76EFF8D
:10090000002801D1AC42F5D3AC4205D30020FFF75B
:1009100085FE012005B0F0BD4021064800F0E9F851
:1009200005480068054908600020F3E700640040BE
:10093000FF0F0000000400483800002040000020A5
:100940000029016802D00122114301E0014A11404F
:1009500001607047FEFF0000F0B501682B4A1140AE
:1009600001600021016041608160C1602849284A1E
:1009700008390F2390422DD0254AF024143290429A
:100980002FD0234A1D022832904231D0204E1A0324
:100990003C36B04203D1486815E04860F0BD1C4FBA
:1009A0000F2650373604B8422DD0194F6437B8425D
:1009B00002D14868320106E0154F7837B84204D1B9
:1009C00048680F2212061043E7E71249114F083911
:1009D000B84202D148681843DFE70E4B14339842FF
:1009E00002D148682043D8E70A4B2833984202D105
:1009F00048682843D1E7074B3C339842CBD0054A9F
:100A000050329042CAD148683043C6E7FEFF00002A
:100A1000080002400804024030B503680C4A0C6A22
:100A200013408A684D6922430C692C4322438C6928
:100A30002243CC6922434C6A22438C6A22431A43E4
:100A40000260CA6842600A6882604968C16030BD5D
:100A50000F80FFFFF0B50022032501230C689340AF
:100A60001C409C422AD10C79012C01D0022C12D1BD
:100A7000876854002E46A640B74387604E79A6404B
:100A800084682643866084889C43848084888B792C
:100A900093401C438480066853002C469C40A64328
:100AA00006600E7907689E403E430660C668A6430E
:100AB000C660CC799C40C3681C43C460521C102A99
:100AC000CBD3F0BD4B07DB0E9A40C90810B58900A7
:100AD0000818016A0F249C40A1430162016A114376
:100AE000016210BD0246128A00200A4200D0012095
:100AF00070470185704781617047FEE71CB5012191
:100B0000880400F0F9F80020694608710120C871D6
:100B1000102000900148FFF79DFF1CBD0004004815
:100B2000F8B510212748FFF7DDFF274EFF2470702E
:100B30003178F534254D264F264B274A012914D00C
:100B4000022921D003292ED004292BD1002829D114
:100B500018681168401AA04224D910681860012052
:100B600030701068286003201BE000281AD1186834
:100B70001168401AA04215D9106818600220307020
:100B80001068286001200CE000280BD1186811685B
:100B9000401AA04206D9106818600320307011680E
:100BA00029603870F8BD0028FCD118681168401A17
:100BB000A042F7D9106818600420307010682860CF
:100BC0000220EEE70004004834000020540000201A
:100BD0005A00002050000020380000201CB50320DF
:100BE0000121400400F088F801206A4610710021BC
:100BF000917103215171D071C8200B4C009069464E
:100C00002046FFF727FFC8212046FFF774FFC020CA
:100C1000009009206946C006FFF71CFFFF20F53051
:100C200000F08EFC1CBD00000004004810B5164802
:100C300001780920C006012907D002290CD0032918
:100C400002D14021FFF755FF10BD4021FFF753FFB0
:100C50000EA000F02BFB10BD0F490B680F4A146863
:100C60001B1B322BF7D312680A6040210446FFF7A2
:100C700039FF002802D040212046E3E740212046EA
:100C8000FFF739FF10BD00005A0000206B65792086
:100C9000313276206F6E0A004800002038000020B4
:100CA0007047000030B5827801240178002A15D001
:100CB0008B080E4A9B009A1813688907C90EFF25F6
:100CC0008D40AB434578AD072D0E8D401D4315601B
:100CD0000078C006C00E8440054804E0C806C00E77
:100CE000844003488030046030BD000000E400E030
:100CF00000E100E070470000044A0029516901D07A
:100D0000014300E081435161704700000010024040
:100D1000044A0029D16901D0014300E08143D16137
:100D20007047000000100240044A0029116901D0F8
:100D3000014300E081431161704700000010024050
:100D4000044A0029916901D0014300E08143916187
:100D50007047000000100240044A0029D16801D009
:100D6000014300E08143D160704700000010024061
:100D700070B5002400F034F8012000F047F9052593
:100D80002D0300E0641C012000F014F9002801D1BB
:100D9000AC42F7D1012000F00DF900281CD00F491A
:100DA00011200860002000F027F9002000F03CF935
:100DB0000521C904002000F04FF9012000F03EF9A0
:100DC000192000F0F7F80028FAD0022000F052F9BC
:100DD00000F00AF90828FBD170BD00000020024095
:100DE000124801680122114301604168104A114014
:100DF000416001680F4A11400160016801229204BC
:100E00009143016041683F22120491434160C16AED
:100E100009090901C162016B074A11400163416B75
:100E20004908490041630021816070470010024079
:100E30000CB8FF08FFFFF6FEACFEF0FFF8B5564E0B
:100E40000446706800210C22544D104005D004283F
:100E500003D0082803D00C281AD025601AE0716846
:100E6000706803228902D2030F0F1040BF1C0028B4
:100E70000AD0F06A0107090F2846491CFFF756F906
:100E800078430146216005E0454839464143F9E78A
:100E9000444820607068444F0006000F3B5C2068A7
:100EA0000246DA40626073685B055B0FFB5CDA4008
:100EB000A260336BDB0501D43C4B05E073685B0437
:100EC00001D4530800E09308E360336B5F06384BAE
:100ED00003D4374F1237276100E02361376BFF06D9
:100EE00001D4656100E06061376BBF070ED0376BDE
:100EF000BF07BF0F012F0BD0376BBF07BF0F022FEC
:100F000008D0376BFF43BF0706D006E0A26104E0BC
:100F1000A06102E0A36100E0A561376BBF03BF0FD2
:100F20000FD0376BBF03BF0F012F0CD0376BBF0340
:100F3000BF0F022F09D0376BBF03BF0F032F06D09F
:100F400006E0E26104E0E06102E0E36100E0E56107
:100F5000376B3F03BF0F0FD0326B1203920F012A82
:100F60000CD0306B0003800F022809D0306B0003D7
:100F7000800F032806D006E0226204E0206202E02F
:100F8000236200E02562306B000602D405486062EF
:100F9000F8BD6162F8BD00000010024000127A0046
:100FA00000093D00006CDC0214000020809FD50089
:100FB00000800000034600200A4A59090CD001298C
:100FC0000CD002290CD0516BDA06D20E01239340CB
:100FD0000B4200D0012070471168F5E7116AF3E772
:100FE000516AF1E700100240024840680C210840B5
:100FF0007047000000100240034A5168F0239943F3
:10100000014351607047000000100240054900286C
:10101000086802D00122104301E040084000086047
:101020007047000000100240034A516807231B026A
:101030009943014351607047001002400122054965
:1010400012060028086801D0104300E090430860B1
:10105000704700000010024010B5054A53687B2419
:10106000E403A3435360536808430343536010BD34
:1010700000100240034A5168890889000143516009
:1010800070470000001002407047000002480168ED
:10109000491E0160704700003800002070B50E48FE
:1010A0007D21C9000D4C0068FFF740F80C4A07236A
:1010B000401EA04201D901210BE05061094EF169A7
:1010C00003250902090AAD072943F1610021916155
:1010D00013610029EDD170BD00000020FFFFFF006B
:1010E00000E000E004ED00E0134801680122114334
:1010F00001604168114A114041600168104A114085
:1011000001600168012292049143016041683F221D
:10111000120491434160C16A09090901C162016B6E
:10112000FF22543291430163416B490849004163F6
:101130000021816070470000001002400CB8FF08D9
:10114000FFFFF6FE70B5012188B08803FFF7F8FDB8
:1011500001214804FFF7D0FD0921CE0601223046C7
:10116000FFF7B0FC01220A213046FFF7ABFC01205B
:101170004002009002256846057100248471012117
:101180004171C47169463046FFF764FC6802009003
:1011900068460571C47169463046FFF75BFCE12083
:1011A0000794000203940494059402900C20084CC8
:1011B000069002A9204600F021F80121204600F007
:1011C0000BF84021204600F005F808B070BD000083
:1011D00000380140016270470029016802D00122F5
:1011E000114301E049084900016070470246D26995
:1011F00000200A4200D001207047000030B50446AC
:1012000000688BB00D4640084000206060680321F4
:1012100009038843A9680143616020681C49EA68A2
:101220000840696811432A69024311432160A0689C
:1012300003210902884369690143A1606846FFF7F9
:10124000FDFD1448844201D106980AE01248844208
:1012500001D1079805E01148844201D1089800E0C7
:10126000029821680904296800D54000FEF75EFF56
:101270002A6852088A4200D8401C2168090404D513
:101280000107074A490F10400843A0810BB030BD49
:10129000F3E9FFFF003801400044004000480040EF
:1012A000F0FF0000C905C90D0185704710B5024A5D
:1012B000024900F021F810BD7D1500086C000020E7
:1012C00030B47446641E2578641CAB4200D21D46BF
:1012D000635D5B00E31830BC184702E008C8121FCA
:1012E00008C1002AFAD170477047002001E001C10F
:1012F000121F002AFBD17047F8B516460F46044668
:10130000002503E03946B047641C6D1C2078002896
:10131000F8D12846F8BD000070B51D4800F00EFA5F
:10132000002834D01B4D2C682079002803D00228D7
:1013300001D020282BD1207C022828D8617B0929C4
:1013400025D1002804D001281DD002281BD103E09C
:10135000204600F0C3F907E064210F48FEF715FFAF
:101360000D49204600F08EF801280CD10A490846A4
:101370006430044600F0AEFA0749C03108720146F5
:101380002046FFF749F864212868FEF7FEFE70BD8D
:10139000DF0100205C00002011030020074910B588
:1013A00008466430044600F095FA0449C0310872DA
:1013B00001462046FFF730F8002010BD480200200B
:1013C00070B50F4C0D486060401CA060001DE060CF
:1013D000163800F0B5FA094D0320113D287102209E
:1013E0002874092068736168012008700548A168A5
:1013F000FEF7E0FE0620687170BD00005902002073
:101400005C000020DDCCBBAA10B5FFF785FF10BD46
:1014100010B5002000F0C4F8094C6080012000F0F5
:10142000BFF8A080022000F0BBF8E080032000F0AD
:10143000B7F82081042000F0B3F8608110BD0000EF
:101440002800002010B5FFF74FFEFFF791FCFFF7D3
:1014500025FEFFF7C3FBFEF7C9FEFFF773FE002072
:10146000FFF7DCF8FFF74AFB10BD000010B50920BC
:101470004021C006FFF736FB01490968087010BD1E
:1014800068000020F8B50F460C46064601461136A6
:10149000113711222046FEF75FFE307802281DD159
:1014A000254600201235A07408220DA1681CFEF705
:1014B00053FE284606220CA10B30FEF74DFE2846AF
:1014C00006220BA11130FEF747FE1820607130781C
:1014D000387001202071BE206034E0700120F8BD1A
:1014E0004D2D534C4C4544003030303230320000EA
:1014F00030303032303100000A881346424010014B
:101500005040C0B21A0A03025A40C3005A400009B0
:1015100042400A80704738B505460C460020C0435B
:101520006946088004E0287869466D1CFFF7E4FFEF
:101530002046641EA4B20028F5D16846008838BD54
:1015400003490A680B68D31A8342FBD37047000033
:101550003800002010B5074B30219A694843064CEB
:101560009969914201D2511A01E0511A0919814237
:10157000F6D310BD00E000E080BB000070B5074D61
:101580000446C1B22846FFF78DFE40212846FFF7EA
:101590002DFE0028F9D0204670BD00000038014023
:1015A00010B504460020154902468300C3181B19D4
:1015B0005B00CB5A401C9A18C0B20A28F5D30A2106
:1015C0001046FEF7B3FD2300FFF77AFE05040B0F6C
:1015D000131316000A49484309218902FEF7A6FDA4
:1015E0000AE008494843800A06E007494843400AA0
:1015F00002E0A5214843C00980B210BD6E01002061
:1016000055090100F70D0000CB020000FFF71AFF9B
:10161000FFF7D6FE25A0FFF749FE284E284D294F9B
:10162000294CFFF7F1FEFFF77BFAFFF7FFFA30686E
:101630002168401A0A2825D3206830602348FEF725
:10164000C1FE0A212868FEF771FD002908D1206833
:101650007D21C0430901884202D9FFF7D9FE2068E5
:1016600064212868FEF762FD002908D12068184926
:10167000C043884203D9FFF7F9FEFFF78FFE2868C1
:10168000401C286038682168401A322803D980211C
:101690001048FFF730FA104800682168401A3228D5
:1016A000BFD940210B48FFF726FABAE77379737464
:1016B000656D20696E69740A000000004400002016
:1016C0004C0000203C000020380000200024014095
:1016D000B80B0000000400484000002010B512497B
:1016E0000968124A134B1160407C114A012805D049
:1016F0000320107008201870002010BD0E491C78BF
:101700000878A042F8D0401CC0B201240870032819
:1017100000D30C7008781870012803D00228EBD190
:101720001070E9E71470E7E738000020540000204B
:101730005A000020590000205800002010B504462F
:1017400007E0FEF74DFE0146204600F008F80128AC
:1017500004D0FEF755FE0128F3D0002010BDF0B5EF
:1017600004460026451D0670407822466632012751
:1017700000281AD0012825D002282BD003282FD0EA
:10178000042833D0052837D006283DD0072841D07B
:1017900008284ED009285CD00A2860D00B2873D0C6
:1017A0000C287AD00D286DD083E0EB296BD1002076
:1017B0002970C0431070000A5070284600F0E7F806
:1017C00067707AE0012974D16970284600F0DFF86B
:1017D00002206AE0A970284600F0D9F8032064E0EE
:1017E000E970284600F0D3F804205EE0297128460D
:1017F00000F0CDF8052058E050295AD869712846E4
:1018000000F0C5F8062050E0A971284600F0BFF8A6
:1018100007204AE0A278E81D1154284600F0B7F8E6
:10182000A078401CC0B2A070032846D1A670082042
:101830003BE0E27828460A301154284600F0A7F829
:10184000E078401CC0B2E070062836D1E67009206E
:101850002BE02974284600F09AF80A2025E0227926
:10186000284611301154284600F091F82079401C88
:10187000C0B22071697988421FD126710B2014E013
:1018800002E00AE013E014E05078127800021043FE
:10189000C0B2884218D10C2007E0507812780002BC
:1018A0001043000A88420FD10D20607005E0BE2968
:1018B00005D06670A670E67026712078F0BD6035A0
:1018C000E97066702770F8E76670A670E67026719A
:1018D0003046F0BDF8B50546487B184E0C46315CE5
:1018E000A171315C491CCAB232541046677BFF219A
:1018F000FEF71CFCF155617920461131FFF70BFE14
:10190000214661310870000A48700E4611222146B6
:101910002846FEF721FC2846214611306279113114
:101920000546FEF719FC6079032240193146FEF79F
:1019300013FC60791430C0B2F8BD0000D201002061
:10194000EB2101700121417000228270BE23C27020
:1019500063210B54827111464318491CC9B2DA71D4
:101960000329F9D300214318491CC9B29A720629E8
:10197000F9D300214318491CC9B25A745029F9D32C
:101980000021C94361300170090A4170704718B5E0
:1019900061300A46417804460378080218436946D4
:1019A00008801046FFF7A8FD694608882070000AE5
:1019B000607018BDD41900080000002070000000FD
:1019C000DA120008441A00087000002070070000B6
:1019D000EA120008006CDC020000000000000000B9
:1019E00001020304060708090000000001020304C5
:1019F00001020304060708090000000000000000BF
:101A0000000000000000000001010000FFFFFFFFD8
:101A1000FFFFFFFFFFFFFFFFFFFFFFFFFFFFFFFFD6
:101A200000000000FFFFFFFFFFFFFFFF00010000BD
:101A3000E4010020000000000000000000000000A1
:041A400000000000A2
:04000005080000C12E
:00000001FF
