:020000040800F2
:1000000088070020D5000008650C0008EF0A0008EA
:1000100000000000000000000000000000000000E0
:10002000000000000000000000000000350D000886
:100030000000000000000000B90C0008D10D00080D
:100040000501000805010008050100080501000878
:100050000501000805010008050100080501000868
:100060000501000805010008050100080501000858
:100070000501000805010008050100080501000848
:100080000501000800000000000000000501000854
:100090000000000005010008050100080501000836
:1000A0000000000005010008050100080501000826
:1000B00005010008000000002108000805010008F3
:1000C0000348854600F080F8004800479514000872
:1000D000880700200C4880F308880C480168090E46
:1000E0000B4A914205D10B480B4901600B480C4962
:1000F00001600C4880470C480047FEE7FEE7FEE73A
:10010000FEE7FEE7FEE7000088070020040000008D
:100110001F00000018100240010000000000014014
:10012000000000002D0E0008C100000830B50B468D
:10013000014600202022012409E00D46D5409D42C1
:1001400005D31D469540491B254695404019154647
:10015000521E002DF1DC30BD03460B439B0703D03C
:1001600009E008C9121F08C0042AFAD203E00B787C
:100170000370401C491C521EF9D27047D2B201E0F4
:100180000270401C491EFBD270470022F6E710B5F2
:1001900013460A4604461946FFF7F0FF204610BDF5
:1001A0000321001D401E037812021A43491EF9D58F
:1001B00010467047034603220870000A491C521E6D
:1001C000FAD5184670470000064C0125064E05E09A
:1001D000E36807CC2B430C3C98471034B442F7D368
:1001E000FFF772FF601800088018000830B5324D24
:1001F00093B0284600F088F80121304800F05EFDF9
:100200000121480200F07EFD11200690032069467E
:1002100008770024CC7706A9680400F015FC68462E
:1002200000F0C3F8694600940C71029404942846C7
:10023000059400F09FF807220121284600F044F8B9
:1002400007221021284600F03FF8284600F06CF8FD
:100250000221284600F050F80121284600F042F81B
:100260000121284600F035F80121284600F073F8F6
:100270000028F9D0124D284600F068FB0E480A9479
:10028000403008900F48099014200B9080200D906A
:1002900040000E9080000F90202010900C940002DF
:1002A000119008A91294284600F0B0FB01212846BD
:1002B00000F040FB13B030BD0024014001000200FB
:1002C0000800024052010020836A0B4383624261AE
:1002D00070470029816801D0012200E00222114309
:1002E000816070470029C16802D00122114301E0FA
:1002F00049084900C1607047C26802239A43C2603E
:10030000C2680A43C2607047064910B5884208D1E6
:1003100044150121204600F001FD0021204600F097
:10032000FDFC10BD00240140826800210123DB0791
:100330001A4382600F231B038268491CD20FD20725
:10034000994201D0002AF7D18168002901DB006CB5
:1003500070470020704702460020CB0104D5926808
:1003600001231B069A4300E012680A4200D00120D4
:100370007047000030B5C268084B8C681A400B68A3
:100380000D792343CC686D032C4323430C694969E1
:1003900023430B431343C36030BD000003D2FFFF70
:1003A000816804221143816070470021016001715E
:1003B0008160C1600161416170470000064A0548E3
:1003C0005188405C491C89B25180FE2901D100212D
:1003D0005180704754000020140000200448018818
:1003E0004088814201D10020704701207047000001
:1003F00014000020F8B5CF080E460546002408E09A
:100400000821284600F040FA00280BD1641CE4B211
:100410000835BC42F4D3710704D07107490F284650
:1004200000F032FAF8BD10B501214C06204600F06C
:100430005DFC0021204600F059FC10BD70B504465B
:10044000817A012005462B4E8D4031680143316091
:10045000F069A843F061207B002812D1F068A8431E
:10046000F060E088618800040843A17AC900891916
:100470000864A088218800040843A17AC90089196A
:100480004864207B012814D1F0682843F06020469E
:10049000FFF786FE1021C841A17AC90089190864B6
:1004A000201DFFF77DFE1021C841A17AC9008919DE
:1004B0004864E07A0028706805D02843706020897D
:1004C000002802D004E0A843F8E77069A8437061EF
:1004D0002089012802D1706928437061607B01285E
:1004E00002D1F0692843F061306840084000306074
:1004F00070BD000000660040002A426901D00A4336
:1005000000E08A434261704710B50368002202246C
:10051000A34303600368012423430360314B00E0DD
:10052000521C4468E40701D19A42F9D14268D207CB
:100530003ED08C798022012C04683BD09443046027
:10054000CC794022012C046836D0944304600C7AA4
:100550002022012C046831D0944304604C7A10228C
:10056000012C04682CD0944304608C7A0822012C5E
:10057000046827D094430460CC7A0422012C0468D8
:1005800022D0944304608A78CC78920724062243D0
:100590000C79240422434C79098824052243491EFE
:1005A0000A43C261016849084900016000210EE068
:1005B000002010BD1443C2E71443C7E71443CCE73F
:1005C0001443D1E71443D6E71443DBE7491C4268E0
:1005D000D20701D09942F9D14068C007E8D1012083
:1005E00010BD0000FFFFFF00F1B501218AB04804F3
:1005F00000F064FB0121480600F06CFB022669460E
:100600000E74002403208C74C00203900125CD7465
:10061000032048740927FF0603A9384600F014FA9E
:1006200004220B21384600F047FA04220C213846F8
:1006300000F042FA194F3846FFF7F5FE69468C7113
:10064000CC7102940A988870CC70072008714E71A2
:10065000082008803846FFF757FF08A98C70CD7036
:100660000D71C020694608834C838C83CC830C8435
:1006700008A94D7106A8FFF7E1FE1E20694608751E
:100680004E758D7505A800F0EFFA0122022138465B
:10069000FFF732FF00200BB0F0BD00000064004007
:1006A0000B0130B51B18FF3381331C6B04252C4024
:1006B00014721C6B29D0E40854601C6B02252C407A
:1006C00054725C6B2407240F94725C6B240AD474FC
:1006D0009C6BD4729C6B240A14739C6B240C547313
:1006E0009C6B240E9473DC6BD473DC6B240A14743F
:1006F000DC6B240C5474DB6B1B0E937420220029DA
:1007000006D001691143016130BD640D1460D4E766
:10071000C1681143C16030BD30B502469368002006
:100720005B0108D49068000101D5012003E09068C6
:10073000C0002ED5022003019A18FF3281321368BF
:10074000DB07DB0F13600B7A002B24D014684D6895
:100750001C434B7AED002B431C4314608B7A1B0720
:100760001B0F8B7253681B091B01536053688C7AF3
:1007700023435360CB68CC7A1B02234393600B69FD
:10078000C97B1B020B43D36011680123194311601D
:1007900030BD042030BD13684C7A23430C886405B7
:1007A00023431360DAE700000022002904D0012966
:1007B00005D0022906D112E08268134801E0826860
:1007C000124802401249501A8A4218D00ADC002A04
:1007D00017D01048101811D0022810D10DE08268EF
:1007E0000D48EEE7FF38FF38801E06D00B49401851
:1007F00004D001214904884201D101207047002022
:100800007047022070470000030000040003000846
:1008100000010008FFFFFFFB000003100003FFF7CB
:10082000F0B585B06A4600211148FFF739FF002076
:100830006E461049104A0746B57A0CE03318DB7A49
:100840000C8813550B885B1C0B800B88FE2B00D18A
:100850000F80401CC0B28542F0D88021074800F0CC
:1008600042F9074800680749086005B0F0BD00007C
:1008700000640040140000205400002000040048E0
:10088000280000202C000020F0B585B00022602355
:1008900000936C46019222726272A1726B4604E070
:1008A000845C9D18521CEC7292B28A42F8D34021AB
:1008B0001B4800F018F91B4800681B4908601B4FD3
:1008C000002469463846FFF727FF0546184E06E024
:1008D000641CA4B269463846FFF71EFF0546042D86
:1008E00002D00024014607E0B442F1D3012005B054
:1008F000F0BD641CA4B229463846FFF755FF012815
:1009000001D0B442F5D3B44203D3022801D0002869
:1009100001D00020EBE70020FFF766FEE6E70000CD
:10092000000400482800002030000020006400403F
:10093000FF4F00000029016802D00122114301E0AD
:10094000014A114001607047FEFF0000F0B50168E8
:100950002B4A114001600021016041608160C1604B
:100960002849284A08390F2390422DD0254AF024DF
:10097000143290422FD0234A1D022832904231D0A7
:10098000204E1A033C36B04203D1486815E0486057
:10099000F0BD1C4F0F2650373604B8422DD0194FEA
:1009A0006437B84202D14868320106E0154F783703
:1009B000B84204D148680F2212061043E7E71249F3
:1009C000114F0839B84202D148681843DFE70E4B8F
:1009D0001433984202D148682043D8E70A4B2833A1
:1009E000984202D148682843D1E7074B3C339842EC
:1009F000CBD0054A50329042CAD148683043C6E74E
:100A0000FEFF0000080002400804024030B5036801
:100A10000C4A0C6A13408A684D6922430C692C43C6
:100A200022438C692243CC6922434C6A22438C6A5C
:100A300022431A430260CA6842600A6882604968B9
:100A4000C16030BD0F80FFFFF0B5002203250123F8
:100A50000C6893401C409C422AD10C79012C01D097
:100A6000022C12D1876854002E46A640B7438760F7
:100A70004E79A64084682643866084889C4384809F
:100A800084888B7993401C438480066853002C46ED
:100A90009C40A64306600E7907689E403E43066070
:100AA000C668A643C660CC799C40C3681C43C4603A
:100AB000521C102ACBD3F0BD4B07DB0E9A40C9085D
:100AC00010B589000818016A0F249C40A1430162F7
:100AD000016A1143016210BD0246128A00200A42D7
:100AE00000D0012070470185704781617047FEE7A3
:100AF0001CB50121480400F0E1F8002069460871A6
:100B00000120C87160200924E40600902046FFF708
:100B10009BFF8021009169462046FFF795FF1CBD91
:100B200070B500F025F810490028087114D00F4D59
:100B30006C06012803D0022801D003280CD12046DE
:100B400000F0AEF9002808D00021204600F0B8FAE5
:100B50002946204600F0B6FA70BD2946204600F02E
:100B6000AFFA0021F5E700001E000020204E000033
:100B700070B50925ED0620212846FFF7ADFF204C72
:100B8000402160702846FFF7A7FFA070802128460B
:100B9000FFF7A2FFE0702178012925D161780029B3
:100BA00004D0A278002A01D000281DD1154E336848
:100BB000154A15685B1BFF25F535AB4214D9126841
:100BC000326000222270002905D0A178002907D0C8
:100BD000002807D011E0E088401CE080012070BDB3
:100BE000022070BD032070BD6178012905D1A17874
:100BF000012902D1012800D12070002070BD000021
:100C00001E0000203C000020280000207CB50320AE
:100C10000121400400F052F801206A4610710021C1
:100C200091715071D071C8200D4C009069462046DA
:100C3000FFF70AFFC8212046FFF757FFFF240925C9
:100C40000134ED06694628460094FFF7FDFE214673
:100C50002846FFF74AFFFF20F53000F0E9FB7CBD96
:100C6000000400487047000030B582780124017804
:100C7000002A15D08B080E4A9B009A181368890722
:100C8000C90EFF258D40AB434578AD072D0E8D4035
:100C90001D4315600078C006C00E8440054804E07E
:100CA000C806C00E844003488030046030BD000098
:100CB00000E400E000E100E070470000044A002981
:100CC000516901D0014300E0814351617047000048
:100CD00000100240044A0029D16901D0014300E01C
:100CE0008143D1617047000000100240044A00298E
:100CF000116901D0014300E0814311617047000098
:100D000000100240044A0029916901D0014300E02B
:100D1000814391617047000000100240044A00299D
:100D2000D16801D0014300E08143D16070470000E9
:100D300000100240704700001CB5002322480093B9
:100D4000019301680122120411430160510005243E
:100D5000240302680A400192009A521C0092019AF0
:100D6000002A02D1009AA242F3D10168890328D552
:100D700001210191154A11211160416841604168CA
:100D8000416041687F22D203914341604168112252
:100D900012041143416001680122120611430160EF
:100DA00001688901FCD54168890889004160416872
:100DB00002221143416041680907890F0229FAD1D3
:100DC0001CBD01931CBD0000001002400020024029
:100DD00002480168491E0160704700002800002099
:100DE00070B50E487D21C9000D4C0068FFF79EF9D3
:100DF0000C4A0723401EA04201D901210BE050619B
:100E0000094EF16903250902090AAD072943F16179
:100E10000021916113610029EDD170BD0000002017
:100E2000FFFFFF0000E000E004ED00E010B5144813
:100E300001680122114301604168124A114041607A
:100E40000168114A11400160016801229204914336
:100E5000016041683F22120491434160C16A09095F
:100E60000901C162016BFF22543291430163416B5E
:100E700049084900416300218160FFF75DFF10BD13
:100E8000001002400CB8FF08FFFFF6FE00290188A1
:100E900002D00122114301E0490849000180704756
:100EA000806B7047F0B501218BB04804FFF706FF57
:100EB0000226684606710125457100248471C571BA
:100EC0000E200927FF06009069463846FFF7BCFD53
:100ED000022203213846FFF7EFFD02221146384671
:100EE000FFF7EAFD022201213846FFF7E5FD012167
:100EF0000846FFF7EFFE2F2168468183C483104820
:100F0000089068468484AF0707A9384600F0DCF8EB
:100F10007021684601814581868202A93846049481
:100F200000F09CF802A9384600F054F802A93846AF
:100F300000F008F801213846FFF7A8FF0BB0F0BD1C
:100F40001F4E000070B5028C10239A430284048C5B
:100F50008288038B1A4D2B400D782D062D0C1D43D6
:100F600020239C438B891B051E0C4B8826431B05A5
:100F70001B0C144C3343A04202D0134EB04219D183
:100F8000124E32400E8AB604360C3243A04211D1C2
:100F90008024A343CC892405240C1C4340239C4378
:100FA0008B881B051B0C2343094C22404C8AA4044C
:100FB000240C22438280058389688163038470BD89
:100FC000FF8C0000002C014000400140FFFB0000AE
:100FD000FFF7000030B5028C1A4B1A400284038CD4
:100FE0008288848B7025AC43A4080D88A400254317
:100FF000154C23400C7B2406240C1C438B781B06C9
:101000001B0C2343114CA04215D1114C23408C7B67
:101010002406240C1C430F4B1C400B791B061B0C95
:1010200023430D4C22400C8A2405240C14434A8A85
:101030001205120C2243828085838968C163038470
:1010400030BD0000FFFE0000FFFD0000002C01404D
:10105000FFF70000FFFB0000FFCF000030B5028C5F
:10106000124B1A400284058C8288838B104C2340DB
:101070000C782406240C1C430E4B1D400B7B1B07D5
:101080001B0C2B438D782D072D0C1D430A4B9842CA
:1010900005D10A4B13400A8A9205120C1A4382802A
:1010A000848389680164058430BD0000FFEF00007F
:1010B000FF8C0000FFDF0000002C0140FFBF00009C
:1010C00081637047C163704710B50288144B984222
:1010D00006D00124A407A04202D0124CA04203D1A2
:1010E0007024A2434C8822430F4CA04203D00F4CE3
:1010F00022400C89224302804A68C2620A88028523
:10110000984208D00A4A904205D00A4A904202D03A
:10111000094A904201D1897A01860121818210BD5C
:10112000002C01400004004000100040FFFC0000C3
:1011300000400140004401400048014002E008C86E
:10114000121F08C1002AFAD170477047002001E041
:1011500001C1121F002AFBD17047000070B51D4865
:1011600000F042FA002834D01B4D2C68207900286A
:1011700003D0022801D020282BD1207C022828D897
:10118000617B062925D1002804D001281DD0022822
:101190001BD103E0204600F0D5F916E064210F488A
:1011A000FEF7F3FF0D49204600F0E4F801280CD1CA
:1011B0000A4908466430044600F0E2FA0749C031A3
:1011C000087201462046FFF715F964212868FEF7EA
:1011D000DCFF70BD8701002044000020B902002020
:1011E000074910B508466430044600F0C9FA0449BE
:1011F000C031087201462046FFF7FCF8002010BD00
:10120000F001002070B50F4C0D486060401CA060DC
:10121000001DE060163800F0E9FA094D0320113D89
:101220002871022028740620687361680120087004
:101230000548A168FEF7BEFF0820687170BD000078
:101240000102002044000020DDCCBBAA10B5FFF74E
:1012500085FF10BDF8B5164C164960880125401869
:10126000154900268F1088420CD32078002807D11A
:1012700009202902C006FFF736FC384600F0D8F8EE
:10128000257000E02670A0880C4940180C4988425F
:101290000BD36078002806D108210A48FFF723FC09
:1012A000384600F0C5F86570F8BD6670F8BD0000FE
:1012B0001800002008D5FFFFD10700006CEEFFFFEB
:1012C000E90300000004004810B5002000F0BAF85F
:1012D000034CA080012000F0B5F8608010BD000034
:1012E0001800002010B5FFF77BFDFFF7DBFDFFF7CF
:1012F0008DFCFEF77BFF0020FFF776F9FFF7F8FB88
:1013000010BD0000F8B501208007FFF7C9FD1649A0
:10131000164E01250024164F884203D13D703068D7
:1013200005701EE001208007FFF7BAFD0E498842D4
:1013300006D1032038703068057045708470F8BDA0
:1013400001208007FFF7ACFD0749884206D107203E
:1013500038703068057045708570F8BD3C70306835
:1013600004704470EAE70000204E000050000020A6
:1013700040000020F8B50F460C46064601461136DF
:10138000113711222046FEF7E7FE307802281DD1E2
:10139000254600201235A07408220DA1681CFEF716
:1013A000DBFE284606220CA10B30FEF7D5FE2846B0
:1013B00006220BA11130FEF7CFFE182060713078A5
:1013C000387001202071BE206034E0700120F8BD2B
:1013D0004D2D4249475054003030303430300000F9
:1013E00030303031303100000A881346424010015D
:1013F0005040C0B21A0A03025A40C3005A400009C2
:1014000042400A80704738B505460C460020C0436C
:101410006946088004E0287869466D1CFFF7E4FF00
:101420002046641EA4B20028F5D16846008838BD65
:1014300003490A680B68D31A8342FBD37047000044
:101440002800002010B5044600210F4A08464B0032
:101450001B195B00D35A491C1818C9B20A29F6D3C4
:101460000A21FEF763FE002C02D0012C0AD103E012
:1014700006494843400A05E00549484303218902DB
:10148000FEF754FE80B210BD520100203903000067
:10149000E5290000FFF726FFFFF7B4FE214E224D9D
:1014A000224F234CFFF7D2FEFFF73AFB306821684A
:1014B000401A642821D32068306028681D48FEF750
:1014C0006FFF0A212868FEF731FE002912D1FFF7CD
:1014D000FBFE20687D21C0434901884201D9FFF706
:1014E000B9FE20681449C043884203D9FFF70AFFB8
:1014F000FFF776FE2868401C286038682168401A8B
:10150000322803D980210D48FFF7EFFA0C48006814
:101510002168401A3228C5D940210848FFF7E5FA6A
:10152000C0E7000034000020380000202C0000201C
:101530002800002000240140881300000004004817
:1015400030000020F8B5264F817C00267C06254D12
:10155000427CEE2902D1C37CEE2B02D0EE2A0FD0C2
:101560003CE0012A02D0002A2FD037E0394620463D
:10157000FFF7A6FD00212046FFF7A4FD012022E091
:10158000C07CEE2802D0EE290FD027E0012902D03E
:1015900000291AD022E039462046FFF791FD0021AC
:1015A0002046FFF78FFD03200DE0012802D0002820
:1015B0000BD013E039462046FFF782FD002120467C
:1015C000FFF780FD0720287008E000212046FFF784
:1015D00077FD39462046FFF775FD2E700120F8BDD6
:1015E000204E00004000002010B5044607E0FEF742
:1015F000E5FE0146204600F008F8012804D0FEF779
:10160000EDFE0128F3D0002010BDF0B50446002601
:10161000451D0670407822466632012700281AD000
:10162000012825D002282BD003282FD0042833D01E
:10163000052837D006283DD0072841D008284ED0AD
:1016400009285CD00A2860D00B2873D00C287AD0E7
:101650000D286DD083E0EB296BD100202970C043A9
:101660001070000A5070284600F0E7F867707AE0C2
:10167000012974D16970284600F0DFF802206AE081
:10168000A970284600F0D9F8032064E0E9702846E4
:1016900000F0D3F804205EE02971284600F0CDF870
:1016A000052058E050295AD86971284600F0C5F83D
:1016B000062050E0A971284600F0BFF807204AE054
:1016C000A278E81D1154284600F0B7F8A078401C15
:1016D000C0B2A070032846D1A67008203BE0E27893
:1016E00028460A301154284600F0A7F8E078401C3C
:1016F000C0B2E070062836D1E67009202BE02974CC
:10170000284600F09AF80A2025E022792846113070
:101710001154284600F091F82079401CC0B2207185
:10172000697988421FD126710B2014E002E00AE09B
:1017300013E014E05078127800021043C0B28842DF
:1017400018D10C2007E05078127800021043000AEC
:1017500088420FD10D20607005E0BE2905D066706B
:10176000A670E67026712078F0BD6035E97066706D
:101770002770F8E76670A670E67026713046F0BDF7
:10178000F8B50546487B184E0C46315CA171315CBA
:10179000491CCAB232541046677BFF21FEF7C6FCD3
:1017A000F155617920461131FFF72DFE2146613157
:1017B0000870000A48700E46112221462846FEF79E
:1017C000CBFC284621461130627911310546FEF7DF
:1017D000C3FC6079032240193146FEF7BDFC6079F5
:1017E0001430C0B2F8BD00007A010020EB21017076
:1017F0000121417000228270BE23C27063210B540C
:10180000827111464318491CC9B2DA710329F9D310
:1018100000214318491CC9B29A720629F9D3002144
:101820004318491CC9B25A745029F9D30021C9433D
:1018300061300170090A4170704718B561300A467D
:101840004178044603780802184369460880104628
:10185000FFF7CAFD694608882070000A607018BD4D
:101860008018000800000020540000003C1100080F
:10187000D418000854000020340700004C11000860
:10188000006CDC0200000000000000000102030404
:101890000607080900000000000000000000010128
:1018A0000101000000000000FFFFFFFFFFFFFFFF3E
:1018B000FFFFFFFFFFFFFFFF00000000FFFFFFFF34
:1018C000000000008C01002000000000000000006B
:0418D0000000000014
:04000005080000C12E
:00000001FF
